{
  "_format": "hh-sol-artifact-1",
  "contractName": "PrivateVestingV2",
  "sourceName": "contracts/PrivateVestingV2.sol",
  "abi": [
    {
      "inputs": [
        {
          "internalType": "address",
          "name": "_rte",
          "type": "address"
        },
        {
          "internalType": "address",
          "name": "_vestingContract",
          "type": "address"
        },
        {
          "internalType": "uint256",
          "name": "_startBuyTime",
          "type": "uint256"
        },
        {
          "internalType": "uint256",
          "name": "_claimTime",
          "type": "uint256"
        },
        {
          "internalType": "uint256",
          "name": "_cliffTime",
          "type": "uint256"
        }
      ],
      "stateMutability": "nonpayable",
      "type": "constructor"
    },
    {
      "anonymous": false,
      "inputs": [
        {
          "indexed": true,
          "internalType": "address",
          "name": "previousOwner",
          "type": "address"
        },
        {
          "indexed": true,
          "internalType": "address",
          "name": "newOwner",
          "type": "address"
        }
      ],
      "name": "OwnershipTransferred",
      "type": "event"
    },
    {
      "inputs": [],
      "name": "VESTING_DURATION",
      "outputs": [
        {
          "internalType": "uint256",
          "name": "",
          "type": "uint256"
        }
      ],
      "stateMutability": "view",
      "type": "function"
    },
    {
      "inputs": [],
      "name": "VESTING_WINDOW",
      "outputs": [
        {
          "internalType": "uint256",
          "name": "",
          "type": "uint256"
        }
      ],
      "stateMutability": "view",
      "type": "function"
    },
    {
      "inputs": [],
      "name": "claim",
      "outputs": [],
      "stateMutability": "nonpayable",
      "type": "function"
    },
    {
      "inputs": [],
      "name": "claimTime",
      "outputs": [
        {
          "internalType": "uint256",
          "name": "",
          "type": "uint256"
        }
      ],
      "stateMutability": "view",
      "type": "function"
    },
    {
      "inputs": [],
      "name": "cliffTime",
      "outputs": [
        {
          "internalType": "uint256",
          "name": "",
          "type": "uint256"
        }
      ],
      "stateMutability": "view",
      "type": "function"
    },
    {
      "inputs": [],
      "name": "dailyVestingPercent",
      "outputs": [
        {
          "internalType": "uint256",
          "name": "",
          "type": "uint256"
        }
      ],
      "stateMutability": "view",
      "type": "function"
    },
    {
      "inputs": [
        {
          "internalType": "address",
          "name": "",
          "type": "address"
        }
      ],
      "name": "debtByAddress",
      "outputs": [
        {
          "internalType": "uint256",
          "name": "initVestingDebt",
          "type": "uint256"
        },
        {
          "internalType": "uint256",
          "name": "dailyVestingDebt",
          "type": "uint256"
        }
      ],
      "stateMutability": "view",
      "type": "function"
    },
    {
      "inputs": [],
      "name": "getUserInfo",
      "outputs": [
        {
          "components": [
            {
              "internalType": "uint256",
              "name": "buyAmount",
              "type": "uint256"
            },
            {
              "internalType": "uint256",
              "name": "initVestingAmount",
              "type": "uint256"
            },
            {
              "internalType": "uint256",
              "name": "initVestingDebt",
              "type": "uint256"
            },
            {
              "internalType": "uint256",
              "name": "dailyVestingAmount",
              "type": "uint256"
            },
            {
              "internalType": "uint256",
              "name": "dailyVestingDebt",
              "type": "uint256"
            }
          ],
          "internalType": "struct IVesting.User",
          "name": "",
          "type": "tuple"
        }
      ],
      "stateMutability": "view",
      "type": "function"
    },
    {
      "inputs": [],
      "name": "getVestingAmount",
      "outputs": [
        {
          "internalType": "uint256",
          "name": "",
          "type": "uint256"
        }
      ],
      "stateMutability": "view",
      "type": "function"
    },
    {
      "inputs": [],
      "name": "initVestingPercent",
      "outputs": [
        {
          "internalType": "uint256",
          "name": "",
          "type": "uint256"
        }
      ],
      "stateMutability": "view",
      "type": "function"
    },
    {
      "inputs": [],
      "name": "owner",
      "outputs": [
        {
          "internalType": "address",
          "name": "",
          "type": "address"
        }
      ],
      "stateMutability": "view",
      "type": "function"
    },
    {
      "inputs": [],
      "name": "renounceOwnership",
      "outputs": [],
      "stateMutability": "nonpayable",
      "type": "function"
    },
    {
      "inputs": [
        {
          "internalType": "contract IERC20",
          "name": "token",
          "type": "address"
        }
      ],
      "name": "revokeToken",
      "outputs": [],
      "stateMutability": "nonpayable",
      "type": "function"
    },
    {
      "inputs": [],
      "name": "rte",
      "outputs": [
        {
          "internalType": "contract IERC20",
          "name": "",
          "type": "address"
        }
      ],
      "stateMutability": "view",
      "type": "function"
    },
    {
      "inputs": [
        {
          "internalType": "uint256",
          "name": "_claimTime",
          "type": "uint256"
        }
      ],
      "name": "setClaimTime",
      "outputs": [],
      "stateMutability": "nonpayable",
      "type": "function"
    },
    {
      "inputs": [
        {
          "internalType": "uint256",
          "name": "_cliffTime",
          "type": "uint256"
        }
      ],
      "name": "setCliffTime",
      "outputs": [],
      "stateMutability": "nonpayable",
      "type": "function"
    },
    {
      "inputs": [
        {
          "internalType": "address",
          "name": "_rte",
          "type": "address"
        }
      ],
      "name": "setRte",
      "outputs": [],
      "stateMutability": "nonpayable",
      "type": "function"
    },
    {
      "inputs": [],
      "name": "startBuyTime",
      "outputs": [
        {
          "internalType": "uint256",
          "name": "",
          "type": "uint256"
        }
      ],
      "stateMutability": "view",
      "type": "function"
    },
    {
      "inputs": [
        {
          "internalType": "address",
          "name": "newOwner",
          "type": "address"
        }
      ],
      "name": "transferOwnership",
      "outputs": [],
      "stateMutability": "nonpayable",
      "type": "function"
    },
    {
      "inputs": [],
      "name": "vestingContract",
      "outputs": [
        {
          "internalType": "address",
          "name": "",
          "type": "address"
        }
      ],
      "stateMutability": "view",
      "type": "function"
    }
  ],
  "bytecode": "0x60c0604052600f6006556201518060809081525060b760a0908152506601f0fddc23ba0e6007553480156200003357600080fd5b5060405162001e4b38038062001e4b833981810160405281019062000059919062000215565b620000796200006d6200011b60201b60201c565b6200012360201b60201c565b84600160006101000a81548173ffffffffffffffffffffffffffffffffffffffff021916908373ffffffffffffffffffffffffffffffffffffffff16021790555083600260006101000a81548173ffffffffffffffffffffffffffffffffffffffff021916908373ffffffffffffffffffffffffffffffffffffffff160217905550826003819055508160048190555080600581905550505050505062000309565b600033905090565b60008060009054906101000a900473ffffffffffffffffffffffffffffffffffffffff169050816000806101000a81548173ffffffffffffffffffffffffffffffffffffffff021916908373ffffffffffffffffffffffffffffffffffffffff1602179055508173ffffffffffffffffffffffffffffffffffffffff168173ffffffffffffffffffffffffffffffffffffffff167f8be0079c531659141344cd1fd0a4f28419497f9722a3daafe3b4186f6b6457e060405160405180910390a35050565b600081519050620001f881620002d5565b92915050565b6000815190506200020f81620002ef565b92915050565b600080600080600060a086880312156200022e57600080fd5b60006200023e88828901620001e7565b95505060206200025188828901620001e7565b94505060406200026488828901620001fe565b93505060606200027788828901620001fe565b92505060806200028a88828901620001fe565b9150509295509295909350565b6000620002a482620002ab565b9050919050565b600073ffffffffffffffffffffffffffffffffffffffff82169050919050565b6000819050919050565b620002e08162000297565b8114620002ec57600080fd5b50565b620002fa81620002cb565b81146200030657600080fd5b50565b60805160a051611b006200034b6000396000818161046501528181610492015281816104b601526105ed01526000818161041f01526108e80152611b006000f3fe608060405234801561001057600080fd5b506004361061012c5760003560e01c8063715018a6116100ad578063933f4eef11610071578063933f4eef146102da578063aa682682146102f6578063ac589f6414610314578063d00d101214610330578063f2fde38b1461034e5761012c565b8063715018a61461024757806389a1420f146102515780638a97973f1461026f5780638da5cb5b1461028b5780638e3770e6146102a95761012c565b80634cfc4d30116100f45780634cfc4d30146101c55780634e71d92d146101e35780635388d55b146101ed5780635d8d15851461020b5780635e6f6045146102295761012c565b80630f1a644414610131578063247d867f1461014f57806327b3bf111461016d5780633f57faa91461018b578063421cc337146101a9575b600080fd5b61013961036a565b6040516101469190611763565b60405180910390f35b610157610370565b6040516101649190611763565b60405180910390f35b610175610376565b6040516101829190611763565b60405180910390f35b61019361037c565b6040516101a09190611763565b60405180910390f35b6101c360048036038101906101be919061129e565b610565565b005b6101cd6105eb565b6040516101da9190611763565b60405180910390f35b6101eb61060f565b005b6101f5610754565b604051610202919061164b565b60405180910390f35b61021361077a565b6040516102209190611748565b60405180910390f35b610231610838565b60405161023e9190611607565b60405180910390f35b61024f61085e565b005b6102596108e6565b6040516102669190611763565b60405180910390f35b6102896004803603810190610284919061129e565b61090a565b005b610293610990565b6040516102a09190611607565b60405180910390f35b6102c360048036038101906102be91906111fa565b6109b9565b6040516102d192919061177e565b60405180910390f35b6102f460048036038101906102ef919061124c565b6109dd565b005b6102fe610b15565b60405161030b9190611763565b60405180910390f35b61032e600480360381019061032991906111fa565b610b1b565b005b610338610bdb565b6040516103459190611763565b60405180910390f35b610368600480360381019061036391906111fa565b610be1565b005b60055481565b60065481565b60045481565b60008061038761077a565b90506000600860003373ffffffffffffffffffffffffffffffffffffffff1673ffffffffffffffffffffffffffffffffffffffff1681526020019081526020016000206040518060400160405290816000820154815260200160018201548152505090506000600454421061040d578160000151836020015161040a91906118eb565b90505b600060055442106105505760006104617f000000000000000000000000000000000000000000000000000000000000000061045360035442610cd990919063ffffffff16565b610cef90919063ffffffff16565b90507f0000000000000000000000000000000000000000000000000000000000000000811161049057806104b2565b7f00000000000000000000000000000000000000000000000000000000000000005b90507f00000000000000000000000000000000000000000000000000000000000000008114156104f757836020015185606001516104f091906118eb565b915061054e565b83602001516105418261053367016345785d8a00006105256007548b60600151610d0590919063ffffffff16565b610cef90919063ffffffff16565b610d0590919063ffffffff16565b61054b91906118eb565b91505b505b808261055c919061180a565b94505050505090565b61056d610d1b565b73ffffffffffffffffffffffffffffffffffffffff1661058b610990565b73ffffffffffffffffffffffffffffffffffffffff16146105e1576040517f08c379a00000000000000000000000000000000000000000000000000000000081526004016105d8906116e8565b60405180910390fd5b8060048190555050565b7f000000000000000000000000000000000000000000000000000000000000000081565b600061061961037c565b90506000811161065e576040517f08c379a0000000000000000000000000000000000000000000000000000000008152600401610655906116a8565b60405180910390fd5b6106ab3382600160009054906101000a900473ffffffffffffffffffffffffffffffffffffffff1673ffffffffffffffffffffffffffffffffffffffff16610d239092919063ffffffff16565b60006106b561077a565b90506000600860003373ffffffffffffffffffffffffffffffffffffffff1673ffffffffffffffffffffffffffffffffffffffff16815260200190815260200160002090508281600101600082825461070e919061180a565b9250508190555060008160000154141561074f57816020015181600101600082825461073a91906118eb565b92505081905550816020015181600001819055505b505050565b600160009054906101000a900473ffffffffffffffffffffffffffffffffffffffff1681565b6107826110da565b6000600260009054906101000a900473ffffffffffffffffffffffffffffffffffffffff1673ffffffffffffffffffffffffffffffffffffffff1663989e5ea9336040518263ffffffff1660e01b81526004016107df9190611607565b60a06040518083038186803b1580156107f757600080fd5b505afa15801561080b573d6000803e3d6000fd5b505050506040513d601f19601f8201168201806040525081019061082f9190611275565b90508091505090565b600260009054906101000a900473ffffffffffffffffffffffffffffffffffffffff1681565b610866610d1b565b73ffffffffffffffffffffffffffffffffffffffff16610884610990565b73ffffffffffffffffffffffffffffffffffffffff16146108da576040517f08c379a00000000000000000000000000000000000000000000000000000000081526004016108d1906116e8565b60405180910390fd5b6108e46000610da9565b565b7f000000000000000000000000000000000000000000000000000000000000000081565b610912610d1b565b73ffffffffffffffffffffffffffffffffffffffff16610930610990565b73ffffffffffffffffffffffffffffffffffffffff1614610986576040517f08c379a000000000000000000000000000000000000000000000000000000000815260040161097d906116e8565b60405180910390fd5b8060058190555050565b60008060009054906101000a900473ffffffffffffffffffffffffffffffffffffffff16905090565b60086020528060005260406000206000915090508060000154908060010154905082565b6109e5610d1b565b73ffffffffffffffffffffffffffffffffffffffff16610a03610990565b73ffffffffffffffffffffffffffffffffffffffff1614610a59576040517f08c379a0000000000000000000000000000000000000000000000000000000008152600401610a50906116e8565b60405180910390fd5b60008173ffffffffffffffffffffffffffffffffffffffff166370a08231306040518263ffffffff1660e01b8152600401610a949190611607565b60206040518083038186803b158015610aac57600080fd5b505afa158015610ac0573d6000803e3d6000fd5b505050506040513d601f19601f82011682018060405250810190610ae491906112c7565b9050610b1133828473ffffffffffffffffffffffffffffffffffffffff16610d239092919063ffffffff16565b5050565b60035481565b610b23610d1b565b73ffffffffffffffffffffffffffffffffffffffff16610b41610990565b73ffffffffffffffffffffffffffffffffffffffff1614610b97576040517f08c379a0000000000000000000000000000000000000000000000000000000008152600401610b8e906116e8565b60405180910390fd5b80600160006101000a81548173ffffffffffffffffffffffffffffffffffffffff021916908373ffffffffffffffffffffffffffffffffffffffff16021790555050565b60075481565b610be9610d1b565b73ffffffffffffffffffffffffffffffffffffffff16610c07610990565b73ffffffffffffffffffffffffffffffffffffffff1614610c5d576040517f08c379a0000000000000000000000000000000000000000000000000000000008152600401610c54906116e8565b60405180910390fd5b600073ffffffffffffffffffffffffffffffffffffffff168173ffffffffffffffffffffffffffffffffffffffff161415610ccd576040517f08c379a0000000000000000000000000000000000000000000000000000000008152600401610cc490611688565b60405180910390fd5b610cd681610da9565b50565b60008183610ce791906118eb565b905092915050565b60008183610cfd9190611860565b905092915050565b60008183610d139190611891565b905092915050565b600033905090565b610da48363a9059cbb60e01b8484604051602401610d42929190611622565b604051602081830303815290604052907bffffffffffffffffffffffffffffffffffffffffffffffffffffffff19166020820180517bffffffffffffffffffffffffffffffffffffffffffffffffffffffff8381831617835250505050610e6d565b505050565b60008060009054906101000a900473ffffffffffffffffffffffffffffffffffffffff169050816000806101000a81548173ffffffffffffffffffffffffffffffffffffffff021916908373ffffffffffffffffffffffffffffffffffffffff1602179055508173ffffffffffffffffffffffffffffffffffffffff168173ffffffffffffffffffffffffffffffffffffffff167f8be0079c531659141344cd1fd0a4f28419497f9722a3daafe3b4186f6b6457e060405160405180910390a35050565b6000610ecf826040518060400160405280602081526020017f5361666545524332303a206c6f772d6c6576656c2063616c6c206661696c65648152508573ffffffffffffffffffffffffffffffffffffffff16610f349092919063ffffffff16565b9050600081511115610f2f5780806020019051810190610eef9190611223565b610f2e576040517f08c379a0000000000000000000000000000000000000000000000000000000008152600401610f2590611728565b60405180910390fd5b5b505050565b6060610f438484600085610f4c565b90509392505050565b606082471015610f91576040517f08c379a0000000000000000000000000000000000000000000000000000000008152600401610f88906116c8565b60405180910390fd5b610f9a85611060565b610fd9576040517f08c379a0000000000000000000000000000000000000000000000000000000008152600401610fd090611708565b60405180910390fd5b6000808673ffffffffffffffffffffffffffffffffffffffff16858760405161100291906115f0565b60006040518083038185875af1925050503d806000811461103f576040519150601f19603f3d011682016040523d82523d6000602084013e611044565b606091505b5091509150611054828286611073565b92505050949350505050565b600080823b905060008111915050919050565b60608315611083578290506110d3565b6000835111156110965782518084602001fd5b816040517f08c379a00000000000000000000000000000000000000000000000000000000081526004016110ca9190611666565b60405180910390fd5b9392505050565b6040518060a0016040528060008152602001600081526020016000815260200160008152602001600081525090565b60008135905061111881611a6e565b92915050565b60008151905061112d81611a85565b92915050565b60008135905061114281611a9c565b92915050565b600060a0828403121561115a57600080fd5b61116460a06117a7565b90506000611174848285016111e5565b6000830152506020611188848285016111e5565b602083015250604061119c848285016111e5565b60408301525060606111b0848285016111e5565b60608301525060806111c4848285016111e5565b60808301525092915050565b6000813590506111df81611ab3565b92915050565b6000815190506111f481611ab3565b92915050565b60006020828403121561120c57600080fd5b600061121a84828501611109565b91505092915050565b60006020828403121561123557600080fd5b60006112438482850161111e565b91505092915050565b60006020828403121561125e57600080fd5b600061126c84828501611133565b91505092915050565b600060a0828403121561128757600080fd5b600061129584828501611148565b91505092915050565b6000602082840312156112b057600080fd5b60006112be848285016111d0565b91505092915050565b6000602082840312156112d957600080fd5b60006112e7848285016111e5565b91505092915050565b6112f98161191f565b82525050565b600061130a826117d8565b61131481856117ee565b935061132481856020860161199d565b80840191505092915050565b61133981611979565b82525050565b600061134a826117e3565b61135481856117f9565b935061136481856020860161199d565b61136d81611a5d565b840191505092915050565b60006113856026836117f9565b91507f4f776e61626c653a206e6577206f776e657220697320746865207a65726f206160008301527f64647265737300000000000000000000000000000000000000000000000000006020830152604082019050919050565b60006113eb600c836117f9565b91507f636c61696d3a206572726f7200000000000000000000000000000000000000006000830152602082019050919050565b600061142b6026836117f9565b91507f416464726573733a20696e73756666696369656e742062616c616e636520666f60008301527f722063616c6c00000000000000000000000000000000000000000000000000006020830152604082019050919050565b60006114916020836117f9565b91507f4f776e61626c653a2063616c6c6572206973206e6f7420746865206f776e65726000830152602082019050919050565b60006114d1601d836117f9565b91507f416464726573733a2063616c6c20746f206e6f6e2d636f6e74726163740000006000830152602082019050919050565b6000611511602a836117f9565b91507f5361666545524332303a204552433230206f7065726174696f6e20646964206e60008301527f6f742073756363656564000000000000000000000000000000000000000000006020830152604082019050919050565b60a08201600082015161158060008501826115d2565b50602082015161159360208501826115d2565b5060408201516115a660408501826115d2565b5060608201516115b960608501826115d2565b5060808201516115cc60808501826115d2565b50505050565b6115db8161196f565b82525050565b6115ea8161196f565b82525050565b60006115fc82846112ff565b915081905092915050565b600060208201905061161c60008301846112f0565b92915050565b600060408201905061163760008301856112f0565b61164460208301846115e1565b9392505050565b60006020820190506116606000830184611330565b92915050565b60006020820190508181036000830152611680818461133f565b905092915050565b600060208201905081810360008301526116a181611378565b9050919050565b600060208201905081810360008301526116c1816113de565b9050919050565b600060208201905081810360008301526116e18161141e565b9050919050565b6000602082019050818103600083015261170181611484565b9050919050565b60006020820190508181036000830152611721816114c4565b9050919050565b6000602082019050818103600083015261174181611504565b9050919050565b600060a08201905061175d600083018461156a565b92915050565b600060208201905061177860008301846115e1565b92915050565b600060408201905061179360008301856115e1565b6117a060208301846115e1565b9392505050565b6000604051905081810181811067ffffffffffffffff821117156117ce576117cd611a2e565b5b8060405250919050565b600081519050919050565b600081519050919050565b600081905092915050565b600082825260208201905092915050565b60006118158261196f565b91506118208361196f565b9250827fffffffffffffffffffffffffffffffffffffffffffffffffffffffffffffffff03821115611855576118546119d0565b5b828201905092915050565b600061186b8261196f565b91506118768361196f565b925082611886576118856119ff565b5b828204905092915050565b600061189c8261196f565b91506118a78361196f565b9250817fffffffffffffffffffffffffffffffffffffffffffffffffffffffffffffffff04831182151516156118e0576118df6119d0565b5b828202905092915050565b60006118f68261196f565b91506119018361196f565b925082821015611914576119136119d0565b5b828203905092915050565b600061192a8261194f565b9050919050565b60008115159050919050565b60006119488261191f565b9050919050565b600073ffffffffffffffffffffffffffffffffffffffff82169050919050565b6000819050919050565b60006119848261198b565b9050919050565b60006119968261194f565b9050919050565b60005b838110156119bb5780820151818401526020810190506119a0565b838111156119ca576000848401525b50505050565b7f4e487b7100000000000000000000000000000000000000000000000000000000600052601160045260246000fd5b7f4e487b7100000000000000000000000000000000000000000000000000000000600052601260045260246000fd5b7f4e487b7100000000000000000000000000000000000000000000000000000000600052604160045260246000fd5b6000601f19601f8301169050919050565b611a778161191f565b8114611a8257600080fd5b50565b611a8e81611931565b8114611a9957600080fd5b50565b611aa58161193d565b8114611ab057600080fd5b50565b611abc8161196f565b8114611ac757600080fd5b5056fea26469706673582212204c7d023effdfca47be9737788b414375f15acdb89e270a392c20c410657c8e1864736f6c63430008000033",
  "linkReferences": {},
  "deployedLinkReferences": {}
}