{
  "_format": "hh-sol-artifact-1",
  "contractName": "PrivateVesting",
  "sourceName": "contracts/PrivateVesting.sol",
  "abi": [
    {
      "inputs": [
        {
          "internalType": "address",
          "name": "_rte",
          "type": "address"
        },
        {
          "internalType": "address",
          "name": "_busd",
          "type": "address"
        },
        {
          "internalType": "address",
          "name": "_dev",
          "type": "address"
        },
        {
          "internalType": "uint256",
          "name": "_startTime",
          "type": "uint256"
        }
      ],
      "stateMutability": "nonpayable",
      "type": "constructor"
    },
    {
      "anonymous": false,
      "inputs": [
        {
          "indexed": false,
          "internalType": "address",
          "name": "buyer",
          "type": "address"
        },
        {
          "indexed": false,
          "internalType": "uint256",
          "name": "amount",
          "type": "uint256"
        },
        {
          "indexed": false,
          "internalType": "uint256",
          "name": "timestamp",
          "type": "uint256"
        }
      ],
      "name": "Buy",
      "type": "event"
    },
    {
      "anonymous": false,
      "inputs": [
        {
          "indexed": false,
          "internalType": "address",
          "name": "caller",
          "type": "address"
        },
        {
          "indexed": false,
          "internalType": "uint256",
          "name": "amount",
          "type": "uint256"
        },
        {
          "indexed": false,
          "internalType": "uint256",
          "name": "timestamp",
          "type": "uint256"
        }
      ],
      "name": "Claim",
      "type": "event"
    },
    {
      "anonymous": false,
      "inputs": [
        {
          "indexed": true,
          "internalType": "address",
          "name": "previousOwner",
          "type": "address"
        },
        {
          "indexed": true,
          "internalType": "address",
          "name": "newOwner",
          "type": "address"
        }
      ],
      "name": "OwnershipTransferred",
      "type": "event"
    },
    {
      "inputs": [],
      "name": "VESTING_DURATION",
      "outputs": [
        {
          "internalType": "uint256",
          "name": "",
          "type": "uint256"
        }
      ],
      "stateMutability": "view",
      "type": "function"
    },
    {
      "inputs": [],
      "name": "VESTING_WINDOW",
      "outputs": [
        {
          "internalType": "uint256",
          "name": "",
          "type": "uint256"
        }
      ],
      "stateMutability": "view",
      "type": "function"
    },
    {
      "inputs": [],
      "name": "busd",
      "outputs": [
        {
          "internalType": "contract IERC20",
          "name": "",
          "type": "address"
        }
      ],
      "stateMutability": "view",
      "type": "function"
    },
    {
      "inputs": [
        {
          "internalType": "uint256",
          "name": "buyAmount",
          "type": "uint256"
        }
      ],
      "name": "buy",
      "outputs": [],
      "stateMutability": "nonpayable",
      "type": "function"
    },
    {
      "inputs": [],
      "name": "buyDuration",
      "outputs": [
        {
          "internalType": "uint256",
          "name": "",
          "type": "uint256"
        }
      ],
      "stateMutability": "view",
      "type": "function"
    },
    {
      "inputs": [],
      "name": "claim",
      "outputs": [],
      "stateMutability": "nonpayable",
      "type": "function"
    },
    {
      "inputs": [],
      "name": "cliffTime",
      "outputs": [
        {
          "internalType": "uint256",
          "name": "",
          "type": "uint256"
        }
      ],
      "stateMutability": "view",
      "type": "function"
    },
    {
      "inputs": [],
      "name": "dailyVestingPercent",
      "outputs": [
        {
          "internalType": "uint256",
          "name": "",
          "type": "uint256"
        }
      ],
      "stateMutability": "view",
      "type": "function"
    },
    {
      "inputs": [],
      "name": "dev",
      "outputs": [
        {
          "internalType": "address",
          "name": "",
          "type": "address"
        }
      ],
      "stateMutability": "view",
      "type": "function"
    },
    {
      "inputs": [],
      "name": "getVestingAmount",
      "outputs": [
        {
          "internalType": "uint256",
          "name": "",
          "type": "uint256"
        }
      ],
      "stateMutability": "view",
      "type": "function"
    },
    {
      "inputs": [],
      "name": "initVestingPercent",
      "outputs": [
        {
          "internalType": "uint256",
          "name": "",
          "type": "uint256"
        }
      ],
      "stateMutability": "view",
      "type": "function"
    },
    {
      "inputs": [],
      "name": "ipoPrice",
      "outputs": [
        {
          "internalType": "uint256",
          "name": "",
          "type": "uint256"
        }
      ],
      "stateMutability": "view",
      "type": "function"
    },
    {
      "inputs": [],
      "name": "maxBuyAmount",
      "outputs": [
        {
          "internalType": "uint256",
          "name": "",
          "type": "uint256"
        }
      ],
      "stateMutability": "view",
      "type": "function"
    },
    {
      "inputs": [],
      "name": "minBuyAmount",
      "outputs": [
        {
          "internalType": "uint256",
          "name": "",
          "type": "uint256"
        }
      ],
      "stateMutability": "view",
      "type": "function"
    },
    {
      "inputs": [],
      "name": "owner",
      "outputs": [
        {
          "internalType": "address",
          "name": "",
          "type": "address"
        }
      ],
      "stateMutability": "view",
      "type": "function"
    },
    {
      "inputs": [],
      "name": "renounceOwnership",
      "outputs": [],
      "stateMutability": "nonpayable",
      "type": "function"
    },
    {
      "inputs": [],
      "name": "revoke",
      "outputs": [],
      "stateMutability": "nonpayable",
      "type": "function"
    },
    {
      "inputs": [],
      "name": "rte",
      "outputs": [
        {
          "internalType": "contract IERC20",
          "name": "",
          "type": "address"
        }
      ],
      "stateMutability": "view",
      "type": "function"
    },
    {
      "inputs": [],
      "name": "startTime",
      "outputs": [
        {
          "internalType": "uint256",
          "name": "",
          "type": "uint256"
        }
      ],
      "stateMutability": "view",
      "type": "function"
    },
    {
      "inputs": [
        {
          "internalType": "address",
          "name": "newOwner",
          "type": "address"
        }
      ],
      "name": "transferOwnership",
      "outputs": [],
      "stateMutability": "nonpayable",
      "type": "function"
    },
    {
      "inputs": [
        {
          "internalType": "address",
          "name": "",
          "type": "address"
        }
      ],
      "name": "userByAddress",
      "outputs": [
        {
          "internalType": "uint256",
          "name": "buyAmount",
          "type": "uint256"
        },
        {
          "internalType": "uint256",
          "name": "initVestingAmount",
          "type": "uint256"
        },
        {
          "internalType": "uint256",
          "name": "dailyVestingAmount",
          "type": "uint256"
        },
        {
          "internalType": "uint256",
          "name": "dailyVestingDebt",
          "type": "uint256"
        }
      ],
      "stateMutability": "view",
      "type": "function"
    }
  ],
  "bytecode": "0x60c06040526202a30060055562015180600655600f60075566110d9316ec00006008556201518060809081525060b760a0908152506601f0fddc23ba0e6009556830ca024f987b900000600a55681043561a8829300000600b553480156200006657600080fd5b5060405162001f6c38038062001f6c83398181016040528101906200008c91906200027a565b620000ac620000a06200018060201b60201c565b6200018860201b60201c565b83600160006101000a81548173ffffffffffffffffffffffffffffffffffffffff021916908373ffffffffffffffffffffffffffffffffffffffff16021790555082600260006101000a81548173ffffffffffffffffffffffffffffffffffffffff021916908373ffffffffffffffffffffffffffffffffffffffff16021790555081600360006101000a81548173ffffffffffffffffffffffffffffffffffffffff021916908373ffffffffffffffffffffffffffffffffffffffff160217905550806004819055505050505062000358565b600033905090565b60008060009054906101000a900473ffffffffffffffffffffffffffffffffffffffff169050816000806101000a81548173ffffffffffffffffffffffffffffffffffffffff021916908373ffffffffffffffffffffffffffffffffffffffff1602179055508173ffffffffffffffffffffffffffffffffffffffff168173ffffffffffffffffffffffffffffffffffffffff167f8be0079c531659141344cd1fd0a4f28419497f9722a3daafe3b4186f6b6457e060405160405180910390a35050565b6000815190506200025d8162000324565b92915050565b60008151905062000274816200033e565b92915050565b600080600080608085870312156200029157600080fd5b6000620002a1878288016200024c565b9450506020620002b4878288016200024c565b9350506040620002c7878288016200024c565b9250506060620002da8782880162000263565b91505092959194509250565b6000620002f382620002fa565b9050919050565b600073ffffffffffffffffffffffffffffffffffffffff82169050919050565b6000819050919050565b6200032f81620002e6565b81146200033b57600080fd5b50565b62000349816200031a565b81146200035557600080fd5b50565b60805160a051611bd26200039a6000396000818161048c015281816104b9015281816104dd015261058d01526000818161044601526107db0152611bd26000f3fe608060405234801561001057600080fd5b50600436106101375760003560e01c806388e765ff116100b8578063b6549f751161007c578063b6549f75146102eb578063d00d1012146102f5578063d96a094a14610313578063e9b987461461032f578063f2fde38b1461034d578063f66bf2291461036957610137565b806388e765ff1461024057806389a1420f1461025e5780638da5cb5b1461027c57806391cca3db1461029a578063989e5ea9146102b857610137565b80634cfc4d30116100ff5780634cfc4d30146101d25780634e71d92d146101f05780635388d55b146101fa578063715018a61461021857806378e979251461022257610137565b806308e695ad1461013c5780630f1a64441461015a578063247d867f146101785780633ca5b234146101965780633f57faa9146101b4575b600080fd5b610144610387565b60405161015191906118a2565b60405180910390f35b61016261038d565b60405161016f91906118a2565b60405180910390f35b610180610393565b60405161018d91906118a2565b60405180910390f35b61019e610399565b6040516101ab9190611745565b60405180910390f35b6101bc6103bf565b6040516101c991906118a2565b60405180910390f35b6101da61058b565b6040516101e791906118a2565b60405180910390f35b6101f86105af565b005b61020261071f565b60405161020f9190611745565b60405180910390f35b610220610745565b005b61022a6107cd565b60405161023791906118a2565b60405180910390f35b6102486107d3565b60405161025591906118a2565b60405180910390f35b6102666107d9565b60405161027391906118a2565b60405180910390f35b6102846107fd565b6040516102919190611693565b60405180910390f35b6102a2610826565b6040516102af9190611693565b60405180910390f35b6102d260048036038101906102cd919061128f565b61084c565b6040516102e294939291906118bd565b60405180910390f35b6102f361087c565b005b6102fd6109f7565b60405161030a91906118a2565b60405180910390f35b61032d600480360381019061032891906112e1565b6109fd565b005b610337610cad565b60405161034491906118a2565b60405180910390f35b6103676004803603810190610362919061128f565b610cb3565b005b610371610dab565b60405161037e91906118a2565b60405180910390f35b60085481565b60065481565b60075481565b600260009054906101000a900473ffffffffffffffffffffffffffffffffffffffff1681565b600080600c60003373ffffffffffffffffffffffffffffffffffffffff1673ffffffffffffffffffffffffffffffffffffffff1681526020019081526020016000209050600080826001015411801561041a57506004544210155b1561042757816001015490505b60006006546004546104399190611934565b42106105775760006104887f000000000000000000000000000000000000000000000000000000000000000061047a60045442610db190919063ffffffff16565b610dc790919063ffffffff16565b90507f000000000000000000000000000000000000000000000000000000000000000081116104b757806104d9565b7f00000000000000000000000000000000000000000000000000000000000000005b90507f000000000000000000000000000000000000000000000000000000000000000081141561051e57836003015484600201546105179190611a15565b9150610575565b83600301546105688261055a67016345785d8a000061054c6009548a60020154610ddd90919063ffffffff16565b610dc790919063ffffffff16565b610ddd90919063ffffffff16565b6105729190611a15565b91505b505b80826105839190611934565b935050505090565b7f000000000000000000000000000000000000000000000000000000000000000081565b60006105b96103bf565b9050600081116105fe576040517f08c379a00000000000000000000000000000000000000000000000000000000081526004016105f590611802565b60405180910390fd5b61064b3382600160009054906101000a900473ffffffffffffffffffffffffffffffffffffffff1673ffffffffffffffffffffffffffffffffffffffff16610df39092919063ffffffff16565b6000600c60003373ffffffffffffffffffffffffffffffffffffffff1673ffffffffffffffffffffffffffffffffffffffff1681526020019081526020016000209050818160030160008282546106a29190611934565b925050819055506000816001015411156106e05780600101548160030160008282546106ce9190611a15565b92505081905550600081600101819055505b7f34fcbac0073d7c3d388e51312faf357774904998eeb8fca628b9e6f65ee1cbf73383426040516107139392919061170e565b60405180910390a15050565b600160009054906101000a900473ffffffffffffffffffffffffffffffffffffffff1681565b61074d610e79565b73ffffffffffffffffffffffffffffffffffffffff1661076b6107fd565b73ffffffffffffffffffffffffffffffffffffffff16146107c1576040517f08c379a00000000000000000000000000000000000000000000000000000000081526004016107b890611822565b60405180910390fd5b6107cb6000610e81565b565b60045481565b600a5481565b7f000000000000000000000000000000000000000000000000000000000000000081565b60008060009054906101000a900473ffffffffffffffffffffffffffffffffffffffff16905090565b600360009054906101000a900473ffffffffffffffffffffffffffffffffffffffff1681565b600c6020528060005260406000206000915090508060000154908060010154908060020154908060030154905084565b610884610e79565b73ffffffffffffffffffffffffffffffffffffffff166108a26107fd565b73ffffffffffffffffffffffffffffffffffffffff16146108f8576040517f08c379a00000000000000000000000000000000000000000000000000000000081526004016108ef90611822565b60405180910390fd5b6000600160009054906101000a900473ffffffffffffffffffffffffffffffffffffffff1673ffffffffffffffffffffffffffffffffffffffff166370a08231306040518263ffffffff1660e01b81526004016109559190611693565b60206040518083038186803b15801561096d57600080fd5b505afa158015610981573d6000803e3d6000fd5b505050506040513d601f19601f820116820180604052508101906109a5919061130a565b90506109f43382600160009054906101000a900473ffffffffffffffffffffffffffffffffffffffff1673ffffffffffffffffffffffffffffffffffffffff16610df39092919063ffffffff16565b50565b60095481565b600554600454610a0d9190611934565b421115610a4f576040517f08c379a0000000000000000000000000000000000000000000000000000000008152600401610a46906117c2565b60405180910390fd5b600b548110158015610a635750600a548111155b610aa2576040517f08c379a0000000000000000000000000000000000000000000000000000000008152600401610a9990611842565b60405180910390fd5b6000600c60003373ffffffffffffffffffffffffffffffffffffffff1673ffffffffffffffffffffffffffffffffffffffff1681526020019081526020016000209050600a54828260000154610af89190611934565b1115610b39576040517f08c379a0000000000000000000000000000000000000000000000000000000008152600401610b30906117a2565b60405180910390fd5b610baa33600360009054906101000a900473ffffffffffffffffffffffffffffffffffffffff1684600260009054906101000a900473ffffffffffffffffffffffffffffffffffffffff1673ffffffffffffffffffffffffffffffffffffffff16610f45909392919063ffffffff16565b81816000016000828254610bbe9190611934565b925050819055506000610bf6670de0b6b3a7640000610be860085486610dc790919063ffffffff16565b610ddd90919063ffffffff16565b90506000610c226064610c1460075485610ddd90919063ffffffff16565b610dc790919063ffffffff16565b905080836001016000828254610c389190611934565b92505081905550610c528183610db190919063ffffffff16565b836002016000828254610c659190611934565b925050819055507f1cbc5ab135991bd2b6a4b034a04aa2aa086dac1371cb9b16b8b5e2ed6b036bed338542604051610c9f9392919061170e565b60405180910390a150505050565b60055481565b610cbb610e79565b73ffffffffffffffffffffffffffffffffffffffff16610cd96107fd565b73ffffffffffffffffffffffffffffffffffffffff1614610d2f576040517f08c379a0000000000000000000000000000000000000000000000000000000008152600401610d2690611822565b60405180910390fd5b600073ffffffffffffffffffffffffffffffffffffffff168173ffffffffffffffffffffffffffffffffffffffff161415610d9f576040517f08c379a0000000000000000000000000000000000000000000000000000000008152600401610d9690611782565b60405180910390fd5b610da881610e81565b50565b600b5481565b60008183610dbf9190611a15565b905092915050565b60008183610dd5919061198a565b905092915050565b60008183610deb91906119bb565b905092915050565b610e748363a9059cbb60e01b8484604051602401610e129291906116e5565b604051602081830303815290604052907bffffffffffffffffffffffffffffffffffffffffffffffffffffffff19166020820180517bffffffffffffffffffffffffffffffffffffffffffffffffffffffff8381831617835250505050610fce565b505050565b600033905090565b60008060009054906101000a900473ffffffffffffffffffffffffffffffffffffffff169050816000806101000a81548173ffffffffffffffffffffffffffffffffffffffff021916908373ffffffffffffffffffffffffffffffffffffffff1602179055508173ffffffffffffffffffffffffffffffffffffffff168173ffffffffffffffffffffffffffffffffffffffff167f8be0079c531659141344cd1fd0a4f28419497f9722a3daafe3b4186f6b6457e060405160405180910390a35050565b610fc8846323b872dd60e01b858585604051602401610f66939291906116ae565b604051602081830303815290604052907bffffffffffffffffffffffffffffffffffffffffffffffffffffffff19166020820180517bffffffffffffffffffffffffffffffffffffffffffffffffffffffff8381831617835250505050610fce565b50505050565b6000611030826040518060400160405280602081526020017f5361666545524332303a206c6f772d6c6576656c2063616c6c206661696c65648152508573ffffffffffffffffffffffffffffffffffffffff166110959092919063ffffffff16565b9050600081511115611090578080602001905181019061105091906112b8565b61108f576040517f08c379a000000000000000000000000000000000000000000000000000000000815260040161108690611882565b60405180910390fd5b5b505050565b60606110a484846000856110ad565b90509392505050565b6060824710156110f2576040517f08c379a00000000000000000000000000000000000000000000000000000000081526004016110e9906117e2565b60405180910390fd5b6110fb856111c1565b61113a576040517f08c379a000000000000000000000000000000000000000000000000000000000815260040161113190611862565b60405180910390fd5b6000808673ffffffffffffffffffffffffffffffffffffffff168587604051611163919061167c565b60006040518083038185875af1925050503d80600081146111a0576040519150601f19603f3d011682016040523d82523d6000602084013e6111a5565b606091505b50915091506111b58282866111d4565b92505050949350505050565b600080823b905060008111915050919050565b606083156111e457829050611234565b6000835111156111f75782518084602001fd5b816040517f08c379a000000000000000000000000000000000000000000000000000000000815260040161122b9190611760565b60405180910390fd5b9392505050565b60008135905061124a81611b57565b92915050565b60008151905061125f81611b6e565b92915050565b60008135905061127481611b85565b92915050565b60008151905061128981611b85565b92915050565b6000602082840312156112a157600080fd5b60006112af8482850161123b565b91505092915050565b6000602082840312156112ca57600080fd5b60006112d884828501611250565b91505092915050565b6000602082840312156112f357600080fd5b600061130184828501611265565b91505092915050565b60006020828403121561131c57600080fd5b600061132a8482850161127a565b91505092915050565b61133c81611a49565b82525050565b600061134d82611902565b6113578185611918565b9350611367818560208601611ab5565b80840191505092915050565b61137c81611a91565b82525050565b600061138d8261190d565b6113978185611923565b93506113a7818560208601611ab5565b6113b081611b46565b840191505092915050565b60006113c8602683611923565b91507f4f776e61626c653a206e6577206f776e657220697320746865207a65726f206160008301527f64647265737300000000000000000000000000000000000000000000000000006020830152604082019050919050565b600061142e601783611923565b91507f6275793a206d617820616d6f756e7420657863656564730000000000000000006000830152602082019050919050565b600061146e600b83611923565b91507f6275793a20636c6f7365640000000000000000000000000000000000000000006000830152602082019050919050565b60006114ae602683611923565b91507f416464726573733a20696e73756666696369656e742062616c616e636520666f60008301527f722063616c6c00000000000000000000000000000000000000000000000000006020830152604082019050919050565b6000611514601b83611923565b91507f636c61696d3a20696e76616c696420636c61696d20616d6f756e7400000000006000830152602082019050919050565b6000611554602083611923565b91507f4f776e61626c653a2063616c6c6572206973206e6f7420746865206f776e65726000830152602082019050919050565b6000611594601383611923565b91507f6275793a20696e76616c696420616d6f756e74000000000000000000000000006000830152602082019050919050565b60006115d4601d83611923565b91507f416464726573733a2063616c6c20746f206e6f6e2d636f6e74726163740000006000830152602082019050919050565b6000611614602a83611923565b91507f5361666545524332303a204552433230206f7065726174696f6e20646964206e60008301527f6f742073756363656564000000000000000000000000000000000000000000006020830152604082019050919050565b61167681611a87565b82525050565b60006116888284611342565b915081905092915050565b60006020820190506116a86000830184611333565b92915050565b60006060820190506116c36000830186611333565b6116d06020830185611333565b6116dd604083018461166d565b949350505050565b60006040820190506116fa6000830185611333565b611707602083018461166d565b9392505050565b60006060820190506117236000830186611333565b611730602083018561166d565b61173d604083018461166d565b949350505050565b600060208201905061175a6000830184611373565b92915050565b6000602082019050818103600083015261177a8184611382565b905092915050565b6000602082019050818103600083015261179b816113bb565b9050919050565b600060208201905081810360008301526117bb81611421565b9050919050565b600060208201905081810360008301526117db81611461565b9050919050565b600060208201905081810360008301526117fb816114a1565b9050919050565b6000602082019050818103600083015261181b81611507565b9050919050565b6000602082019050818103600083015261183b81611547565b9050919050565b6000602082019050818103600083015261185b81611587565b9050919050565b6000602082019050818103600083015261187b816115c7565b9050919050565b6000602082019050818103600083015261189b81611607565b9050919050565b60006020820190506118b7600083018461166d565b92915050565b60006080820190506118d2600083018761166d565b6118df602083018661166d565b6118ec604083018561166d565b6118f9606083018461166d565b95945050505050565b600081519050919050565b600081519050919050565b600081905092915050565b600082825260208201905092915050565b600061193f82611a87565b915061194a83611a87565b9250827fffffffffffffffffffffffffffffffffffffffffffffffffffffffffffffffff0382111561197f5761197e611ae8565b5b828201905092915050565b600061199582611a87565b91506119a083611a87565b9250826119b0576119af611b17565b5b828204905092915050565b60006119c682611a87565b91506119d183611a87565b9250817fffffffffffffffffffffffffffffffffffffffffffffffffffffffffffffffff0483118215151615611a0a57611a09611ae8565b5b828202905092915050565b6000611a2082611a87565b9150611a2b83611a87565b925082821015611a3e57611a3d611ae8565b5b828203905092915050565b6000611a5482611a67565b9050919050565b60008115159050919050565b600073ffffffffffffffffffffffffffffffffffffffff82169050919050565b6000819050919050565b6000611a9c82611aa3565b9050919050565b6000611aae82611a67565b9050919050565b60005b83811015611ad3578082015181840152602081019050611ab8565b83811115611ae2576000848401525b50505050565b7f4e487b7100000000000000000000000000000000000000000000000000000000600052601160045260246000fd5b7f4e487b7100000000000000000000000000000000000000000000000000000000600052601260045260246000fd5b6000601f19601f8301169050919050565b611b6081611a49565b8114611b6b57600080fd5b50565b611b7781611a5b565b8114611b8257600080fd5b50565b611b8e81611a87565b8114611b9957600080fd5b5056fea2646970667358221220ba0c189be116cdee585f8bc7321a4b953a78d661383ac309094a0e2773c20a4064736f6c63430008000033",
  "linkReferences": {},
  "deployedLinkReferences": {}
}