{
  "_format": "hh-sol-artifact-1",
  "contractName": "PrivateVesting",
  "sourceName": "contracts/PrivateVesting.sol",
  "abi": [
    {
      "inputs": [
        {
          "internalType": "address",
          "name": "_rte",
          "type": "address"
        },
        {
          "internalType": "address",
          "name": "_busd",
          "type": "address"
        },
        {
          "internalType": "address",
          "name": "_dev",
          "type": "address"
        },
        {
          "internalType": "uint256",
          "name": "_startBuyTime",
          "type": "uint256"
        },
        {
          "internalType": "uint256",
          "name": "_endBuyTime",
          "type": "uint256"
        },
        {
          "internalType": "uint256",
          "name": "_claimTime",
          "type": "uint256"
        },
        {
          "internalType": "uint256",
          "name": "_cliffTime",
          "type": "uint256"
        }
      ],
      "stateMutability": "nonpayable",
      "type": "constructor"
    },
    {
      "anonymous": false,
      "inputs": [
        {
          "indexed": false,
          "internalType": "address",
          "name": "buyer",
          "type": "address"
        },
        {
          "indexed": false,
          "internalType": "uint256",
          "name": "amount",
          "type": "uint256"
        },
        {
          "indexed": false,
          "internalType": "uint256",
          "name": "timestamp",
          "type": "uint256"
        }
      ],
      "name": "Buy",
      "type": "event"
    },
    {
      "anonymous": false,
      "inputs": [
        {
          "indexed": false,
          "internalType": "address",
          "name": "caller",
          "type": "address"
        },
        {
          "indexed": false,
          "internalType": "uint256",
          "name": "amount",
          "type": "uint256"
        },
        {
          "indexed": false,
          "internalType": "uint256",
          "name": "timestamp",
          "type": "uint256"
        }
      ],
      "name": "Claim",
      "type": "event"
    },
    {
      "anonymous": false,
      "inputs": [
        {
          "indexed": true,
          "internalType": "address",
          "name": "previousOwner",
          "type": "address"
        },
        {
          "indexed": true,
          "internalType": "address",
          "name": "newOwner",
          "type": "address"
        }
      ],
      "name": "OwnershipTransferred",
      "type": "event"
    },
    {
      "inputs": [],
      "name": "VESTING_DURATION",
      "outputs": [
        {
          "internalType": "uint256",
          "name": "",
          "type": "uint256"
        }
      ],
      "stateMutability": "view",
      "type": "function"
    },
    {
      "inputs": [],
      "name": "VESTING_WINDOW",
      "outputs": [
        {
          "internalType": "uint256",
          "name": "",
          "type": "uint256"
        }
      ],
      "stateMutability": "view",
      "type": "function"
    },
    {
      "inputs": [],
      "name": "busd",
      "outputs": [
        {
          "internalType": "contract IERC20",
          "name": "",
          "type": "address"
        }
      ],
      "stateMutability": "view",
      "type": "function"
    },
    {
      "inputs": [
        {
          "internalType": "uint256",
          "name": "buyAmount",
          "type": "uint256"
        }
      ],
      "name": "buy",
      "outputs": [],
      "stateMutability": "nonpayable",
      "type": "function"
    },
    {
      "inputs": [],
      "name": "claim",
      "outputs": [],
      "stateMutability": "nonpayable",
      "type": "function"
    },
    {
      "inputs": [],
      "name": "claimTime",
      "outputs": [
        {
          "internalType": "uint256",
          "name": "",
          "type": "uint256"
        }
      ],
      "stateMutability": "view",
      "type": "function"
    },
    {
      "inputs": [],
      "name": "cliffTime",
      "outputs": [
        {
          "internalType": "uint256",
          "name": "",
          "type": "uint256"
        }
      ],
      "stateMutability": "view",
      "type": "function"
    },
    {
      "inputs": [],
      "name": "currentSale",
      "outputs": [
        {
          "internalType": "uint256",
          "name": "",
          "type": "uint256"
        }
      ],
      "stateMutability": "view",
      "type": "function"
    },
    {
      "inputs": [],
      "name": "dailyVestingPercent",
      "outputs": [
        {
          "internalType": "uint256",
          "name": "",
          "type": "uint256"
        }
      ],
      "stateMutability": "view",
      "type": "function"
    },
    {
      "inputs": [],
      "name": "dev",
      "outputs": [
        {
          "internalType": "address",
          "name": "",
          "type": "address"
        }
      ],
      "stateMutability": "view",
      "type": "function"
    },
    {
      "inputs": [],
      "name": "endBuyTime",
      "outputs": [
        {
          "internalType": "uint256",
          "name": "",
          "type": "uint256"
        }
      ],
      "stateMutability": "view",
      "type": "function"
    },
    {
      "inputs": [],
      "name": "getVestingAmount",
      "outputs": [
        {
          "internalType": "uint256",
          "name": "",
          "type": "uint256"
        }
      ],
      "stateMutability": "view",
      "type": "function"
    },
    {
      "inputs": [],
      "name": "initVestingPercent",
      "outputs": [
        {
          "internalType": "uint256",
          "name": "",
          "type": "uint256"
        }
      ],
      "stateMutability": "view",
      "type": "function"
    },
    {
      "inputs": [],
      "name": "ipoPrice",
      "outputs": [
        {
          "internalType": "uint256",
          "name": "",
          "type": "uint256"
        }
      ],
      "stateMutability": "view",
      "type": "function"
    },
    {
      "inputs": [],
      "name": "maxBuyAmount",
      "outputs": [
        {
          "internalType": "uint256",
          "name": "",
          "type": "uint256"
        }
      ],
      "stateMutability": "view",
      "type": "function"
    },
    {
      "inputs": [],
      "name": "minBuyAmount",
      "outputs": [
        {
          "internalType": "uint256",
          "name": "",
          "type": "uint256"
        }
      ],
      "stateMutability": "view",
      "type": "function"
    },
    {
      "inputs": [],
      "name": "owner",
      "outputs": [
        {
          "internalType": "address",
          "name": "",
          "type": "address"
        }
      ],
      "stateMutability": "view",
      "type": "function"
    },
    {
      "inputs": [],
      "name": "progress",
      "outputs": [
        {
          "internalType": "uint256",
          "name": "",
          "type": "uint256"
        }
      ],
      "stateMutability": "view",
      "type": "function"
    },
    {
      "inputs": [],
      "name": "renounceOwnership",
      "outputs": [],
      "stateMutability": "nonpayable",
      "type": "function"
    },
    {
      "inputs": [],
      "name": "revoke",
      "outputs": [],
      "stateMutability": "nonpayable",
      "type": "function"
    },
    {
      "inputs": [],
      "name": "rte",
      "outputs": [
        {
          "internalType": "contract IERC20",
          "name": "",
          "type": "address"
        }
      ],
      "stateMutability": "view",
      "type": "function"
    },
    {
      "inputs": [],
      "name": "startBuyTime",
      "outputs": [
        {
          "internalType": "uint256",
          "name": "",
          "type": "uint256"
        }
      ],
      "stateMutability": "view",
      "type": "function"
    },
    {
      "inputs": [],
      "name": "totalSale",
      "outputs": [
        {
          "internalType": "uint256",
          "name": "",
          "type": "uint256"
        }
      ],
      "stateMutability": "view",
      "type": "function"
    },
    {
      "inputs": [
        {
          "internalType": "address",
          "name": "newOwner",
          "type": "address"
        }
      ],
      "name": "transferOwnership",
      "outputs": [],
      "stateMutability": "nonpayable",
      "type": "function"
    },
    {
      "inputs": [
        {
          "internalType": "address",
          "name": "",
          "type": "address"
        }
      ],
      "name": "userByAddress",
      "outputs": [
        {
          "internalType": "uint256",
          "name": "buyAmount",
          "type": "uint256"
        },
        {
          "internalType": "uint256",
          "name": "initVestingAmount",
          "type": "uint256"
        },
        {
          "internalType": "uint256",
          "name": "dailyVestingAmount",
          "type": "uint256"
        },
        {
          "internalType": "uint256",
          "name": "dailyVestingDebt",
          "type": "uint256"
        }
      ],
      "stateMutability": "view",
      "type": "function"
    }
  ],
  "bytecode": "0x60c0604052600f600855661c6bf5263400006009556201518060809081525060b760a0908152506601f0fddc23ba0e600a5569261dd1ce2f2088800000600b556000600c556830ca024f987b900000600d55681043561a8829300000600e553480156200006b57600080fd5b50604051620022f0380380620022f08339818101604052810190620000919190620002e1565b620000b1620000a5620001e760201b60201c565b620001ef60201b60201c565b86600160006101000a81548173ffffffffffffffffffffffffffffffffffffffff021916908373ffffffffffffffffffffffffffffffffffffffff16021790555085600260006101000a81548173ffffffffffffffffffffffffffffffffffffffff021916908373ffffffffffffffffffffffffffffffffffffffff16021790555084600360006101000a81548173ffffffffffffffffffffffffffffffffffffffff021916908373ffffffffffffffffffffffffffffffffffffffff160217905550836004819055508260058190555081600681905550806007819055506007546006541115620001da576040517f08c379a0000000000000000000000000000000000000000000000000000000008152600401620001d190620003d0565b60405180910390fd5b5050505050505062000475565b600033905090565b60008060009054906101000a900473ffffffffffffffffffffffffffffffffffffffff169050816000806101000a81548173ffffffffffffffffffffffffffffffffffffffff021916908373ffffffffffffffffffffffffffffffffffffffff1602179055508173ffffffffffffffffffffffffffffffffffffffff168173ffffffffffffffffffffffffffffffffffffffff167f8be0079c531659141344cd1fd0a4f28419497f9722a3daafe3b4186f6b6457e060405160405180910390a35050565b600081519050620002c48162000441565b92915050565b600081519050620002db816200045b565b92915050565b600080600080600080600060e0888a031215620002fd57600080fd5b60006200030d8a828b01620002b3565b9750506020620003208a828b01620002b3565b9650506040620003338a828b01620002b3565b9550506060620003468a828b01620002ca565b9450506080620003598a828b01620002ca565b93505060a06200036c8a828b01620002ca565b92505060c06200037f8a828b01620002ca565b91505092959891949750929550565b60006200039d600a83620003f2565b91507f696e6974206572726f72000000000000000000000000000000000000000000006000830152602082019050919050565b60006020820190508181036000830152620003eb816200038e565b9050919050565b600082825260208201905092915050565b6000620004108262000417565b9050919050565b600073ffffffffffffffffffffffffffffffffffffffff82169050919050565b6000819050919050565b6200044c8162000403565b81146200045857600080fd5b50565b620004668162000437565b81146200047257600080fd5b50565b60805160a051611e39620004b760003960008181610539015281816105660152818161058a015261063a0152600081816104f301526108cd0152611e396000f3fe608060405234801561001057600080fd5b50600436106101735760003560e01c806389a1420f116100de578063b6549f7511610097578063ea4ce23911610071578063ea4ce239146103c5578063f01d226f146103e3578063f2fde38b14610401578063f66bf2291461041d57610173565b8063b6549f7514610381578063d00d10121461038b578063d96a094a146103a957610173565b806389a1420f146102b85780638da5cb5b146102d657806391cca3db146102f4578063989e5ea914610312578063a05d03fd14610345578063aa6826821461036357610173565b80634cfc4d30116101305780634cfc4d301461022c5780634e71d92d1461024a5780635388d55b14610254578063577bd33614610272578063715018a61461029057806388e765ff1461029a57610173565b806308e695ad146101785780630f1a644414610196578063247d867f146101b457806327b3bf11146101d25780633ca5b234146101f05780633f57faa91461020e575b600080fd5b61018061043b565b60405161018d9190611b09565b60405180910390f35b61019e610441565b6040516101ab9190611b09565b60405180910390f35b6101bc610447565b6040516101c99190611b09565b60405180910390f35b6101da61044d565b6040516101e79190611b09565b60405180910390f35b6101f8610453565b604051610205919061196c565b60405180910390f35b610216610479565b6040516102239190611b09565b60405180910390f35b610234610638565b6040516102419190611b09565b60405180910390f35b61025261065c565b005b61025c6107cc565b604051610269919061196c565b60405180910390f35b61027a6107f2565b6040516102879190611b09565b60405180910390f35b61029861083d565b005b6102a26108c5565b6040516102af9190611b09565b60405180910390f35b6102c06108cb565b6040516102cd9190611b09565b60405180910390f35b6102de6108ef565b6040516102eb91906118ba565b60405180910390f35b6102fc610918565b60405161030991906118ba565b60405180910390f35b61032c60048036038101906103279190611436565b61093e565b60405161033c9493929190611b24565b60405180910390f35b61034d61096e565b60405161035a9190611b09565b60405180910390f35b61036b610974565b6040516103789190611b09565b60405180910390f35b61038961097a565b005b610393610af5565b6040516103a09190611b09565b60405180910390f35b6103c360048036038101906103be9190611488565b610afb565b005b6103cd610e4e565b6040516103da9190611b09565b60405180910390f35b6103eb610e54565b6040516103f89190611b09565b60405180910390f35b61041b60048036038101906104169190611436565b610e5a565b005b610425610f52565b6040516104329190611b09565b60405180910390f35b60095481565b60075481565b60085481565b60065481565b600260009054906101000a900473ffffffffffffffffffffffffffffffffffffffff1681565b600080600f60003373ffffffffffffffffffffffffffffffffffffffff1673ffffffffffffffffffffffffffffffffffffffff168152602001908152602001600020905060008082600101541180156104d457506006544210155b156104e157816001015490505b600060075442106106245760006105357f000000000000000000000000000000000000000000000000000000000000000061052760045442610f5890919063ffffffff16565b610f6e90919063ffffffff16565b90507f000000000000000000000000000000000000000000000000000000000000000081116105645780610586565b7f00000000000000000000000000000000000000000000000000000000000000005b90507f00000000000000000000000000000000000000000000000000000000000000008114156105cb57836003015484600201546105c49190611c7c565b9150610622565b83600301546106158261060767016345785d8a00006105f9600a548a60020154610f8490919063ffffffff16565b610f6e90919063ffffffff16565b610f8490919063ffffffff16565b61061f9190611c7c565b91505b505b80826106309190611b9b565b935050505090565b7f000000000000000000000000000000000000000000000000000000000000000081565b6000610666610479565b9050600081116106ab576040517f08c379a00000000000000000000000000000000000000000000000000000000081526004016106a290611a49565b60405180910390fd5b6106f83382600160009054906101000a900473ffffffffffffffffffffffffffffffffffffffff1673ffffffffffffffffffffffffffffffffffffffff16610f9a9092919063ffffffff16565b6000600f60003373ffffffffffffffffffffffffffffffffffffffff1673ffffffffffffffffffffffffffffffffffffffff16815260200190815260200160002090508181600301600082825461074f9190611b9b565b9250508190555060008160010154111561078d57806001015481600301600082825461077b9190611c7c565b92505081905550600081600101819055505b7f34fcbac0073d7c3d388e51312faf357774904998eeb8fca628b9e6f65ee1cbf73383426040516107c093929190611935565b60405180910390a15050565b600160009054906101000a900473ffffffffffffffffffffffffffffffffffffffff1681565b6000610838606461082a600b5461081c670de0b6b3a7640000600c54610f8490919063ffffffff16565b610f6e90919063ffffffff16565b610f8490919063ffffffff16565b905090565b610845611020565b73ffffffffffffffffffffffffffffffffffffffff166108636108ef565b73ffffffffffffffffffffffffffffffffffffffff16146108b9576040517f08c379a00000000000000000000000000000000000000000000000000000000081526004016108b090611a89565b60405180910390fd5b6108c36000611028565b565b600d5481565b7f000000000000000000000000000000000000000000000000000000000000000081565b60008060009054906101000a900473ffffffffffffffffffffffffffffffffffffffff16905090565b600360009054906101000a900473ffffffffffffffffffffffffffffffffffffffff1681565b600f6020528060005260406000206000915090508060000154908060010154908060020154908060030154905084565b600c5481565b60045481565b610982611020565b73ffffffffffffffffffffffffffffffffffffffff166109a06108ef565b73ffffffffffffffffffffffffffffffffffffffff16146109f6576040517f08c379a00000000000000000000000000000000000000000000000000000000081526004016109ed90611a89565b60405180910390fd5b6000600160009054906101000a900473ffffffffffffffffffffffffffffffffffffffff1673ffffffffffffffffffffffffffffffffffffffff166370a08231306040518263ffffffff1660e01b8152600401610a5391906118ba565b60206040518083038186803b158015610a6b57600080fd5b505afa158015610a7f573d6000803e3d6000fd5b505050506040513d601f19601f82011682018060405250810190610aa391906114b1565b9050610af23382600160009054906101000a900473ffffffffffffffffffffffffffffffffffffffff1673ffffffffffffffffffffffffffffffffffffffff16610f9a9092919063ffffffff16565b50565b600a5481565b600454421015610b40576040517f08c379a0000000000000000000000000000000000000000000000000000000008152600401610b3790611a09565b60405180910390fd5b600554421115610b85576040517f08c379a0000000000000000000000000000000000000000000000000000000008152600401610b7c90611a29565b60405180910390fd5b600e548110158015610b995750600d548111155b610bd8576040517f08c379a0000000000000000000000000000000000000000000000000000000008152600401610bcf90611aa9565b60405180910390fd5b600b5481600c54610be99190611b9b565b1115610c2a576040517f08c379a0000000000000000000000000000000000000000000000000000000008152600401610c21906119a9565b60405180910390fd5b6000600f60003373ffffffffffffffffffffffffffffffffffffffff1673ffffffffffffffffffffffffffffffffffffffff1681526020019081526020016000209050600d54828260000154610c809190611b9b565b1115610cc1576040517f08c379a0000000000000000000000000000000000000000000000000000000008152600401610cb8906119e9565b60405180910390fd5b610d3233600360009054906101000a900473ffffffffffffffffffffffffffffffffffffffff1684600260009054906101000a900473ffffffffffffffffffffffffffffffffffffffff1673ffffffffffffffffffffffffffffffffffffffff166110ec909392919063ffffffff16565b81600c6000828254610d449190611b9b565b9250508190555081816000016000828254610d5f9190611b9b565b925050819055506000610d97670de0b6b3a7640000610d8960095486610f6e90919063ffffffff16565b610f8490919063ffffffff16565b90506000610dc36064610db560085485610f8490919063ffffffff16565b610f6e90919063ffffffff16565b905080836001016000828254610dd99190611b9b565b92505081905550610df38183610f5890919063ffffffff16565b836002016000828254610e069190611b9b565b925050819055507f1cbc5ab135991bd2b6a4b034a04aa2aa086dac1371cb9b16b8b5e2ed6b036bed338542604051610e4093929190611935565b60405180910390a150505050565b600b5481565b60055481565b610e62611020565b73ffffffffffffffffffffffffffffffffffffffff16610e806108ef565b73ffffffffffffffffffffffffffffffffffffffff1614610ed6576040517f08c379a0000000000000000000000000000000000000000000000000000000008152600401610ecd90611a89565b60405180910390fd5b600073ffffffffffffffffffffffffffffffffffffffff168173ffffffffffffffffffffffffffffffffffffffff161415610f46576040517f08c379a0000000000000000000000000000000000000000000000000000000008152600401610f3d906119c9565b60405180910390fd5b610f4f81611028565b50565b600e5481565b60008183610f669190611c7c565b905092915050565b60008183610f7c9190611bf1565b905092915050565b60008183610f929190611c22565b905092915050565b61101b8363a9059cbb60e01b8484604051602401610fb992919061190c565b604051602081830303815290604052907bffffffffffffffffffffffffffffffffffffffffffffffffffffffff19166020820180517bffffffffffffffffffffffffffffffffffffffffffffffffffffffff8381831617835250505050611175565b505050565b600033905090565b60008060009054906101000a900473ffffffffffffffffffffffffffffffffffffffff169050816000806101000a81548173ffffffffffffffffffffffffffffffffffffffff021916908373ffffffffffffffffffffffffffffffffffffffff1602179055508173ffffffffffffffffffffffffffffffffffffffff168173ffffffffffffffffffffffffffffffffffffffff167f8be0079c531659141344cd1fd0a4f28419497f9722a3daafe3b4186f6b6457e060405160405180910390a35050565b61116f846323b872dd60e01b85858560405160240161110d939291906118d5565b604051602081830303815290604052907bffffffffffffffffffffffffffffffffffffffffffffffffffffffff19166020820180517bffffffffffffffffffffffffffffffffffffffffffffffffffffffff8381831617835250505050611175565b50505050565b60006111d7826040518060400160405280602081526020017f5361666545524332303a206c6f772d6c6576656c2063616c6c206661696c65648152508573ffffffffffffffffffffffffffffffffffffffff1661123c9092919063ffffffff16565b905060008151111561123757808060200190518101906111f7919061145f565b611236576040517f08c379a000000000000000000000000000000000000000000000000000000000815260040161122d90611ae9565b60405180910390fd5b5b505050565b606061124b8484600085611254565b90509392505050565b606082471015611299576040517f08c379a000000000000000000000000000000000000000000000000000000000815260040161129090611a69565b60405180910390fd5b6112a285611368565b6112e1576040517f08c379a00000000000000000000000000000000000000000000000000000000081526004016112d890611ac9565b60405180910390fd5b6000808673ffffffffffffffffffffffffffffffffffffffff16858760405161130a91906118a3565b60006040518083038185875af1925050503d8060008114611347576040519150601f19603f3d011682016040523d82523d6000602084013e61134c565b606091505b509150915061135c82828661137b565b92505050949350505050565b600080823b905060008111915050919050565b6060831561138b578290506113db565b60008351111561139e5782518084602001fd5b816040517f08c379a00000000000000000000000000000000000000000000000000000000081526004016113d29190611987565b60405180910390fd5b9392505050565b6000813590506113f181611dbe565b92915050565b60008151905061140681611dd5565b92915050565b60008135905061141b81611dec565b92915050565b60008151905061143081611dec565b92915050565b60006020828403121561144857600080fd5b6000611456848285016113e2565b91505092915050565b60006020828403121561147157600080fd5b600061147f848285016113f7565b91505092915050565b60006020828403121561149a57600080fd5b60006114a88482850161140c565b91505092915050565b6000602082840312156114c357600080fd5b60006114d184828501611421565b91505092915050565b6114e381611cb0565b82525050565b60006114f482611b69565b6114fe8185611b7f565b935061150e818560208601611d1c565b80840191505092915050565b61152381611cf8565b82525050565b600061153482611b74565b61153e8185611b8a565b935061154e818560208601611d1c565b61155781611dad565b840191505092915050565b600061156f601183611b8a565b91507f6275793a20657863656564732073616c650000000000000000000000000000006000830152602082019050919050565b60006115af602683611b8a565b91507f4f776e61626c653a206e6577206f776e657220697320746865207a65726f206160008301527f64647265737300000000000000000000000000000000000000000000000000006020830152604082019050919050565b6000611615601783611b8a565b91507f6275793a206d617820616d6f756e7420657863656564730000000000000000006000830152602082019050919050565b6000611655600d83611b8a565b91507f6275793a206e6f74206f70656e000000000000000000000000000000000000006000830152602082019050919050565b6000611695600b83611b8a565b91507f6275793a20636c6f7365640000000000000000000000000000000000000000006000830152602082019050919050565b60006116d5600c83611b8a565b91507f636c61696d3a206572726f7200000000000000000000000000000000000000006000830152602082019050919050565b6000611715602683611b8a565b91507f416464726573733a20696e73756666696369656e742062616c616e636520666f60008301527f722063616c6c00000000000000000000000000000000000000000000000000006020830152604082019050919050565b600061177b602083611b8a565b91507f4f776e61626c653a2063616c6c6572206973206e6f7420746865206f776e65726000830152602082019050919050565b60006117bb601383611b8a565b91507f6275793a20696e76616c696420616d6f756e74000000000000000000000000006000830152602082019050919050565b60006117fb601d83611b8a565b91507f416464726573733a2063616c6c20746f206e6f6e2d636f6e74726163740000006000830152602082019050919050565b600061183b602a83611b8a565b91507f5361666545524332303a204552433230206f7065726174696f6e20646964206e60008301527f6f742073756363656564000000000000000000000000000000000000000000006020830152604082019050919050565b61189d81611cee565b82525050565b60006118af82846114e9565b915081905092915050565b60006020820190506118cf60008301846114da565b92915050565b60006060820190506118ea60008301866114da565b6118f760208301856114da565b6119046040830184611894565b949350505050565b600060408201905061192160008301856114da565b61192e6020830184611894565b9392505050565b600060608201905061194a60008301866114da565b6119576020830185611894565b6119646040830184611894565b949350505050565b6000602082019050611981600083018461151a565b92915050565b600060208201905081810360008301526119a18184611529565b905092915050565b600060208201905081810360008301526119c281611562565b9050919050565b600060208201905081810360008301526119e2816115a2565b9050919050565b60006020820190508181036000830152611a0281611608565b9050919050565b60006020820190508181036000830152611a2281611648565b9050919050565b60006020820190508181036000830152611a4281611688565b9050919050565b60006020820190508181036000830152611a62816116c8565b9050919050565b60006020820190508181036000830152611a8281611708565b9050919050565b60006020820190508181036000830152611aa28161176e565b9050919050565b60006020820190508181036000830152611ac2816117ae565b9050919050565b60006020820190508181036000830152611ae2816117ee565b9050919050565b60006020820190508181036000830152611b028161182e565b9050919050565b6000602082019050611b1e6000830184611894565b92915050565b6000608082019050611b396000830187611894565b611b466020830186611894565b611b536040830185611894565b611b606060830184611894565b95945050505050565b600081519050919050565b600081519050919050565b600081905092915050565b600082825260208201905092915050565b6000611ba682611cee565b9150611bb183611cee565b9250827fffffffffffffffffffffffffffffffffffffffffffffffffffffffffffffffff03821115611be657611be5611d4f565b5b828201905092915050565b6000611bfc82611cee565b9150611c0783611cee565b925082611c1757611c16611d7e565b5b828204905092915050565b6000611c2d82611cee565b9150611c3883611cee565b9250817fffffffffffffffffffffffffffffffffffffffffffffffffffffffffffffffff0483118215151615611c7157611c70611d4f565b5b828202905092915050565b6000611c8782611cee565b9150611c9283611cee565b925082821015611ca557611ca4611d4f565b5b828203905092915050565b6000611cbb82611cce565b9050919050565b60008115159050919050565b600073ffffffffffffffffffffffffffffffffffffffff82169050919050565b6000819050919050565b6000611d0382611d0a565b9050919050565b6000611d1582611cce565b9050919050565b60005b83811015611d3a578082015181840152602081019050611d1f565b83811115611d49576000848401525b50505050565b7f4e487b7100000000000000000000000000000000000000000000000000000000600052601160045260246000fd5b7f4e487b7100000000000000000000000000000000000000000000000000000000600052601260045260246000fd5b6000601f19601f8301169050919050565b611dc781611cb0565b8114611dd257600080fd5b50565b611dde81611cc2565b8114611de957600080fd5b50565b611df581611cee565b8114611e0057600080fd5b5056fea2646970667358221220ad55a4e4a89cb57ecaaa8b4a18215f6a14c0995d637bba1eef658d8433e486c164736f6c63430008000033",
  "linkReferences": {},
  "deployedLinkReferences": {}
}