{
  "_format": "hh-sol-artifact-1",
  "contractName": "PrivateVesting",
  "sourceName": "contracts/PrivateVesting.sol",
  "abi": [
    {
      "inputs": [
        {
          "internalType": "address",
          "name": "_rte",
          "type": "address"
        },
        {
          "internalType": "address",
          "name": "_busd",
          "type": "address"
        },
        {
          "internalType": "uint256",
          "name": "_startBuyTime",
          "type": "uint256"
        },
        {
          "internalType": "uint256",
          "name": "_endBuyTime",
          "type": "uint256"
        },
        {
          "internalType": "uint256",
          "name": "_claimTime",
          "type": "uint256"
        },
        {
          "internalType": "uint256",
          "name": "_cliffTime",
          "type": "uint256"
        },
        {
          "internalType": "uint256",
          "name": "_listingTime",
          "type": "uint256"
        }
      ],
      "stateMutability": "nonpayable",
      "type": "constructor"
    },
    {
      "anonymous": false,
      "inputs": [
        {
          "indexed": false,
          "internalType": "address",
          "name": "buyer",
          "type": "address"
        },
        {
          "indexed": false,
          "internalType": "uint256",
          "name": "amount",
          "type": "uint256"
        },
        {
          "indexed": false,
          "internalType": "uint256",
          "name": "timestamp",
          "type": "uint256"
        }
      ],
      "name": "Buy",
      "type": "event"
    },
    {
      "anonymous": false,
      "inputs": [
        {
          "indexed": false,
          "internalType": "address",
          "name": "caller",
          "type": "address"
        },
        {
          "indexed": false,
          "internalType": "uint256",
          "name": "amount",
          "type": "uint256"
        },
        {
          "indexed": false,
          "internalType": "uint256",
          "name": "timestamp",
          "type": "uint256"
        }
      ],
      "name": "Claim",
      "type": "event"
    },
    {
      "anonymous": false,
      "inputs": [
        {
          "indexed": true,
          "internalType": "address",
          "name": "previousOwner",
          "type": "address"
        },
        {
          "indexed": true,
          "internalType": "address",
          "name": "newOwner",
          "type": "address"
        }
      ],
      "name": "OwnershipTransferred",
      "type": "event"
    },
    {
      "inputs": [],
      "name": "VESTING_DURATION",
      "outputs": [
        {
          "internalType": "uint256",
          "name": "",
          "type": "uint256"
        }
      ],
      "stateMutability": "view",
      "type": "function"
    },
    {
      "inputs": [],
      "name": "VESTING_WINDOW",
      "outputs": [
        {
          "internalType": "uint256",
          "name": "",
          "type": "uint256"
        }
      ],
      "stateMutability": "view",
      "type": "function"
    },
    {
      "inputs": [],
      "name": "busd",
      "outputs": [
        {
          "internalType": "contract IERC20",
          "name": "",
          "type": "address"
        }
      ],
      "stateMutability": "view",
      "type": "function"
    },
    {
      "inputs": [
        {
          "internalType": "uint256",
          "name": "buyAmount",
          "type": "uint256"
        }
      ],
      "name": "buy",
      "outputs": [],
      "stateMutability": "nonpayable",
      "type": "function"
    },
    {
      "inputs": [],
      "name": "claim",
      "outputs": [],
      "stateMutability": "nonpayable",
      "type": "function"
    },
    {
      "inputs": [],
      "name": "claimTime",
      "outputs": [
        {
          "internalType": "uint256",
          "name": "",
          "type": "uint256"
        }
      ],
      "stateMutability": "view",
      "type": "function"
    },
    {
      "inputs": [],
      "name": "cliffTime",
      "outputs": [
        {
          "internalType": "uint256",
          "name": "",
          "type": "uint256"
        }
      ],
      "stateMutability": "view",
      "type": "function"
    },
    {
      "inputs": [],
      "name": "currentSale",
      "outputs": [
        {
          "internalType": "uint256",
          "name": "",
          "type": "uint256"
        }
      ],
      "stateMutability": "view",
      "type": "function"
    },
    {
      "inputs": [],
      "name": "dailyVestingPercent",
      "outputs": [
        {
          "internalType": "uint256",
          "name": "",
          "type": "uint256"
        }
      ],
      "stateMutability": "view",
      "type": "function"
    },
    {
      "inputs": [],
      "name": "endBuyTime",
      "outputs": [
        {
          "internalType": "uint256",
          "name": "",
          "type": "uint256"
        }
      ],
      "stateMutability": "view",
      "type": "function"
    },
    {
      "inputs": [],
      "name": "getVestingAmount",
      "outputs": [
        {
          "internalType": "uint256",
          "name": "",
          "type": "uint256"
        }
      ],
      "stateMutability": "view",
      "type": "function"
    },
    {
      "inputs": [],
      "name": "initVestingPercent",
      "outputs": [
        {
          "internalType": "uint256",
          "name": "",
          "type": "uint256"
        }
      ],
      "stateMutability": "view",
      "type": "function"
    },
    {
      "inputs": [],
      "name": "ipoPrice",
      "outputs": [
        {
          "internalType": "uint256",
          "name": "",
          "type": "uint256"
        }
      ],
      "stateMutability": "view",
      "type": "function"
    },
    {
      "inputs": [],
      "name": "listingTime",
      "outputs": [
        {
          "internalType": "uint256",
          "name": "",
          "type": "uint256"
        }
      ],
      "stateMutability": "view",
      "type": "function"
    },
    {
      "inputs": [],
      "name": "maxBuyAmount",
      "outputs": [
        {
          "internalType": "uint256",
          "name": "",
          "type": "uint256"
        }
      ],
      "stateMutability": "view",
      "type": "function"
    },
    {
      "inputs": [],
      "name": "minBuyAmount",
      "outputs": [
        {
          "internalType": "uint256",
          "name": "",
          "type": "uint256"
        }
      ],
      "stateMutability": "view",
      "type": "function"
    },
    {
      "inputs": [],
      "name": "owner",
      "outputs": [
        {
          "internalType": "address",
          "name": "",
          "type": "address"
        }
      ],
      "stateMutability": "view",
      "type": "function"
    },
    {
      "inputs": [],
      "name": "progress",
      "outputs": [
        {
          "internalType": "uint256",
          "name": "",
          "type": "uint256"
        }
      ],
      "stateMutability": "view",
      "type": "function"
    },
    {
      "inputs": [],
      "name": "refund",
      "outputs": [],
      "stateMutability": "nonpayable",
      "type": "function"
    },
    {
      "inputs": [],
      "name": "renounceOwnership",
      "outputs": [],
      "stateMutability": "nonpayable",
      "type": "function"
    },
    {
      "inputs": [],
      "name": "revokeBusd",
      "outputs": [],
      "stateMutability": "nonpayable",
      "type": "function"
    },
    {
      "inputs": [],
      "name": "revokeRte",
      "outputs": [],
      "stateMutability": "nonpayable",
      "type": "function"
    },
    {
      "inputs": [],
      "name": "rte",
      "outputs": [
        {
          "internalType": "contract IERC20",
          "name": "",
          "type": "address"
        }
      ],
      "stateMutability": "view",
      "type": "function"
    },
    {
      "inputs": [],
      "name": "startBuyTime",
      "outputs": [
        {
          "internalType": "uint256",
          "name": "",
          "type": "uint256"
        }
      ],
      "stateMutability": "view",
      "type": "function"
    },
    {
      "inputs": [],
      "name": "totalSale",
      "outputs": [
        {
          "internalType": "uint256",
          "name": "",
          "type": "uint256"
        }
      ],
      "stateMutability": "view",
      "type": "function"
    },
    {
      "inputs": [
        {
          "internalType": "address",
          "name": "newOwner",
          "type": "address"
        }
      ],
      "name": "transferOwnership",
      "outputs": [],
      "stateMutability": "nonpayable",
      "type": "function"
    },
    {
      "inputs": [
        {
          "internalType": "address",
          "name": "",
          "type": "address"
        }
      ],
      "name": "userByAddress",
      "outputs": [
        {
          "internalType": "uint256",
          "name": "buyAmount",
          "type": "uint256"
        },
        {
          "internalType": "uint256",
          "name": "initVestingAmount",
          "type": "uint256"
        },
        {
          "internalType": "uint256",
          "name": "initVestingDebt",
          "type": "uint256"
        },
        {
          "internalType": "uint256",
          "name": "dailyVestingAmount",
          "type": "uint256"
        },
        {
          "internalType": "uint256",
          "name": "dailyVestingDebt",
          "type": "uint256"
        }
      ],
      "stateMutability": "view",
      "type": "function"
    }
  ],
  "bytecode": "0x60c0604052600f600855661c6bf5263400006009556201518060809081525060b760a0908152506601f0fddc23ba0e600a5569261dd1ce2f2088800000600b556000600c556830ca024f987b900000600d55681043561a8829300000600e553480156200006b57600080fd5b506040516200265b3803806200265b8339818101604052810190620000919190620002a7565b620000b1620000a5620001ad60201b60201c565b620001b560201b60201c565b86600160006101000a81548173ffffffffffffffffffffffffffffffffffffffff021916908373ffffffffffffffffffffffffffffffffffffffff16021790555085600260006101000a81548173ffffffffffffffffffffffffffffffffffffffff021916908373ffffffffffffffffffffffffffffffffffffffff16021790555084600381905550836004819055508260058190555081600681905550806007819055506006546005541115620001a0576040517f08c379a0000000000000000000000000000000000000000000000000000000008152600401620001979062000396565b60405180910390fd5b505050505050506200043b565b600033905090565b60008060009054906101000a900473ffffffffffffffffffffffffffffffffffffffff169050816000806101000a81548173ffffffffffffffffffffffffffffffffffffffff021916908373ffffffffffffffffffffffffffffffffffffffff1602179055508173ffffffffffffffffffffffffffffffffffffffff168173ffffffffffffffffffffffffffffffffffffffff167f8be0079c531659141344cd1fd0a4f28419497f9722a3daafe3b4186f6b6457e060405160405180910390a35050565b6000815190506200028a8162000407565b92915050565b600081519050620002a18162000421565b92915050565b600080600080600080600060e0888a031215620002c357600080fd5b6000620002d38a828b0162000279565b9750506020620002e68a828b0162000279565b9650506040620002f98a828b0162000290565b95505060606200030c8a828b0162000290565b94505060806200031f8a828b0162000290565b93505060a0620003328a828b0162000290565b92505060c0620003458a828b0162000290565b91505092959891949750929550565b600062000363600a83620003b8565b91507f696e6974206572726f72000000000000000000000000000000000000000000006000830152602082019050919050565b60006020820190508181036000830152620003b18162000354565b9050919050565b600082825260208201905092915050565b6000620003d682620003dd565b9050919050565b600073ffffffffffffffffffffffffffffffffffffffff82169050919050565b6000819050919050565b6200041281620003c9565b81146200041e57600080fd5b50565b6200042c81620003fd565b81146200043857600080fd5b50565b60805160a0516121de6200047d60003960008181610588015281816105b5015281816105d901526106890152600081816105420152610dc101526121de6000f3fe608060405234801561001057600080fd5b50600436106101a95760003560e01c8063715018a6116100f9578063aa68268211610097578063ea4ce23911610071578063ea4ce23914610410578063f01d226f1461042e578063f2fde38b1461044c578063f66bf22914610468576101a9565b8063aa682682146103b8578063d00d1012146103d6578063d96a094a146103f4576101a9565b806389a1420f116100d357806389a1420f1461032a5780638da5cb5b14610348578063989e5ea914610366578063a05d03fd1461039a576101a9565b8063715018a6146102f857806378cedf4b1461030257806388e765ff1461030c576101a9565b80633f57faa9116101665780635388d55b116101405780635388d55b146102a85780635597bc41146102c6578063577bd336146102d0578063590e1ae3146102ee576101a9565b80633f57faa9146102625780634cfc4d30146102805780634e71d92d1461029e576101a9565b806308e695ad146101ae5780630f1a6444146101cc578063247d867f146101ea57806327b3bf111461020857806333b14742146102265780633ca5b23414610244575b600080fd5b6101b6610486565b6040516101c39190611ea0565b60405180910390f35b6101d461048c565b6040516101e19190611ea0565b60405180910390f35b6101f2610492565b6040516101ff9190611ea0565b60405180910390f35b610210610498565b60405161021d9190611ea0565b60405180910390f35b61022e61049e565b60405161023b9190611ea0565b60405180910390f35b61024c6104a4565b6040516102599190611ce3565b60405180910390f35b61026a6104ca565b6040516102779190611ea0565b60405180910390f35b610288610687565b6040516102959190611ea0565b60405180910390f35b6102a66106ab565b005b6102b061081e565b6040516102bd9190611ce3565b60405180910390f35b6102ce610844565b005b6102d86109bf565b6040516102e59190611ea0565b60405180910390f35b6102f6610a0a565b005b610300610bb6565b005b61030a610c3e565b005b610314610db9565b6040516103219190611ea0565b60405180910390f35b610332610dbf565b60405161033f9190611ea0565b60405180910390f35b610350610de3565b60405161035d9190611c31565b60405180910390f35b610380600480360381019061037b919061176d565b610e0c565b604051610391959493929190611ebb565b60405180910390f35b6103a2610e42565b6040516103af9190611ea0565b60405180910390f35b6103c0610e48565b6040516103cd9190611ea0565b60405180910390f35b6103de610e4e565b6040516103eb9190611ea0565b60405180910390f35b61040e600480360381019061040991906117bf565b610e54565b005b610418611185565b6040516104259190611ea0565b60405180910390f35b61043661118b565b6040516104439190611ea0565b60405180910390f35b6104666004803603810190610461919061176d565b611191565b005b610470611289565b60405161047d9190611ea0565b60405180910390f35b60095481565b60065481565b60085481565b60055481565b60075481565b600260009054906101000a900473ffffffffffffffffffffffffffffffffffffffff1681565b600080600f60003373ffffffffffffffffffffffffffffffffffffffff1673ffffffffffffffffffffffffffffffffffffffff168152602001908152602001600020905060006005544210610530578160020154826001015461052d9190612021565b90505b600060065442106106735760006105847f00000000000000000000000000000000000000000000000000000000000000006105766003544261128f90919063ffffffff16565b6112a590919063ffffffff16565b90507f000000000000000000000000000000000000000000000000000000000000000081116105b357806105d5565b7f00000000000000000000000000000000000000000000000000000000000000005b90507f000000000000000000000000000000000000000000000000000000000000000081141561061a57836004015484600301546106139190612021565b9150610671565b83600401546106648261065667016345785d8a0000610648600a548a600301546112bb90919063ffffffff16565b6112a590919063ffffffff16565b6112bb90919063ffffffff16565b61066e9190612021565b91505b505b808261067f9190611f40565b935050505090565b7f000000000000000000000000000000000000000000000000000000000000000081565b60006106b56104ca565b9050600081116106fa576040517f08c379a00000000000000000000000000000000000000000000000000000000081526004016106f190611da0565b60405180910390fd5b6107473382600160009054906101000a900473ffffffffffffffffffffffffffffffffffffffff1673ffffffffffffffffffffffffffffffffffffffff166112d19092919063ffffffff16565b6000600f60003373ffffffffffffffffffffffffffffffffffffffff1673ffffffffffffffffffffffffffffffffffffffff16815260200190815260200160002090508181600401600082825461079e9190611f40565b925050819055506000816002015414156107df5780600101548160040160008282546107ca9190612021565b92505081905550806001015481600201819055505b7f34fcbac0073d7c3d388e51312faf357774904998eeb8fca628b9e6f65ee1cbf733834260405161081293929190611cac565b60405180910390a15050565b600160009054906101000a900473ffffffffffffffffffffffffffffffffffffffff1681565b61084c611357565b73ffffffffffffffffffffffffffffffffffffffff1661086a610de3565b73ffffffffffffffffffffffffffffffffffffffff16146108c0576040517f08c379a00000000000000000000000000000000000000000000000000000000081526004016108b790611e00565b60405180910390fd5b6000600260009054906101000a900473ffffffffffffffffffffffffffffffffffffffff1673ffffffffffffffffffffffffffffffffffffffff166370a08231306040518263ffffffff1660e01b815260040161091d9190611c31565b60206040518083038186803b15801561093557600080fd5b505afa158015610949573d6000803e3d6000fd5b505050506040513d601f19601f8201168201806040525081019061096d91906117e8565b90506109bc3382600260009054906101000a900473ffffffffffffffffffffffffffffffffffffffff1673ffffffffffffffffffffffffffffffffffffffff166112d19092919063ffffffff16565b50565b6000610a0560646109f7600b546109e9670de0b6b3a7640000600c546112bb90919063ffffffff16565b6112a590919063ffffffff16565b6112bb90919063ffffffff16565b905090565b6000600f60003373ffffffffffffffffffffffffffffffffffffffff1673ffffffffffffffffffffffffffffffffffffffff16815260200190815260200160002090506000816000015411610a94576040517f08c379a0000000000000000000000000000000000000000000000000000000008152600401610a8b90611d20565b60405180910390fd5b600081600401548260020154610aaa9190611f40565b1115610b1357610b12333083600401548460020154610ac99190611f40565b600160009054906101000a900473ffffffffffffffffffffffffffffffffffffffff1673ffffffffffffffffffffffffffffffffffffffff1661135f909392919063ffffffff16565b5b610b64338260000154600260009054906101000a900473ffffffffffffffffffffffffffffffffffffffff1673ffffffffffffffffffffffffffffffffffffffff166112d19092919063ffffffff16565b8060000154600c6000828254610b7a9190612021565b92505081905550600081600001819055506000816001018190555060008160020181905550600081600301819055506000816004018190555050565b610bbe611357565b73ffffffffffffffffffffffffffffffffffffffff16610bdc610de3565b73ffffffffffffffffffffffffffffffffffffffff1614610c32576040517f08c379a0000000000000000000000000000000000000000000000000000000008152600401610c2990611e00565b60405180910390fd5b610c3c60006113e8565b565b610c46611357565b73ffffffffffffffffffffffffffffffffffffffff16610c64610de3565b73ffffffffffffffffffffffffffffffffffffffff1614610cba576040517f08c379a0000000000000000000000000000000000000000000000000000000008152600401610cb190611e00565b60405180910390fd5b6000600160009054906101000a900473ffffffffffffffffffffffffffffffffffffffff1673ffffffffffffffffffffffffffffffffffffffff166370a08231306040518263ffffffff1660e01b8152600401610d179190611c31565b60206040518083038186803b158015610d2f57600080fd5b505afa158015610d43573d6000803e3d6000fd5b505050506040513d601f19601f82011682018060405250810190610d6791906117e8565b9050610db63382600160009054906101000a900473ffffffffffffffffffffffffffffffffffffffff1673ffffffffffffffffffffffffffffffffffffffff166112d19092919063ffffffff16565b50565b600d5481565b7f000000000000000000000000000000000000000000000000000000000000000081565b60008060009054906101000a900473ffffffffffffffffffffffffffffffffffffffff16905090565b600f6020528060005260406000206000915090508060000154908060010154908060020154908060030154908060040154905085565b600c5481565b60035481565b600a5481565b600354421015610e99576040517f08c379a0000000000000000000000000000000000000000000000000000000008152600401610e9090611d80565b60405180910390fd5b600454421115610ede576040517f08c379a0000000000000000000000000000000000000000000000000000000008152600401610ed590611e80565b60405180910390fd5b600e548110158015610ef25750600d548111155b610f31576040517f08c379a0000000000000000000000000000000000000000000000000000000008152600401610f2890611e20565b60405180910390fd5b600b5481600c54610f429190611f40565b1115610f83576040517f08c379a0000000000000000000000000000000000000000000000000000000008152600401610f7a90611de0565b60405180910390fd5b6000600f60003373ffffffffffffffffffffffffffffffffffffffff1673ffffffffffffffffffffffffffffffffffffffff1681526020019081526020016000209050600d54828260000154610fd99190611f40565b111561101a576040517f08c379a000000000000000000000000000000000000000000000000000000000815260040161101190611d60565b60405180910390fd5b611069333084600260009054906101000a900473ffffffffffffffffffffffffffffffffffffffff1673ffffffffffffffffffffffffffffffffffffffff1661135f909392919063ffffffff16565b81600c600082825461107b9190611f40565b92505081905550818160000160008282546110969190611f40565b9250508190555060006110ce6009546110c0670de0b6b3a7640000866112bb90919063ffffffff16565b6112a590919063ffffffff16565b905060006110fa60646110ec600854856112bb90919063ffffffff16565b6112a590919063ffffffff16565b9050808360010160008282546111109190611f40565b9250508190555061112a818361128f90919063ffffffff16565b83600301600082825461113d9190611f40565b925050819055507f1cbc5ab135991bd2b6a4b034a04aa2aa086dac1371cb9b16b8b5e2ed6b036bed33854260405161117793929190611cac565b60405180910390a150505050565b600b5481565b60045481565b611199611357565b73ffffffffffffffffffffffffffffffffffffffff166111b7610de3565b73ffffffffffffffffffffffffffffffffffffffff161461120d576040517f08c379a000000000000000000000000000000000000000000000000000000000815260040161120490611e00565b60405180910390fd5b600073ffffffffffffffffffffffffffffffffffffffff168173ffffffffffffffffffffffffffffffffffffffff16141561127d576040517f08c379a000000000000000000000000000000000000000000000000000000000815260040161127490611d40565b60405180910390fd5b611286816113e8565b50565b600e5481565b6000818361129d9190612021565b905092915050565b600081836112b39190611f96565b905092915050565b600081836112c99190611fc7565b905092915050565b6113528363a9059cbb60e01b84846040516024016112f0929190611c83565b604051602081830303815290604052907bffffffffffffffffffffffffffffffffffffffffffffffffffffffff19166020820180517bffffffffffffffffffffffffffffffffffffffffffffffffffffffff83818316178352505050506114ac565b505050565b600033905090565b6113e2846323b872dd60e01b85858560405160240161138093929190611c4c565b604051602081830303815290604052907bffffffffffffffffffffffffffffffffffffffffffffffffffffffff19166020820180517bffffffffffffffffffffffffffffffffffffffffffffffffffffffff83818316178352505050506114ac565b50505050565b60008060009054906101000a900473ffffffffffffffffffffffffffffffffffffffff169050816000806101000a81548173ffffffffffffffffffffffffffffffffffffffff021916908373ffffffffffffffffffffffffffffffffffffffff1602179055508173ffffffffffffffffffffffffffffffffffffffff168173ffffffffffffffffffffffffffffffffffffffff167f8be0079c531659141344cd1fd0a4f28419497f9722a3daafe3b4186f6b6457e060405160405180910390a35050565b600061150e826040518060400160405280602081526020017f5361666545524332303a206c6f772d6c6576656c2063616c6c206661696c65648152508573ffffffffffffffffffffffffffffffffffffffff166115739092919063ffffffff16565b905060008151111561156e578080602001905181019061152e9190611796565b61156d576040517f08c379a000000000000000000000000000000000000000000000000000000000815260040161156490611e60565b60405180910390fd5b5b505050565b6060611582848460008561158b565b90509392505050565b6060824710156115d0576040517f08c379a00000000000000000000000000000000000000000000000000000000081526004016115c790611dc0565b60405180910390fd5b6115d98561169f565b611618576040517f08c379a000000000000000000000000000000000000000000000000000000000815260040161160f90611e40565b60405180910390fd5b6000808673ffffffffffffffffffffffffffffffffffffffff1685876040516116419190611c1a565b60006040518083038185875af1925050503d806000811461167e576040519150601f19603f3d011682016040523d82523d6000602084013e611683565b606091505b50915091506116938282866116b2565b92505050949350505050565b600080823b905060008111915050919050565b606083156116c257829050611712565b6000835111156116d55782518084602001fd5b816040517f08c379a00000000000000000000000000000000000000000000000000000000081526004016117099190611cfe565b60405180910390fd5b9392505050565b60008135905061172881612163565b92915050565b60008151905061173d8161217a565b92915050565b60008135905061175281612191565b92915050565b60008151905061176781612191565b92915050565b60006020828403121561177f57600080fd5b600061178d84828501611719565b91505092915050565b6000602082840312156117a857600080fd5b60006117b68482850161172e565b91505092915050565b6000602082840312156117d157600080fd5b60006117df84828501611743565b91505092915050565b6000602082840312156117fa57600080fd5b600061180884828501611758565b91505092915050565b61181a81612055565b82525050565b600061182b82611f0e565b6118358185611f24565b93506118458185602086016120c1565b80840191505092915050565b61185a8161209d565b82525050565b600061186b82611f19565b6118758185611f2f565b93506118858185602086016120c1565b61188e81612152565b840191505092915050565b60006118a6601683611f2f565b91507f726566756e643a20696e76616c696420616d6f756e74000000000000000000006000830152602082019050919050565b60006118e6602683611f2f565b91507f4f776e61626c653a206e6577206f776e657220697320746865207a65726f206160008301527f64647265737300000000000000000000000000000000000000000000000000006020830152604082019050919050565b600061194c601783611f2f565b91507f6275793a206d617820616d6f756e7420657863656564730000000000000000006000830152602082019050919050565b600061198c600d83611f2f565b91507f6275793a206e6f74206f70656e000000000000000000000000000000000000006000830152602082019050919050565b60006119cc600c83611f2f565b91507f636c61696d3a206572726f7200000000000000000000000000000000000000006000830152602082019050919050565b6000611a0c602683611f2f565b91507f416464726573733a20696e73756666696369656e742062616c616e636520666f60008301527f722063616c6c00000000000000000000000000000000000000000000000000006020830152604082019050919050565b6000611a72601783611f2f565b91507f6275793a206578636565647320746f74616c2073616c650000000000000000006000830152602082019050919050565b6000611ab2602083611f2f565b91507f4f776e61626c653a2063616c6c6572206973206e6f7420746865206f776e65726000830152602082019050919050565b6000611af2601383611f2f565b91507f6275793a20696e76616c696420616d6f756e74000000000000000000000000006000830152602082019050919050565b6000611b32601d83611f2f565b91507f416464726573733a2063616c6c20746f206e6f6e2d636f6e74726163740000006000830152602082019050919050565b6000611b72602a83611f2f565b91507f5361666545524332303a204552433230206f7065726174696f6e20646964206e60008301527f6f742073756363656564000000000000000000000000000000000000000000006020830152604082019050919050565b6000611bd8601583611f2f565b91507f6275793a206275792074696d65206578706972656400000000000000000000006000830152602082019050919050565b611c1481612093565b82525050565b6000611c268284611820565b915081905092915050565b6000602082019050611c466000830184611811565b92915050565b6000606082019050611c616000830186611811565b611c6e6020830185611811565b611c7b6040830184611c0b565b949350505050565b6000604082019050611c986000830185611811565b611ca56020830184611c0b565b9392505050565b6000606082019050611cc16000830186611811565b611cce6020830185611c0b565b611cdb6040830184611c0b565b949350505050565b6000602082019050611cf86000830184611851565b92915050565b60006020820190508181036000830152611d188184611860565b905092915050565b60006020820190508181036000830152611d3981611899565b9050919050565b60006020820190508181036000830152611d59816118d9565b9050919050565b60006020820190508181036000830152611d798161193f565b9050919050565b60006020820190508181036000830152611d998161197f565b9050919050565b60006020820190508181036000830152611db9816119bf565b9050919050565b60006020820190508181036000830152611dd9816119ff565b9050919050565b60006020820190508181036000830152611df981611a65565b9050919050565b60006020820190508181036000830152611e1981611aa5565b9050919050565b60006020820190508181036000830152611e3981611ae5565b9050919050565b60006020820190508181036000830152611e5981611b25565b9050919050565b60006020820190508181036000830152611e7981611b65565b9050919050565b60006020820190508181036000830152611e9981611bcb565b9050919050565b6000602082019050611eb56000830184611c0b565b92915050565b600060a082019050611ed06000830188611c0b565b611edd6020830187611c0b565b611eea6040830186611c0b565b611ef76060830185611c0b565b611f046080830184611c0b565b9695505050505050565b600081519050919050565b600081519050919050565b600081905092915050565b600082825260208201905092915050565b6000611f4b82612093565b9150611f5683612093565b9250827fffffffffffffffffffffffffffffffffffffffffffffffffffffffffffffffff03821115611f8b57611f8a6120f4565b5b828201905092915050565b6000611fa182612093565b9150611fac83612093565b925082611fbc57611fbb612123565b5b828204905092915050565b6000611fd282612093565b9150611fdd83612093565b9250817fffffffffffffffffffffffffffffffffffffffffffffffffffffffffffffffff0483118215151615612016576120156120f4565b5b828202905092915050565b600061202c82612093565b915061203783612093565b92508282101561204a576120496120f4565b5b828203905092915050565b600061206082612073565b9050919050565b60008115159050919050565b600073ffffffffffffffffffffffffffffffffffffffff82169050919050565b6000819050919050565b60006120a8826120af565b9050919050565b60006120ba82612073565b9050919050565b60005b838110156120df5780820151818401526020810190506120c4565b838111156120ee576000848401525b50505050565b7f4e487b7100000000000000000000000000000000000000000000000000000000600052601160045260246000fd5b7f4e487b7100000000000000000000000000000000000000000000000000000000600052601260045260246000fd5b6000601f19601f8301169050919050565b61216c81612055565b811461217757600080fd5b50565b61218381612067565b811461218e57600080fd5b50565b61219a81612093565b81146121a557600080fd5b5056fea264697066735822122058e1b01099922ed352d78e3b5a0f8e2faf74104e4d73b5b5e6f850f7ffaf443564736f6c63430008000033",
  "linkReferences": {},
  "deployedLinkReferences": {}
}