{
  "_format": "hh-sol-artifact-1",
  "contractName": "PublicVesting",
  "sourceName": "contracts/PublicVesting.sol",
  "abi": [
    {
      "inputs": [
        {
          "internalType": "address",
          "name": "_rte",
          "type": "address"
        },
        {
          "internalType": "address",
          "name": "_busd",
          "type": "address"
        },
        {
          "internalType": "address",
          "name": "_dev",
          "type": "address"
        },
        {
          "internalType": "uint256",
          "name": "_startBuyTime",
          "type": "uint256"
        },
        {
          "internalType": "uint256",
          "name": "_endBuyTime",
          "type": "uint256"
        },
        {
          "internalType": "uint256",
          "name": "_claimTime",
          "type": "uint256"
        }
      ],
      "stateMutability": "nonpayable",
      "type": "constructor"
    },
    {
      "anonymous": false,
      "inputs": [
        {
          "indexed": false,
          "internalType": "address",
          "name": "buyer",
          "type": "address"
        },
        {
          "indexed": false,
          "internalType": "uint256",
          "name": "amount",
          "type": "uint256"
        },
        {
          "indexed": false,
          "internalType": "uint256",
          "name": "timestamp",
          "type": "uint256"
        }
      ],
      "name": "Buy",
      "type": "event"
    },
    {
      "anonymous": false,
      "inputs": [
        {
          "indexed": false,
          "internalType": "address",
          "name": "caller",
          "type": "address"
        },
        {
          "indexed": false,
          "internalType": "uint256",
          "name": "amount",
          "type": "uint256"
        },
        {
          "indexed": false,
          "internalType": "uint256",
          "name": "timestamp",
          "type": "uint256"
        }
      ],
      "name": "Claim",
      "type": "event"
    },
    {
      "anonymous": false,
      "inputs": [
        {
          "indexed": true,
          "internalType": "address",
          "name": "previousOwner",
          "type": "address"
        },
        {
          "indexed": true,
          "internalType": "address",
          "name": "newOwner",
          "type": "address"
        }
      ],
      "name": "OwnershipTransferred",
      "type": "event"
    },
    {
      "inputs": [],
      "name": "busd",
      "outputs": [
        {
          "internalType": "contract IERC20",
          "name": "",
          "type": "address"
        }
      ],
      "stateMutability": "view",
      "type": "function"
    },
    {
      "inputs": [
        {
          "internalType": "uint256",
          "name": "buyAmount",
          "type": "uint256"
        }
      ],
      "name": "buy",
      "outputs": [],
      "stateMutability": "nonpayable",
      "type": "function"
    },
    {
      "inputs": [],
      "name": "claim",
      "outputs": [],
      "stateMutability": "nonpayable",
      "type": "function"
    },
    {
      "inputs": [],
      "name": "claimTime",
      "outputs": [
        {
          "internalType": "uint256",
          "name": "",
          "type": "uint256"
        }
      ],
      "stateMutability": "view",
      "type": "function"
    },
    {
      "inputs": [],
      "name": "currentSale",
      "outputs": [
        {
          "internalType": "uint256",
          "name": "",
          "type": "uint256"
        }
      ],
      "stateMutability": "view",
      "type": "function"
    },
    {
      "inputs": [],
      "name": "dev",
      "outputs": [
        {
          "internalType": "address",
          "name": "",
          "type": "address"
        }
      ],
      "stateMutability": "view",
      "type": "function"
    },
    {
      "inputs": [],
      "name": "endBuyTime",
      "outputs": [
        {
          "internalType": "uint256",
          "name": "",
          "type": "uint256"
        }
      ],
      "stateMutability": "view",
      "type": "function"
    },
    {
      "inputs": [],
      "name": "getVestingAmount",
      "outputs": [
        {
          "internalType": "uint256",
          "name": "",
          "type": "uint256"
        }
      ],
      "stateMutability": "view",
      "type": "function"
    },
    {
      "inputs": [],
      "name": "initVestingPercent",
      "outputs": [
        {
          "internalType": "uint256",
          "name": "",
          "type": "uint256"
        }
      ],
      "stateMutability": "view",
      "type": "function"
    },
    {
      "inputs": [],
      "name": "ipoPrice",
      "outputs": [
        {
          "internalType": "uint256",
          "name": "",
          "type": "uint256"
        }
      ],
      "stateMutability": "view",
      "type": "function"
    },
    {
      "inputs": [],
      "name": "minBuyAmount",
      "outputs": [
        {
          "internalType": "uint256",
          "name": "",
          "type": "uint256"
        }
      ],
      "stateMutability": "view",
      "type": "function"
    },
    {
      "inputs": [],
      "name": "owner",
      "outputs": [
        {
          "internalType": "address",
          "name": "",
          "type": "address"
        }
      ],
      "stateMutability": "view",
      "type": "function"
    },
    {
      "inputs": [],
      "name": "progress",
      "outputs": [
        {
          "internalType": "uint256",
          "name": "",
          "type": "uint256"
        }
      ],
      "stateMutability": "view",
      "type": "function"
    },
    {
      "inputs": [
        {
          "internalType": "address",
          "name": "_user",
          "type": "address"
        }
      ],
      "name": "refund",
      "outputs": [],
      "stateMutability": "nonpayable",
      "type": "function"
    },
    {
      "inputs": [],
      "name": "renounceOwnership",
      "outputs": [],
      "stateMutability": "nonpayable",
      "type": "function"
    },
    {
      "inputs": [],
      "name": "revokeBusd",
      "outputs": [],
      "stateMutability": "nonpayable",
      "type": "function"
    },
    {
      "inputs": [],
      "name": "revokeRte",
      "outputs": [],
      "stateMutability": "nonpayable",
      "type": "function"
    },
    {
      "inputs": [],
      "name": "rte",
      "outputs": [
        {
          "internalType": "contract IERC20",
          "name": "",
          "type": "address"
        }
      ],
      "stateMutability": "view",
      "type": "function"
    },
    {
      "inputs": [],
      "name": "startBuyTime",
      "outputs": [
        {
          "internalType": "uint256",
          "name": "",
          "type": "uint256"
        }
      ],
      "stateMutability": "view",
      "type": "function"
    },
    {
      "inputs": [],
      "name": "totalSale",
      "outputs": [
        {
          "internalType": "uint256",
          "name": "",
          "type": "uint256"
        }
      ],
      "stateMutability": "view",
      "type": "function"
    },
    {
      "inputs": [
        {
          "internalType": "address",
          "name": "newOwner",
          "type": "address"
        }
      ],
      "name": "transferOwnership",
      "outputs": [],
      "stateMutability": "nonpayable",
      "type": "function"
    },
    {
      "inputs": [
        {
          "internalType": "address",
          "name": "",
          "type": "address"
        }
      ],
      "name": "userByAddress",
      "outputs": [
        {
          "internalType": "uint256",
          "name": "buyAmount",
          "type": "uint256"
        },
        {
          "internalType": "uint256",
          "name": "initVestingAmount",
          "type": "uint256"
        },
        {
          "internalType": "uint256",
          "name": "initVestingDebt",
          "type": "uint256"
        },
        {
          "internalType": "uint256",
          "name": "dailyVestingAmount",
          "type": "uint256"
        },
        {
          "internalType": "uint256",
          "name": "dailyVestingDebt",
          "type": "uint256"
        }
      ],
      "stateMutability": "view",
      "type": "function"
    }
  ],
  "bytecode": "0x6080604052606460075567016345785d8a00006008556a01a784379d99db420000006009556000600a556801a055690d9db80000600b553480156200004357600080fd5b50604051620022bc380380620022bc833981810160405281019062000069919062000267565b620000896200007d6200016d60201b60201c565b6200017560201b60201c565b85600160006101000a81548173ffffffffffffffffffffffffffffffffffffffff021916908373ffffffffffffffffffffffffffffffffffffffff16021790555084600260006101000a81548173ffffffffffffffffffffffffffffffffffffffff021916908373ffffffffffffffffffffffffffffffffffffffff16021790555083600360006101000a81548173ffffffffffffffffffffffffffffffffffffffff021916908373ffffffffffffffffffffffffffffffffffffffff1602179055508260048190555081600581905550806006819055505050505050506200036f565b600033905090565b60008060009054906101000a900473ffffffffffffffffffffffffffffffffffffffff169050816000806101000a81548173ffffffffffffffffffffffffffffffffffffffff021916908373ffffffffffffffffffffffffffffffffffffffff1602179055508173ffffffffffffffffffffffffffffffffffffffff168173ffffffffffffffffffffffffffffffffffffffff167f8be0079c531659141344cd1fd0a4f28419497f9722a3daafe3b4186f6b6457e060405160405180910390a35050565b6000815190506200024a816200033b565b92915050565b600081519050620002618162000355565b92915050565b60008060008060008060c087890312156200028157600080fd5b60006200029189828a0162000239565b9650506020620002a489828a0162000239565b9550506040620002b789828a0162000239565b9450506060620002ca89828a0162000250565b9350506080620002dd89828a0162000250565b92505060a0620002f089828a0162000250565b9150509295509295509295565b60006200030a8262000311565b9050919050565b600073ffffffffffffffffffffffffffffffffffffffff82169050919050565b6000819050919050565b6200034681620002fd565b81146200035257600080fd5b50565b620003608162000331565b81146200036c57600080fd5b50565b611f3d806200037f6000396000f3fe608060405234801561001057600080fd5b50600436106101425760003560e01c80638da5cb5b116100b8578063d96a094a1161007c578063d96a094a146102ed578063ea4ce23914610309578063f01d226f14610327578063f2fde38b14610345578063f66bf22914610361578063fa89401a1461037f57610142565b80638da5cb5b1461024157806391cca3db1461025f578063989e5ea91461027d578063a05d03fd146102b1578063aa682682146102cf57610142565b80634e71d92d1161010a5780634e71d92d146101dd5780635388d55b146101e75780635597bc4114610205578063577bd3361461020f578063715018a61461022d57806378cedf4b1461023757610142565b806308e695ad14610147578063247d867f1461016557806327b3bf11146101835780633ca5b234146101a15780633f57faa9146101bf575b600080fd5b61014f61039b565b60405161015c9190611bff565b60405180910390f35b61016d6103a1565b60405161017a9190611bff565b60405180910390f35b61018b6103a7565b6040516101989190611bff565b60405180910390f35b6101a96103ad565b6040516101b69190611a42565b60405180910390f35b6101c76103d3565b6040516101d49190611bff565b60405180910390f35b6101e5610441565b005b6101ef6105bf565b6040516101fc9190611a42565b60405180910390f35b61020d6105e5565b005b610217610760565b6040516102249190611bff565b60405180910390f35b6102356107ab565b005b61023f610833565b005b6102496109ae565b6040516102569190611990565b60405180910390f35b6102676109d7565b6040516102749190611990565b60405180910390f35b610297600480360381019061029291906114cc565b6109fd565b6040516102a8959493929190611c1a565b60405180910390f35b6102b9610a33565b6040516102c69190611bff565b60405180910390f35b6102d7610a39565b6040516102e49190611bff565b60405180910390f35b6103076004803603810190610302919061151e565b610a3f565b005b610311610d03565b60405161031e9190611bff565b60405180910390f35b61032f610d09565b60405161033c9190611bff565b60405180910390f35b61035f600480360381019061035a91906114cc565b610d0f565b005b610369610e07565b6040516103769190611bff565b60405180910390f35b610399600480360381019061039491906114cc565b610e0d565b005b60085481565b60075481565b60065481565b600260009054906101000a900473ffffffffffffffffffffffffffffffffffffffff1681565b600080600c60003373ffffffffffffffffffffffffffffffffffffffff1673ffffffffffffffffffffffffffffffffffffffff16815260200190815260200160002090506000600654421061043957816002015482600101546104369190611d80565b90505b809250505090565b600654421015610486576040517f08c379a000000000000000000000000000000000000000000000000000000000815260040161047d90611aff565b60405180910390fd5b60006104906103d3565b9050600081116104d5576040517f08c379a00000000000000000000000000000000000000000000000000000000081526004016104cc90611a7f565b60405180910390fd5b6105223382600160009054906101000a900473ffffffffffffffffffffffffffffffffffffffff1673ffffffffffffffffffffffffffffffffffffffff166110049092919063ffffffff16565b6000600c60003373ffffffffffffffffffffffffffffffffffffffff1673ffffffffffffffffffffffffffffffffffffffff168152602001908152602001600020905060008160020154141561058057806001015481600201819055505b7f34fcbac0073d7c3d388e51312faf357774904998eeb8fca628b9e6f65ee1cbf73383426040516105b393929190611a0b565b60405180910390a15050565b600160009054906101000a900473ffffffffffffffffffffffffffffffffffffffff1681565b6105ed61108a565b73ffffffffffffffffffffffffffffffffffffffff1661060b6109ae565b73ffffffffffffffffffffffffffffffffffffffff1614610661576040517f08c379a000000000000000000000000000000000000000000000000000000000815260040161065890611b5f565b60405180910390fd5b6000600260009054906101000a900473ffffffffffffffffffffffffffffffffffffffff1673ffffffffffffffffffffffffffffffffffffffff166370a08231306040518263ffffffff1660e01b81526004016106be9190611990565b60206040518083038186803b1580156106d657600080fd5b505afa1580156106ea573d6000803e3d6000fd5b505050506040513d601f19601f8201168201806040525081019061070e9190611547565b905061075d3382600260009054906101000a900473ffffffffffffffffffffffffffffffffffffffff1673ffffffffffffffffffffffffffffffffffffffff166110049092919063ffffffff16565b50565b60006107a6606461079860095461078a670de0b6b3a7640000600a5461109290919063ffffffff16565b6110a890919063ffffffff16565b61109290919063ffffffff16565b905090565b6107b361108a565b73ffffffffffffffffffffffffffffffffffffffff166107d16109ae565b73ffffffffffffffffffffffffffffffffffffffff1614610827576040517f08c379a000000000000000000000000000000000000000000000000000000000815260040161081e90611b5f565b60405180910390fd5b61083160006110be565b565b61083b61108a565b73ffffffffffffffffffffffffffffffffffffffff166108596109ae565b73ffffffffffffffffffffffffffffffffffffffff16146108af576040517f08c379a00000000000000000000000000000000000000000000000000000000081526004016108a690611b5f565b60405180910390fd5b6000600160009054906101000a900473ffffffffffffffffffffffffffffffffffffffff1673ffffffffffffffffffffffffffffffffffffffff166370a08231306040518263ffffffff1660e01b815260040161090c9190611990565b60206040518083038186803b15801561092457600080fd5b505afa158015610938573d6000803e3d6000fd5b505050506040513d601f19601f8201168201806040525081019061095c9190611547565b90506109ab3382600160009054906101000a900473ffffffffffffffffffffffffffffffffffffffff1673ffffffffffffffffffffffffffffffffffffffff166110049092919063ffffffff16565b50565b60008060009054906101000a900473ffffffffffffffffffffffffffffffffffffffff16905090565b600360009054906101000a900473ffffffffffffffffffffffffffffffffffffffff1681565b600c6020528060005260406000206000915090508060000154908060010154908060020154908060030154908060040154905085565b600a5481565b60045481565b600454421015610a84576040517f08c379a0000000000000000000000000000000000000000000000000000000008152600401610a7b90611adf565b60405180910390fd5b600554421115610ac9576040517f08c379a0000000000000000000000000000000000000000000000000000000008152600401610ac090611bdf565b60405180910390fd5b600b54811015610b0e576040517f08c379a0000000000000000000000000000000000000000000000000000000008152600401610b0590611b7f565b60405180910390fd5b60095481600a54610b1f9190611c9f565b1115610b60576040517f08c379a0000000000000000000000000000000000000000000000000000000008152600401610b5790611b3f565b60405180910390fd5b6000600c60003373ffffffffffffffffffffffffffffffffffffffff1673ffffffffffffffffffffffffffffffffffffffff1681526020019081526020016000209050610c1433600360009054906101000a900473ffffffffffffffffffffffffffffffffffffffff1684600260009054906101000a900473ffffffffffffffffffffffffffffffffffffffff1673ffffffffffffffffffffffffffffffffffffffff16611182909392919063ffffffff16565b81600a6000828254610c269190611c9f565b9250508190555081816000016000828254610c419190611c9f565b925050819055506000610c79600854610c6b670de0b6b3a76400008661109290919063ffffffff16565b6110a890919063ffffffff16565b90506000610ca56064610c976007548561109290919063ffffffff16565b6110a890919063ffffffff16565b905080836001016000828254610cbb9190611c9f565b925050819055507f1cbc5ab135991bd2b6a4b034a04aa2aa086dac1371cb9b16b8b5e2ed6b036bed338542604051610cf593929190611a0b565b60405180910390a150505050565b60095481565b60055481565b610d1761108a565b73ffffffffffffffffffffffffffffffffffffffff16610d356109ae565b73ffffffffffffffffffffffffffffffffffffffff1614610d8b576040517f08c379a0000000000000000000000000000000000000000000000000000000008152600401610d8290611b5f565b60405180910390fd5b600073ffffffffffffffffffffffffffffffffffffffff168173ffffffffffffffffffffffffffffffffffffffff161415610dfb576040517f08c379a0000000000000000000000000000000000000000000000000000000008152600401610df290611abf565b60405180910390fd5b610e04816110be565b50565b600b5481565b610e1561108a565b73ffffffffffffffffffffffffffffffffffffffff16610e336109ae565b73ffffffffffffffffffffffffffffffffffffffff1614610e89576040517f08c379a0000000000000000000000000000000000000000000000000000000008152600401610e8090611b5f565b60405180910390fd5b6000600c60008373ffffffffffffffffffffffffffffffffffffffff1673ffffffffffffffffffffffffffffffffffffffff16815260200190815260200160002090506000816000015411610f13576040517f08c379a0000000000000000000000000000000000000000000000000000000008152600401610f0a90611a9f565b60405180910390fd5b600081600201541115610f7457610f7333308360020154600160009054906101000a900473ffffffffffffffffffffffffffffffffffffffff1673ffffffffffffffffffffffffffffffffffffffff16611182909392919063ffffffff16565b5b610fc5338260000154600260009054906101000a900473ffffffffffffffffffffffffffffffffffffffff1673ffffffffffffffffffffffffffffffffffffffff166110049092919063ffffffff16565b8060000154600a6000828254610fdb9190611d80565b925050819055506000816000018190555060008160010181905550600081600201819055505050565b6110858363a9059cbb60e01b84846040516024016110239291906119e2565b604051602081830303815290604052907bffffffffffffffffffffffffffffffffffffffffffffffffffffffff19166020820180517bffffffffffffffffffffffffffffffffffffffffffffffffffffffff838183161783525050505061120b565b505050565b600033905090565b600081836110a09190611d26565b905092915050565b600081836110b69190611cf5565b905092915050565b60008060009054906101000a900473ffffffffffffffffffffffffffffffffffffffff169050816000806101000a81548173ffffffffffffffffffffffffffffffffffffffff021916908373ffffffffffffffffffffffffffffffffffffffff1602179055508173ffffffffffffffffffffffffffffffffffffffff168173ffffffffffffffffffffffffffffffffffffffff167f8be0079c531659141344cd1fd0a4f28419497f9722a3daafe3b4186f6b6457e060405160405180910390a35050565b611205846323b872dd60e01b8585856040516024016111a3939291906119ab565b604051602081830303815290604052907bffffffffffffffffffffffffffffffffffffffffffffffffffffffff19166020820180517bffffffffffffffffffffffffffffffffffffffffffffffffffffffff838183161783525050505061120b565b50505050565b600061126d826040518060400160405280602081526020017f5361666545524332303a206c6f772d6c6576656c2063616c6c206661696c65648152508573ffffffffffffffffffffffffffffffffffffffff166112d29092919063ffffffff16565b90506000815111156112cd578080602001905181019061128d91906114f5565b6112cc576040517f08c379a00000000000000000000000000000000000000000000000000000000081526004016112c390611bbf565b60405180910390fd5b5b505050565b60606112e184846000856112ea565b90509392505050565b60608247101561132f576040517f08c379a000000000000000000000000000000000000000000000000000000000815260040161132690611b1f565b60405180910390fd5b611338856113fe565b611377576040517f08c379a000000000000000000000000000000000000000000000000000000000815260040161136e90611b9f565b60405180910390fd5b6000808673ffffffffffffffffffffffffffffffffffffffff1685876040516113a09190611979565b60006040518083038185875af1925050503d80600081146113dd576040519150601f19603f3d011682016040523d82523d6000602084013e6113e2565b606091505b50915091506113f2828286611411565b92505050949350505050565b600080823b905060008111915050919050565b6060831561142157829050611471565b6000835111156114345782518084602001fd5b816040517f08c379a00000000000000000000000000000000000000000000000000000000081526004016114689190611a5d565b60405180910390fd5b9392505050565b60008135905061148781611ec2565b92915050565b60008151905061149c81611ed9565b92915050565b6000813590506114b181611ef0565b92915050565b6000815190506114c681611ef0565b92915050565b6000602082840312156114de57600080fd5b60006114ec84828501611478565b91505092915050565b60006020828403121561150757600080fd5b60006115158482850161148d565b91505092915050565b60006020828403121561153057600080fd5b600061153e848285016114a2565b91505092915050565b60006020828403121561155957600080fd5b6000611567848285016114b7565b91505092915050565b61157981611db4565b82525050565b600061158a82611c6d565b6115948185611c83565b93506115a4818560208601611e20565b80840191505092915050565b6115b981611dfc565b82525050565b60006115ca82611c78565b6115d48185611c8e565b93506115e4818560208601611e20565b6115ed81611eb1565b840191505092915050565b6000611605601883611c8e565b91507f636c61696d3a206e6f7420656e6f75676820616d6f756e7400000000000000006000830152602082019050919050565b6000611645601683611c8e565b91507f726566756e643a20696e76616c696420616d6f756e74000000000000000000006000830152602082019050919050565b6000611685602683611c8e565b91507f4f776e61626c653a206e6577206f776e657220697320746865207a65726f206160008301527f64647265737300000000000000000000000000000000000000000000000000006020830152604082019050919050565b60006116eb600d83611c8e565b91507f6275793a206e6f74206f70656e000000000000000000000000000000000000006000830152602082019050919050565b600061172b601f83611c8e565b91507f636c61696d3a20766573742069732063757272656e746c79206c6f636b6564006000830152602082019050919050565b600061176b602683611c8e565b91507f416464726573733a20696e73756666696369656e742062616c616e636520666f60008301527f722063616c6c00000000000000000000000000000000000000000000000000006020830152604082019050919050565b60006117d1601783611c8e565b91507f6275793a206578636565647320746f74616c2073616c650000000000000000006000830152602082019050919050565b6000611811602083611c8e565b91507f4f776e61626c653a2063616c6c6572206973206e6f7420746865206f776e65726000830152602082019050919050565b6000611851601383611c8e565b91507f6275793a20696e76616c696420616d6f756e74000000000000000000000000006000830152602082019050919050565b6000611891601d83611c8e565b91507f416464726573733a2063616c6c20746f206e6f6e2d636f6e74726163740000006000830152602082019050919050565b60006118d1602a83611c8e565b91507f5361666545524332303a204552433230206f7065726174696f6e20646964206e60008301527f6f742073756363656564000000000000000000000000000000000000000000006020830152604082019050919050565b6000611937601583611c8e565b91507f6275793a206275792074696d65206578706972656400000000000000000000006000830152602082019050919050565b61197381611df2565b82525050565b6000611985828461157f565b915081905092915050565b60006020820190506119a56000830184611570565b92915050565b60006060820190506119c06000830186611570565b6119cd6020830185611570565b6119da604083018461196a565b949350505050565b60006040820190506119f76000830185611570565b611a04602083018461196a565b9392505050565b6000606082019050611a206000830186611570565b611a2d602083018561196a565b611a3a604083018461196a565b949350505050565b6000602082019050611a5760008301846115b0565b92915050565b60006020820190508181036000830152611a7781846115bf565b905092915050565b60006020820190508181036000830152611a98816115f8565b9050919050565b60006020820190508181036000830152611ab881611638565b9050919050565b60006020820190508181036000830152611ad881611678565b9050919050565b60006020820190508181036000830152611af8816116de565b9050919050565b60006020820190508181036000830152611b188161171e565b9050919050565b60006020820190508181036000830152611b388161175e565b9050919050565b60006020820190508181036000830152611b58816117c4565b9050919050565b60006020820190508181036000830152611b7881611804565b9050919050565b60006020820190508181036000830152611b9881611844565b9050919050565b60006020820190508181036000830152611bb881611884565b9050919050565b60006020820190508181036000830152611bd8816118c4565b9050919050565b60006020820190508181036000830152611bf88161192a565b9050919050565b6000602082019050611c14600083018461196a565b92915050565b600060a082019050611c2f600083018861196a565b611c3c602083018761196a565b611c49604083018661196a565b611c56606083018561196a565b611c63608083018461196a565b9695505050505050565b600081519050919050565b600081519050919050565b600081905092915050565b600082825260208201905092915050565b6000611caa82611df2565b9150611cb583611df2565b9250827fffffffffffffffffffffffffffffffffffffffffffffffffffffffffffffffff03821115611cea57611ce9611e53565b5b828201905092915050565b6000611d0082611df2565b9150611d0b83611df2565b925082611d1b57611d1a611e82565b5b828204905092915050565b6000611d3182611df2565b9150611d3c83611df2565b9250817fffffffffffffffffffffffffffffffffffffffffffffffffffffffffffffffff0483118215151615611d7557611d74611e53565b5b828202905092915050565b6000611d8b82611df2565b9150611d9683611df2565b925082821015611da957611da8611e53565b5b828203905092915050565b6000611dbf82611dd2565b9050919050565b60008115159050919050565b600073ffffffffffffffffffffffffffffffffffffffff82169050919050565b6000819050919050565b6000611e0782611e0e565b9050919050565b6000611e1982611dd2565b9050919050565b60005b83811015611e3e578082015181840152602081019050611e23565b83811115611e4d576000848401525b50505050565b7f4e487b7100000000000000000000000000000000000000000000000000000000600052601160045260246000fd5b7f4e487b7100000000000000000000000000000000000000000000000000000000600052601260045260246000fd5b6000601f19601f8301169050919050565b611ecb81611db4565b8114611ed657600080fd5b50565b611ee281611dc6565b8114611eed57600080fd5b50565b611ef981611df2565b8114611f0457600080fd5b5056fea264697066735822122095b13b248653256d9ef4646344f8f6b673db17158425ba974704bb809fb19b0164736f6c63430008000033",
  "linkReferences": {},
  "deployedLinkReferences": {}
}