{
  "_format": "hh-sol-artifact-1",
  "contractName": "PublicVesting",
  "sourceName": "contracts/PublicVesting.sol",
  "abi": [
    {
      "inputs": [
        {
          "internalType": "address",
          "name": "_rte",
          "type": "address"
        },
        {
          "internalType": "address",
          "name": "_busd",
          "type": "address"
        },
        {
          "internalType": "address",
          "name": "_dev",
          "type": "address"
        },
        {
          "internalType": "uint256",
          "name": "_startBuyTime",
          "type": "uint256"
        },
        {
          "internalType": "uint256",
          "name": "_endBuyTime",
          "type": "uint256"
        },
        {
          "internalType": "uint256",
          "name": "_claimTime",
          "type": "uint256"
        },
        {
          "internalType": "uint256",
          "name": "_cliffTime",
          "type": "uint256"
        },
        {
          "internalType": "uint256",
          "name": "_listingTime",
          "type": "uint256"
        }
      ],
      "stateMutability": "nonpayable",
      "type": "constructor"
    },
    {
      "anonymous": false,
      "inputs": [
        {
          "indexed": false,
          "internalType": "address",
          "name": "buyer",
          "type": "address"
        },
        {
          "indexed": false,
          "internalType": "uint256",
          "name": "amount",
          "type": "uint256"
        },
        {
          "indexed": false,
          "internalType": "uint256",
          "name": "timestamp",
          "type": "uint256"
        }
      ],
      "name": "Buy",
      "type": "event"
    },
    {
      "anonymous": false,
      "inputs": [
        {
          "indexed": false,
          "internalType": "address",
          "name": "caller",
          "type": "address"
        },
        {
          "indexed": false,
          "internalType": "uint256",
          "name": "amount",
          "type": "uint256"
        },
        {
          "indexed": false,
          "internalType": "uint256",
          "name": "timestamp",
          "type": "uint256"
        }
      ],
      "name": "Claim",
      "type": "event"
    },
    {
      "anonymous": false,
      "inputs": [
        {
          "indexed": true,
          "internalType": "address",
          "name": "previousOwner",
          "type": "address"
        },
        {
          "indexed": true,
          "internalType": "address",
          "name": "newOwner",
          "type": "address"
        }
      ],
      "name": "OwnershipTransferred",
      "type": "event"
    },
    {
      "inputs": [],
      "name": "VESTING_DURATION",
      "outputs": [
        {
          "internalType": "uint256",
          "name": "",
          "type": "uint256"
        }
      ],
      "stateMutability": "view",
      "type": "function"
    },
    {
      "inputs": [],
      "name": "VESTING_WINDOW",
      "outputs": [
        {
          "internalType": "uint256",
          "name": "",
          "type": "uint256"
        }
      ],
      "stateMutability": "view",
      "type": "function"
    },
    {
      "inputs": [],
      "name": "busd",
      "outputs": [
        {
          "internalType": "contract IERC20",
          "name": "",
          "type": "address"
        }
      ],
      "stateMutability": "view",
      "type": "function"
    },
    {
      "inputs": [
        {
          "internalType": "uint256",
          "name": "buyAmount",
          "type": "uint256"
        }
      ],
      "name": "buy",
      "outputs": [],
      "stateMutability": "nonpayable",
      "type": "function"
    },
    {
      "inputs": [],
      "name": "claim",
      "outputs": [],
      "stateMutability": "nonpayable",
      "type": "function"
    },
    {
      "inputs": [],
      "name": "claimTime",
      "outputs": [
        {
          "internalType": "uint256",
          "name": "",
          "type": "uint256"
        }
      ],
      "stateMutability": "view",
      "type": "function"
    },
    {
      "inputs": [],
      "name": "cliffTime",
      "outputs": [
        {
          "internalType": "uint256",
          "name": "",
          "type": "uint256"
        }
      ],
      "stateMutability": "view",
      "type": "function"
    },
    {
      "inputs": [],
      "name": "currentSale",
      "outputs": [
        {
          "internalType": "uint256",
          "name": "",
          "type": "uint256"
        }
      ],
      "stateMutability": "view",
      "type": "function"
    },
    {
      "inputs": [],
      "name": "dailyVestingPercent",
      "outputs": [
        {
          "internalType": "uint256",
          "name": "",
          "type": "uint256"
        }
      ],
      "stateMutability": "view",
      "type": "function"
    },
    {
      "inputs": [],
      "name": "dev",
      "outputs": [
        {
          "internalType": "address",
          "name": "",
          "type": "address"
        }
      ],
      "stateMutability": "view",
      "type": "function"
    },
    {
      "inputs": [],
      "name": "endBuyTime",
      "outputs": [
        {
          "internalType": "uint256",
          "name": "",
          "type": "uint256"
        }
      ],
      "stateMutability": "view",
      "type": "function"
    },
    {
      "inputs": [],
      "name": "getVestingAmount",
      "outputs": [
        {
          "internalType": "uint256",
          "name": "",
          "type": "uint256"
        }
      ],
      "stateMutability": "view",
      "type": "function"
    },
    {
      "inputs": [],
      "name": "initVestingPercent",
      "outputs": [
        {
          "internalType": "uint256",
          "name": "",
          "type": "uint256"
        }
      ],
      "stateMutability": "view",
      "type": "function"
    },
    {
      "inputs": [],
      "name": "ipoPrice",
      "outputs": [
        {
          "internalType": "uint256",
          "name": "",
          "type": "uint256"
        }
      ],
      "stateMutability": "view",
      "type": "function"
    },
    {
      "inputs": [],
      "name": "listingTime",
      "outputs": [
        {
          "internalType": "uint256",
          "name": "",
          "type": "uint256"
        }
      ],
      "stateMutability": "view",
      "type": "function"
    },
    {
      "inputs": [],
      "name": "maxBuyAmount",
      "outputs": [
        {
          "internalType": "uint256",
          "name": "",
          "type": "uint256"
        }
      ],
      "stateMutability": "view",
      "type": "function"
    },
    {
      "inputs": [],
      "name": "minBuyAmount",
      "outputs": [
        {
          "internalType": "uint256",
          "name": "",
          "type": "uint256"
        }
      ],
      "stateMutability": "view",
      "type": "function"
    },
    {
      "inputs": [],
      "name": "owner",
      "outputs": [
        {
          "internalType": "address",
          "name": "",
          "type": "address"
        }
      ],
      "stateMutability": "view",
      "type": "function"
    },
    {
      "inputs": [],
      "name": "progress",
      "outputs": [
        {
          "internalType": "uint256",
          "name": "",
          "type": "uint256"
        }
      ],
      "stateMutability": "view",
      "type": "function"
    },
    {
      "inputs": [
        {
          "internalType": "address",
          "name": "_user",
          "type": "address"
        }
      ],
      "name": "refund",
      "outputs": [],
      "stateMutability": "nonpayable",
      "type": "function"
    },
    {
      "inputs": [],
      "name": "renounceOwnership",
      "outputs": [],
      "stateMutability": "nonpayable",
      "type": "function"
    },
    {
      "inputs": [],
      "name": "revokeBusd",
      "outputs": [],
      "stateMutability": "nonpayable",
      "type": "function"
    },
    {
      "inputs": [],
      "name": "revokeRte",
      "outputs": [],
      "stateMutability": "nonpayable",
      "type": "function"
    },
    {
      "inputs": [],
      "name": "rte",
      "outputs": [
        {
          "internalType": "contract IERC20",
          "name": "",
          "type": "address"
        }
      ],
      "stateMutability": "view",
      "type": "function"
    },
    {
      "inputs": [],
      "name": "startBuyTime",
      "outputs": [
        {
          "internalType": "uint256",
          "name": "",
          "type": "uint256"
        }
      ],
      "stateMutability": "view",
      "type": "function"
    },
    {
      "inputs": [],
      "name": "totalSale",
      "outputs": [
        {
          "internalType": "uint256",
          "name": "",
          "type": "uint256"
        }
      ],
      "stateMutability": "view",
      "type": "function"
    },
    {
      "inputs": [
        {
          "internalType": "address",
          "name": "newOwner",
          "type": "address"
        }
      ],
      "name": "transferOwnership",
      "outputs": [],
      "stateMutability": "nonpayable",
      "type": "function"
    },
    {
      "inputs": [
        {
          "internalType": "address",
          "name": "",
          "type": "address"
        }
      ],
      "name": "userByAddress",
      "outputs": [
        {
          "internalType": "uint256",
          "name": "buyAmount",
          "type": "uint256"
        },
        {
          "internalType": "uint256",
          "name": "initVestingAmount",
          "type": "uint256"
        },
        {
          "internalType": "uint256",
          "name": "initVestingDebt",
          "type": "uint256"
        },
        {
          "internalType": "uint256",
          "name": "dailyVestingAmount",
          "type": "uint256"
        },
        {
          "internalType": "uint256",
          "name": "dailyVestingDebt",
          "type": "uint256"
        }
      ],
      "stateMutability": "view",
      "type": "function"
    }
  ],
  "bytecode": "0x60c06040526019600955662aa1efb94e0000600a5562015180608090815250605a60a0908152506603f28cb71571c7600b5569152d02c7e14af6800000600c556000600d55681b1ae4d6e2ef500000600e55680ad78ebc5ac6200000600f553480156200006b57600080fd5b50604051620027c3380380620027c38339818101604052810190620000919190620002e9565b620000b1620000a5620001ef60201b60201c565b620001f760201b60201c565b87600160006101000a81548173ffffffffffffffffffffffffffffffffffffffff021916908373ffffffffffffffffffffffffffffffffffffffff16021790555086600260006101000a81548173ffffffffffffffffffffffffffffffffffffffff021916908373ffffffffffffffffffffffffffffffffffffffff16021790555085600360006101000a81548173ffffffffffffffffffffffffffffffffffffffff021916908373ffffffffffffffffffffffffffffffffffffffff16021790555084600481905550836005819055508260068190555081600781905550806008819055506007546006541115620001e1576040517f08c379a0000000000000000000000000000000000000000000000000000000008152600401620001d890620003ee565b60405180910390fd5b505050505050505062000493565b600033905090565b60008060009054906101000a900473ffffffffffffffffffffffffffffffffffffffff169050816000806101000a81548173ffffffffffffffffffffffffffffffffffffffff021916908373ffffffffffffffffffffffffffffffffffffffff1602179055508173ffffffffffffffffffffffffffffffffffffffff168173ffffffffffffffffffffffffffffffffffffffff167f8be0079c531659141344cd1fd0a4f28419497f9722a3daafe3b4186f6b6457e060405160405180910390a35050565b600081519050620002cc816200045f565b92915050565b600081519050620002e38162000479565b92915050565b600080600080600080600080610100898b0312156200030757600080fd5b6000620003178b828c01620002bb565b98505060206200032a8b828c01620002bb565b97505060406200033d8b828c01620002bb565b9650506060620003508b828c01620002d2565b9550506080620003638b828c01620002d2565b94505060a0620003768b828c01620002d2565b93505060c0620003898b828c01620002d2565b92505060e06200039c8b828c01620002d2565b9150509295985092959890939650565b6000620003bb600a8362000410565b91507f696e6974206572726f72000000000000000000000000000000000000000000006000830152602082019050919050565b600060208201905081810360008301526200040981620003ac565b9050919050565b600082825260208201905092915050565b60006200042e8262000435565b9050919050565b600073ffffffffffffffffffffffffffffffffffffffff82169050919050565b6000819050919050565b6200046a8162000421565b81146200047657600080fd5b50565b620004848162000455565b81146200049057600080fd5b50565b60805160a0516122ee620004d5600039600081816105d3015281816106000152818161062401526106d401526000818161058d0152610c6001526122ee6000f3fe608060405234801561001057600080fd5b50600436106101c45760003560e01c806388e765ff116100f9578063d00d101211610097578063f01d226f11610071578063f01d226f1461045d578063f2fde38b1461047b578063f66bf22914610497578063fa89401a146104b5576101c4565b8063d00d101214610405578063d96a094a14610423578063ea4ce2391461043f576101c4565b806391cca3db116100d357806391cca3db14610377578063989e5ea914610395578063a05d03fd146103c9578063aa682682146103e7576101c4565b806388e765ff1461031d57806389a1420f1461033b5780638da5cb5b14610359576101c4565b80634cfc4d30116101665780635597bc41116101405780635597bc41146102e1578063577bd336146102eb578063715018a61461030957806378cedf4b14610313576101c4565b80634cfc4d301461029b5780634e71d92d146102b95780635388d55b146102c3576101c4565b806327b3bf11116101a257806327b3bf111461022357806333b14742146102415780633ca5b2341461025f5780633f57faa91461027d576101c4565b806308e695ad146101c95780630f1a6444146101e7578063247d867f14610205575b600080fd5b6101d16104d1565b6040516101de9190611fb0565b60405180910390f35b6101ef6104d7565b6040516101fc9190611fb0565b60405180910390f35b61020d6104dd565b60405161021a9190611fb0565b60405180910390f35b61022b6104e3565b6040516102389190611fb0565b60405180910390f35b6102496104e9565b6040516102569190611fb0565b60405180910390f35b6102676104ef565b6040516102749190611df3565b60405180910390f35b610285610515565b6040516102929190611fb0565b60405180910390f35b6102a36106d2565b6040516102b09190611fb0565b60405180910390f35b6102c16106f6565b005b6102cb610869565b6040516102d89190611df3565b60405180910390f35b6102e961088f565b005b6102f3610a0a565b6040516103009190611fb0565b60405180910390f35b610311610a55565b005b61031b610add565b005b610325610c58565b6040516103329190611fb0565b60405180910390f35b610343610c5e565b6040516103509190611fb0565b60405180910390f35b610361610c82565b60405161036e9190611d41565b60405180910390f35b61037f610cab565b60405161038c9190611d41565b60405180910390f35b6103af60048036038101906103aa919061187d565b610cd1565b6040516103c0959493929190611fcb565b60405180910390f35b6103d1610d07565b6040516103de9190611fb0565b60405180910390f35b6103ef610d0d565b6040516103fc9190611fb0565b60405180910390f35b61040d610d13565b60405161041a9190611fb0565b60405180910390f35b61043d600480360381019061043891906118cf565b610d19565b005b61044761106c565b6040516104549190611fb0565b60405180910390f35b610465611072565b6040516104729190611fb0565b60405180910390f35b6104956004803603810190610490919061187d565b611078565b005b61049f611170565b6040516104ac9190611fb0565b60405180910390f35b6104cf60048036038101906104ca919061187d565b611176565b005b600a5481565b60075481565b60095481565b60065481565b60085481565b600260009054906101000a900473ffffffffffffffffffffffffffffffffffffffff1681565b600080601060003373ffffffffffffffffffffffffffffffffffffffff1673ffffffffffffffffffffffffffffffffffffffff16815260200190815260200160002090506000600654421061057b57816002015482600101546105789190612131565b90505b600060075442106106be5760006105cf7f00000000000000000000000000000000000000000000000000000000000000006105c16004544261139f90919063ffffffff16565b6113b590919063ffffffff16565b90507f000000000000000000000000000000000000000000000000000000000000000081116105fe5780610620565b7f00000000000000000000000000000000000000000000000000000000000000005b90507f0000000000000000000000000000000000000000000000000000000000000000811415610665578360040154846003015461065e9190612131565b91506106bc565b83600401546106af826106a167016345785d8a0000610693600b548a600301546113cb90919063ffffffff16565b6113b590919063ffffffff16565b6113cb90919063ffffffff16565b6106b99190612131565b91505b505b80826106ca9190612050565b935050505090565b7f000000000000000000000000000000000000000000000000000000000000000081565b6000610700610515565b905060008111610745576040517f08c379a000000000000000000000000000000000000000000000000000000000815260040161073c90611eb0565b60405180910390fd5b6107923382600160009054906101000a900473ffffffffffffffffffffffffffffffffffffffff1673ffffffffffffffffffffffffffffffffffffffff166113e19092919063ffffffff16565b6000601060003373ffffffffffffffffffffffffffffffffffffffff1673ffffffffffffffffffffffffffffffffffffffff1681526020019081526020016000209050818160040160008282546107e99190612050565b9250508190555060008160020154141561082a5780600101548160040160008282546108159190612131565b92505081905550806001015481600201819055505b7f34fcbac0073d7c3d388e51312faf357774904998eeb8fca628b9e6f65ee1cbf733834260405161085d93929190611dbc565b60405180910390a15050565b600160009054906101000a900473ffffffffffffffffffffffffffffffffffffffff1681565b610897611467565b73ffffffffffffffffffffffffffffffffffffffff166108b5610c82565b73ffffffffffffffffffffffffffffffffffffffff161461090b576040517f08c379a000000000000000000000000000000000000000000000000000000000815260040161090290611f10565b60405180910390fd5b6000600260009054906101000a900473ffffffffffffffffffffffffffffffffffffffff1673ffffffffffffffffffffffffffffffffffffffff166370a08231306040518263ffffffff1660e01b81526004016109689190611d41565b60206040518083038186803b15801561098057600080fd5b505afa158015610994573d6000803e3d6000fd5b505050506040513d601f19601f820116820180604052508101906109b891906118f8565b9050610a073382600260009054906101000a900473ffffffffffffffffffffffffffffffffffffffff1673ffffffffffffffffffffffffffffffffffffffff166113e19092919063ffffffff16565b50565b6000610a506064610a42600c54610a34670de0b6b3a7640000600d546113cb90919063ffffffff16565b6113b590919063ffffffff16565b6113cb90919063ffffffff16565b905090565b610a5d611467565b73ffffffffffffffffffffffffffffffffffffffff16610a7b610c82565b73ffffffffffffffffffffffffffffffffffffffff1614610ad1576040517f08c379a0000000000000000000000000000000000000000000000000000000008152600401610ac890611f10565b60405180910390fd5b610adb600061146f565b565b610ae5611467565b73ffffffffffffffffffffffffffffffffffffffff16610b03610c82565b73ffffffffffffffffffffffffffffffffffffffff1614610b59576040517f08c379a0000000000000000000000000000000000000000000000000000000008152600401610b5090611f10565b60405180910390fd5b6000600160009054906101000a900473ffffffffffffffffffffffffffffffffffffffff1673ffffffffffffffffffffffffffffffffffffffff166370a08231306040518263ffffffff1660e01b8152600401610bb69190611d41565b60206040518083038186803b158015610bce57600080fd5b505afa158015610be2573d6000803e3d6000fd5b505050506040513d601f19601f82011682018060405250810190610c0691906118f8565b9050610c553382600160009054906101000a900473ffffffffffffffffffffffffffffffffffffffff1673ffffffffffffffffffffffffffffffffffffffff166113e19092919063ffffffff16565b50565b600e5481565b7f000000000000000000000000000000000000000000000000000000000000000081565b60008060009054906101000a900473ffffffffffffffffffffffffffffffffffffffff16905090565b600360009054906101000a900473ffffffffffffffffffffffffffffffffffffffff1681565b60106020528060005260406000206000915090508060000154908060010154908060020154908060030154908060040154905085565b600d5481565b60045481565b600b5481565b600454421015610d5e576040517f08c379a0000000000000000000000000000000000000000000000000000000008152600401610d5590611e90565b60405180910390fd5b600554421115610da3576040517f08c379a0000000000000000000000000000000000000000000000000000000008152600401610d9a90611f90565b60405180910390fd5b600f548110158015610db75750600e548111155b610df6576040517f08c379a0000000000000000000000000000000000000000000000000000000008152600401610ded90611f30565b60405180910390fd5b600c5481600d54610e079190612050565b1115610e48576040517f08c379a0000000000000000000000000000000000000000000000000000000008152600401610e3f90611ef0565b60405180910390fd5b6000601060003373ffffffffffffffffffffffffffffffffffffffff1673ffffffffffffffffffffffffffffffffffffffff1681526020019081526020016000209050600e54828260000154610e9e9190612050565b1115610edf576040517f08c379a0000000000000000000000000000000000000000000000000000000008152600401610ed690611e70565b60405180910390fd5b610f5033600360009054906101000a900473ffffffffffffffffffffffffffffffffffffffff1684600260009054906101000a900473ffffffffffffffffffffffffffffffffffffffff1673ffffffffffffffffffffffffffffffffffffffff16611533909392919063ffffffff16565b81600d6000828254610f629190612050565b9250508190555081816000016000828254610f7d9190612050565b925050819055506000610fb5600a54610fa7670de0b6b3a7640000866113cb90919063ffffffff16565b6113b590919063ffffffff16565b90506000610fe16064610fd3600954856113cb90919063ffffffff16565b6113b590919063ffffffff16565b905080836001016000828254610ff79190612050565b92505081905550611011818361139f90919063ffffffff16565b8360030160008282546110249190612050565b925050819055507f1cbc5ab135991bd2b6a4b034a04aa2aa086dac1371cb9b16b8b5e2ed6b036bed33854260405161105e93929190611dbc565b60405180910390a150505050565b600c5481565b60055481565b611080611467565b73ffffffffffffffffffffffffffffffffffffffff1661109e610c82565b73ffffffffffffffffffffffffffffffffffffffff16146110f4576040517f08c379a00000000000000000000000000000000000000000000000000000000081526004016110eb90611f10565b60405180910390fd5b600073ffffffffffffffffffffffffffffffffffffffff168173ffffffffffffffffffffffffffffffffffffffff161415611164576040517f08c379a000000000000000000000000000000000000000000000000000000000815260040161115b90611e50565b60405180910390fd5b61116d8161146f565b50565b600f5481565b61117e611467565b73ffffffffffffffffffffffffffffffffffffffff1661119c610c82565b73ffffffffffffffffffffffffffffffffffffffff16146111f2576040517f08c379a00000000000000000000000000000000000000000000000000000000081526004016111e990611f10565b60405180910390fd5b6000601060008373ffffffffffffffffffffffffffffffffffffffff1673ffffffffffffffffffffffffffffffffffffffff1681526020019081526020016000209050600081600001541161127c576040517f08c379a000000000000000000000000000000000000000000000000000000000815260040161127390611e30565b60405180910390fd5b6000816004015482600201546112929190612050565b11156112fb576112fa3330836004015484600201546112b19190612050565b600160009054906101000a900473ffffffffffffffffffffffffffffffffffffffff1673ffffffffffffffffffffffffffffffffffffffff16611533909392919063ffffffff16565b5b61134c338260000154600260009054906101000a900473ffffffffffffffffffffffffffffffffffffffff1673ffffffffffffffffffffffffffffffffffffffff166113e19092919063ffffffff16565b8060000154600d60008282546113629190612131565b9250508190555060008160000181905550600081600101819055506000816002018190555060008160030181905550600081600401819055505050565b600081836113ad9190612131565b905092915050565b600081836113c391906120a6565b905092915050565b600081836113d991906120d7565b905092915050565b6114628363a9059cbb60e01b8484604051602401611400929190611d93565b604051602081830303815290604052907bffffffffffffffffffffffffffffffffffffffffffffffffffffffff19166020820180517bffffffffffffffffffffffffffffffffffffffffffffffffffffffff83818316178352505050506115bc565b505050565b600033905090565b60008060009054906101000a900473ffffffffffffffffffffffffffffffffffffffff169050816000806101000a81548173ffffffffffffffffffffffffffffffffffffffff021916908373ffffffffffffffffffffffffffffffffffffffff1602179055508173ffffffffffffffffffffffffffffffffffffffff168173ffffffffffffffffffffffffffffffffffffffff167f8be0079c531659141344cd1fd0a4f28419497f9722a3daafe3b4186f6b6457e060405160405180910390a35050565b6115b6846323b872dd60e01b85858560405160240161155493929190611d5c565b604051602081830303815290604052907bffffffffffffffffffffffffffffffffffffffffffffffffffffffff19166020820180517bffffffffffffffffffffffffffffffffffffffffffffffffffffffff83818316178352505050506115bc565b50505050565b600061161e826040518060400160405280602081526020017f5361666545524332303a206c6f772d6c6576656c2063616c6c206661696c65648152508573ffffffffffffffffffffffffffffffffffffffff166116839092919063ffffffff16565b905060008151111561167e578080602001905181019061163e91906118a6565b61167d576040517f08c379a000000000000000000000000000000000000000000000000000000000815260040161167490611f70565b60405180910390fd5b5b505050565b6060611692848460008561169b565b90509392505050565b6060824710156116e0576040517f08c379a00000000000000000000000000000000000000000000000000000000081526004016116d790611ed0565b60405180910390fd5b6116e9856117af565b611728576040517f08c379a000000000000000000000000000000000000000000000000000000000815260040161171f90611f50565b60405180910390fd5b6000808673ffffffffffffffffffffffffffffffffffffffff1685876040516117519190611d2a565b60006040518083038185875af1925050503d806000811461178e576040519150601f19603f3d011682016040523d82523d6000602084013e611793565b606091505b50915091506117a38282866117c2565b92505050949350505050565b600080823b905060008111915050919050565b606083156117d257829050611822565b6000835111156117e55782518084602001fd5b816040517f08c379a00000000000000000000000000000000000000000000000000000000081526004016118199190611e0e565b60405180910390fd5b9392505050565b60008135905061183881612273565b92915050565b60008151905061184d8161228a565b92915050565b600081359050611862816122a1565b92915050565b600081519050611877816122a1565b92915050565b60006020828403121561188f57600080fd5b600061189d84828501611829565b91505092915050565b6000602082840312156118b857600080fd5b60006118c68482850161183e565b91505092915050565b6000602082840312156118e157600080fd5b60006118ef84828501611853565b91505092915050565b60006020828403121561190a57600080fd5b600061191884828501611868565b91505092915050565b61192a81612165565b82525050565b600061193b8261201e565b6119458185612034565b93506119558185602086016121d1565b80840191505092915050565b61196a816121ad565b82525050565b600061197b82612029565b611985818561203f565b93506119958185602086016121d1565b61199e81612262565b840191505092915050565b60006119b660168361203f565b91507f726566756e643a20696e76616c696420616d6f756e74000000000000000000006000830152602082019050919050565b60006119f660268361203f565b91507f4f776e61626c653a206e6577206f776e657220697320746865207a65726f206160008301527f64647265737300000000000000000000000000000000000000000000000000006020830152604082019050919050565b6000611a5c60178361203f565b91507f6275793a206d617820616d6f756e7420657863656564730000000000000000006000830152602082019050919050565b6000611a9c600d8361203f565b91507f6275793a206e6f74206f70656e000000000000000000000000000000000000006000830152602082019050919050565b6000611adc600c8361203f565b91507f636c61696d3a206572726f7200000000000000000000000000000000000000006000830152602082019050919050565b6000611b1c60268361203f565b91507f416464726573733a20696e73756666696369656e742062616c616e636520666f60008301527f722063616c6c00000000000000000000000000000000000000000000000000006020830152604082019050919050565b6000611b8260178361203f565b91507f6275793a206578636565647320746f74616c2073616c650000000000000000006000830152602082019050919050565b6000611bc260208361203f565b91507f4f776e61626c653a2063616c6c6572206973206e6f7420746865206f776e65726000830152602082019050919050565b6000611c0260138361203f565b91507f6275793a20696e76616c696420616d6f756e74000000000000000000000000006000830152602082019050919050565b6000611c42601d8361203f565b91507f416464726573733a2063616c6c20746f206e6f6e2d636f6e74726163740000006000830152602082019050919050565b6000611c82602a8361203f565b91507f5361666545524332303a204552433230206f7065726174696f6e20646964206e60008301527f6f742073756363656564000000000000000000000000000000000000000000006020830152604082019050919050565b6000611ce860158361203f565b91507f6275793a206275792074696d65206578706972656400000000000000000000006000830152602082019050919050565b611d24816121a3565b82525050565b6000611d368284611930565b915081905092915050565b6000602082019050611d566000830184611921565b92915050565b6000606082019050611d716000830186611921565b611d7e6020830185611921565b611d8b6040830184611d1b565b949350505050565b6000604082019050611da86000830185611921565b611db56020830184611d1b565b9392505050565b6000606082019050611dd16000830186611921565b611dde6020830185611d1b565b611deb6040830184611d1b565b949350505050565b6000602082019050611e086000830184611961565b92915050565b60006020820190508181036000830152611e288184611970565b905092915050565b60006020820190508181036000830152611e49816119a9565b9050919050565b60006020820190508181036000830152611e69816119e9565b9050919050565b60006020820190508181036000830152611e8981611a4f565b9050919050565b60006020820190508181036000830152611ea981611a8f565b9050919050565b60006020820190508181036000830152611ec981611acf565b9050919050565b60006020820190508181036000830152611ee981611b0f565b9050919050565b60006020820190508181036000830152611f0981611b75565b9050919050565b60006020820190508181036000830152611f2981611bb5565b9050919050565b60006020820190508181036000830152611f4981611bf5565b9050919050565b60006020820190508181036000830152611f6981611c35565b9050919050565b60006020820190508181036000830152611f8981611c75565b9050919050565b60006020820190508181036000830152611fa981611cdb565b9050919050565b6000602082019050611fc56000830184611d1b565b92915050565b600060a082019050611fe06000830188611d1b565b611fed6020830187611d1b565b611ffa6040830186611d1b565b6120076060830185611d1b565b6120146080830184611d1b565b9695505050505050565b600081519050919050565b600081519050919050565b600081905092915050565b600082825260208201905092915050565b600061205b826121a3565b9150612066836121a3565b9250827fffffffffffffffffffffffffffffffffffffffffffffffffffffffffffffffff0382111561209b5761209a612204565b5b828201905092915050565b60006120b1826121a3565b91506120bc836121a3565b9250826120cc576120cb612233565b5b828204905092915050565b60006120e2826121a3565b91506120ed836121a3565b9250817fffffffffffffffffffffffffffffffffffffffffffffffffffffffffffffffff048311821515161561212657612125612204565b5b828202905092915050565b600061213c826121a3565b9150612147836121a3565b92508282101561215a57612159612204565b5b828203905092915050565b600061217082612183565b9050919050565b60008115159050919050565b600073ffffffffffffffffffffffffffffffffffffffff82169050919050565b6000819050919050565b60006121b8826121bf565b9050919050565b60006121ca82612183565b9050919050565b60005b838110156121ef5780820151818401526020810190506121d4565b838111156121fe576000848401525b50505050565b7f4e487b7100000000000000000000000000000000000000000000000000000000600052601160045260246000fd5b7f4e487b7100000000000000000000000000000000000000000000000000000000600052601260045260246000fd5b6000601f19601f8301169050919050565b61227c81612165565b811461228757600080fd5b50565b61229381612177565b811461229e57600080fd5b50565b6122aa816121a3565b81146122b557600080fd5b5056fea26469706673582212201c125eb3d4a4fc4a591066e2e2e08cdb87a066551867bc51945ae972732afb3764736f6c63430008000033",
  "linkReferences": {},
  "deployedLinkReferences": {}
}