{
  "_format": "hh-sol-artifact-1",
  "contractName": "Marketplace",
  "sourceName": "contracts/Marketplace.sol",
  "abi": [
    {
      "inputs": [
        {
          "internalType": "address",
          "name": "erc20",
          "type": "address"
        },
        {
          "internalType": "address",
          "name": "erc721",
          "type": "address"
        },
        {
          "internalType": "address",
          "name": "_feeReceiver",
          "type": "address"
        }
      ],
      "stateMutability": "nonpayable",
      "type": "constructor"
    },
    {
      "anonymous": false,
      "inputs": [
        {
          "indexed": false,
          "internalType": "uint256",
          "name": "saleId",
          "type": "uint256"
        },
        {
          "indexed": false,
          "internalType": "uint256",
          "name": "tokenId",
          "type": "uint256"
        },
        {
          "indexed": false,
          "internalType": "address",
          "name": "seller",
          "type": "address"
        },
        {
          "indexed": false,
          "internalType": "address",
          "name": "buyer",
          "type": "address"
        },
        {
          "indexed": false,
          "internalType": "address",
          "name": "feeReceiver",
          "type": "address"
        },
        {
          "indexed": false,
          "internalType": "uint256",
          "name": "fee",
          "type": "uint256"
        },
        {
          "indexed": false,
          "internalType": "uint256",
          "name": "lastUpdated",
          "type": "uint256"
        }
      ],
      "name": "FeeTransfered",
      "type": "event"
    },
    {
      "anonymous": false,
      "inputs": [
        {
          "indexed": true,
          "internalType": "address",
          "name": "previousOwner",
          "type": "address"
        },
        {
          "indexed": true,
          "internalType": "address",
          "name": "newOwner",
          "type": "address"
        }
      ],
      "name": "OwnershipTransferred",
      "type": "event"
    },
    {
      "anonymous": false,
      "inputs": [
        {
          "indexed": true,
          "internalType": "uint256",
          "name": "saleId",
          "type": "uint256"
        },
        {
          "indexed": true,
          "internalType": "uint256",
          "name": "tokenId",
          "type": "uint256"
        },
        {
          "indexed": true,
          "internalType": "address",
          "name": "seller",
          "type": "address"
        },
        {
          "indexed": false,
          "internalType": "uint256",
          "name": "price",
          "type": "uint256"
        },
        {
          "indexed": false,
          "internalType": "uint256",
          "name": "lastUpdated",
          "type": "uint256"
        }
      ],
      "name": "SaleCanceled",
      "type": "event"
    },
    {
      "anonymous": false,
      "inputs": [
        {
          "indexed": true,
          "internalType": "uint256",
          "name": "saleId",
          "type": "uint256"
        },
        {
          "indexed": true,
          "internalType": "uint256",
          "name": "tokenId",
          "type": "uint256"
        },
        {
          "indexed": true,
          "internalType": "address",
          "name": "seller",
          "type": "address"
        },
        {
          "indexed": false,
          "internalType": "uint256",
          "name": "price",
          "type": "uint256"
        },
        {
          "indexed": false,
          "internalType": "bool",
          "name": "isSold",
          "type": "bool"
        },
        {
          "indexed": false,
          "internalType": "uint256",
          "name": "lastUpdated",
          "type": "uint256"
        }
      ],
      "name": "SaleCreated",
      "type": "event"
    },
    {
      "anonymous": false,
      "inputs": [
        {
          "indexed": true,
          "internalType": "uint256",
          "name": "saleId",
          "type": "uint256"
        },
        {
          "indexed": true,
          "internalType": "uint256",
          "name": "tokenId",
          "type": "uint256"
        },
        {
          "indexed": false,
          "internalType": "address",
          "name": "seller",
          "type": "address"
        },
        {
          "indexed": false,
          "internalType": "uint256",
          "name": "price",
          "type": "uint256"
        },
        {
          "indexed": false,
          "internalType": "bool",
          "name": "isSold",
          "type": "bool"
        },
        {
          "indexed": false,
          "internalType": "uint256",
          "name": "lastUpdated",
          "type": "uint256"
        }
      ],
      "name": "SaleSold",
      "type": "event"
    },
    {
      "anonymous": false,
      "inputs": [
        {
          "indexed": true,
          "internalType": "uint256",
          "name": "saleId",
          "type": "uint256"
        },
        {
          "indexed": true,
          "internalType": "uint256",
          "name": "tokenId",
          "type": "uint256"
        },
        {
          "indexed": true,
          "internalType": "address",
          "name": "seller",
          "type": "address"
        },
        {
          "indexed": false,
          "internalType": "uint256",
          "name": "price",
          "type": "uint256"
        },
        {
          "indexed": false,
          "internalType": "uint256",
          "name": "lastUpdated",
          "type": "uint256"
        }
      ],
      "name": "SaleUpdated",
      "type": "event"
    },
    {
      "inputs": [],
      "name": "bike",
      "outputs": [
        {
          "internalType": "contract IERC721",
          "name": "",
          "type": "address"
        }
      ],
      "stateMutability": "view",
      "type": "function"
    },
    {
      "inputs": [],
      "name": "busd",
      "outputs": [
        {
          "internalType": "contract IERC20",
          "name": "",
          "type": "address"
        }
      ],
      "stateMutability": "view",
      "type": "function"
    },
    {
      "inputs": [
        {
          "internalType": "uint256",
          "name": "saleId",
          "type": "uint256"
        }
      ],
      "name": "cancelSale",
      "outputs": [],
      "stateMutability": "nonpayable",
      "type": "function"
    },
    {
      "inputs": [
        {
          "internalType": "uint256",
          "name": "saleId",
          "type": "uint256"
        },
        {
          "internalType": "uint256",
          "name": "newPrice",
          "type": "uint256"
        }
      ],
      "name": "changeSalePrice",
      "outputs": [],
      "stateMutability": "nonpayable",
      "type": "function"
    },
    {
      "inputs": [
        {
          "internalType": "uint256",
          "name": "tokenId",
          "type": "uint256"
        },
        {
          "internalType": "uint256",
          "name": "price",
          "type": "uint256"
        }
      ],
      "name": "createSale",
      "outputs": [],
      "stateMutability": "nonpayable",
      "type": "function"
    },
    {
      "inputs": [],
      "name": "feePercentX10",
      "outputs": [
        {
          "internalType": "uint256",
          "name": "",
          "type": "uint256"
        }
      ],
      "stateMutability": "view",
      "type": "function"
    },
    {
      "inputs": [],
      "name": "feeReceiver",
      "outputs": [
        {
          "internalType": "address",
          "name": "",
          "type": "address"
        }
      ],
      "stateMutability": "view",
      "type": "function"
    },
    {
      "inputs": [
        {
          "internalType": "uint256",
          "name": "page",
          "type": "uint256"
        },
        {
          "internalType": "uint256",
          "name": "size",
          "type": "uint256"
        }
      ],
      "name": "getActiveSalesByPage",
      "outputs": [
        {
          "components": [
            {
              "internalType": "uint256",
              "name": "saleId",
              "type": "uint256"
            },
            {
              "internalType": "uint256",
              "name": "star",
              "type": "uint256"
            },
            {
              "internalType": "uint256",
              "name": "tokenId",
              "type": "uint256"
            },
            {
              "internalType": "address",
              "name": "seller",
              "type": "address"
            },
            {
              "internalType": "address",
              "name": "buyer",
              "type": "address"
            },
            {
              "internalType": "uint256",
              "name": "price",
              "type": "uint256"
            },
            {
              "internalType": "bool",
              "name": "isSold",
              "type": "bool"
            },
            {
              "internalType": "bool",
              "name": "isActive",
              "type": "bool"
            },
            {
              "internalType": "uint256",
              "name": "lastUpdated",
              "type": "uint256"
            }
          ],
          "internalType": "struct Marketplace.Sale[]",
          "name": "",
          "type": "tuple[]"
        }
      ],
      "stateMutability": "view",
      "type": "function"
    },
    {
      "inputs": [],
      "name": "getTotalSale",
      "outputs": [
        {
          "internalType": "uint256",
          "name": "",
          "type": "uint256"
        }
      ],
      "stateMutability": "view",
      "type": "function"
    },
    {
      "inputs": [],
      "name": "getUserCreatedSales",
      "outputs": [
        {
          "components": [
            {
              "internalType": "uint256",
              "name": "saleId",
              "type": "uint256"
            },
            {
              "internalType": "uint256",
              "name": "star",
              "type": "uint256"
            },
            {
              "internalType": "uint256",
              "name": "tokenId",
              "type": "uint256"
            },
            {
              "internalType": "address",
              "name": "seller",
              "type": "address"
            },
            {
              "internalType": "address",
              "name": "buyer",
              "type": "address"
            },
            {
              "internalType": "uint256",
              "name": "price",
              "type": "uint256"
            },
            {
              "internalType": "bool",
              "name": "isSold",
              "type": "bool"
            },
            {
              "internalType": "bool",
              "name": "isActive",
              "type": "bool"
            },
            {
              "internalType": "uint256",
              "name": "lastUpdated",
              "type": "uint256"
            }
          ],
          "internalType": "struct Marketplace.Sale[]",
          "name": "",
          "type": "tuple[]"
        }
      ],
      "stateMutability": "view",
      "type": "function"
    },
    {
      "inputs": [],
      "name": "getUserNFTs",
      "outputs": [
        {
          "components": [
            {
              "internalType": "uint256",
              "name": "tokenId",
              "type": "uint256"
            },
            {
              "internalType": "address",
              "name": "contractAddress",
              "type": "address"
            },
            {
              "internalType": "string",
              "name": "URI",
              "type": "string"
            },
            {
              "internalType": "uint256",
              "name": "star",
              "type": "uint256"
            }
          ],
          "internalType": "struct Marketplace.TokenInfo[]",
          "name": "",
          "type": "tuple[]"
        }
      ],
      "stateMutability": "view",
      "type": "function"
    },
    {
      "inputs": [],
      "name": "getUserPurchasedSales",
      "outputs": [
        {
          "components": [
            {
              "internalType": "uint256",
              "name": "saleId",
              "type": "uint256"
            },
            {
              "internalType": "uint256",
              "name": "star",
              "type": "uint256"
            },
            {
              "internalType": "uint256",
              "name": "tokenId",
              "type": "uint256"
            },
            {
              "internalType": "address",
              "name": "seller",
              "type": "address"
            },
            {
              "internalType": "address",
              "name": "buyer",
              "type": "address"
            },
            {
              "internalType": "uint256",
              "name": "price",
              "type": "uint256"
            },
            {
              "internalType": "bool",
              "name": "isSold",
              "type": "bool"
            },
            {
              "internalType": "bool",
              "name": "isActive",
              "type": "bool"
            },
            {
              "internalType": "uint256",
              "name": "lastUpdated",
              "type": "uint256"
            }
          ],
          "internalType": "struct Marketplace.Sale[]",
          "name": "",
          "type": "tuple[]"
        }
      ],
      "stateMutability": "view",
      "type": "function"
    },
    {
      "inputs": [
        {
          "internalType": "address",
          "name": "operator",
          "type": "address"
        },
        {
          "internalType": "address",
          "name": "from",
          "type": "address"
        },
        {
          "internalType": "uint256",
          "name": "tokenId",
          "type": "uint256"
        },
        {
          "internalType": "bytes",
          "name": "data",
          "type": "bytes"
        }
      ],
      "name": "onERC721Received",
      "outputs": [
        {
          "internalType": "bytes4",
          "name": "",
          "type": "bytes4"
        }
      ],
      "stateMutability": "pure",
      "type": "function"
    },
    {
      "inputs": [],
      "name": "owner",
      "outputs": [
        {
          "internalType": "address",
          "name": "",
          "type": "address"
        }
      ],
      "stateMutability": "view",
      "type": "function"
    },
    {
      "inputs": [
        {
          "internalType": "uint256",
          "name": "saleId",
          "type": "uint256"
        }
      ],
      "name": "purchaseSale",
      "outputs": [],
      "stateMutability": "nonpayable",
      "type": "function"
    },
    {
      "inputs": [],
      "name": "renounceOwnership",
      "outputs": [],
      "stateMutability": "nonpayable",
      "type": "function"
    },
    {
      "inputs": [
        {
          "internalType": "uint256",
          "name": "newFee",
          "type": "uint256"
        }
      ],
      "name": "setFee",
      "outputs": [],
      "stateMutability": "nonpayable",
      "type": "function"
    },
    {
      "inputs": [
        {
          "internalType": "address",
          "name": "newFeeReceiver",
          "type": "address"
        }
      ],
      "name": "setFeeReceiver",
      "outputs": [],
      "stateMutability": "nonpayable",
      "type": "function"
    },
    {
      "inputs": [
        {
          "internalType": "address",
          "name": "newOwner",
          "type": "address"
        }
      ],
      "name": "transferOwnership",
      "outputs": [],
      "stateMutability": "nonpayable",
      "type": "function"
    }
  ],
  "bytecode": "0x60806040523480156200001157600080fd5b5060405162003e7b38038062003e7b833981810160405281019062000037919062000218565b60016000819055506200005f620000536200013360201b60201c565b6200013b60201b60201c565b82600760006101000a81548173ffffffffffffffffffffffffffffffffffffffff021916908373ffffffffffffffffffffffffffffffffffffffff16021790555081600860006101000a81548173ffffffffffffffffffffffffffffffffffffffff021916908373ffffffffffffffffffffffffffffffffffffffff160217905550603260058190555080600660006101000a81548173ffffffffffffffffffffffffffffffffffffffff021916908373ffffffffffffffffffffffffffffffffffffffff160217905550505050620002bc565b600033905090565b6000600160009054906101000a900473ffffffffffffffffffffffffffffffffffffffff16905081600160006101000a81548173ffffffffffffffffffffffffffffffffffffffff021916908373ffffffffffffffffffffffffffffffffffffffff1602179055508173ffffffffffffffffffffffffffffffffffffffff168173ffffffffffffffffffffffffffffffffffffffff167f8be0079c531659141344cd1fd0a4f28419497f9722a3daafe3b4186f6b6457e060405160405180910390a35050565b6000815190506200021281620002a2565b92915050565b6000806000606084860312156200022e57600080fd5b60006200023e8682870162000201565b9350506020620002518682870162000201565b9250506040620002648682870162000201565b9150509250925092565b60006200027b8262000282565b9050919050565b600073ffffffffffffffffffffffffffffffffffffffff82169050919050565b620002ad816200026e565b8114620002b957600080fd5b50565b613baf80620002cc6000396000f3fe608060405234801561001057600080fd5b50600436106101215760003560e01c80638da5cb5b116100ad578063efdcd97411610071578063efdcd974146102d2578063f2fde38b146102ee578063f47cf5da1461030a578063f8bee59214610326578063fdc5ab8e1461034457610121565b80638da5cb5b14610240578063b3f006741461025e578063bd94b0051461027c578063c05a6a2d14610298578063c82e474b146102b657610121565b8063355ddccf116100f4578063355ddccf146101b05780633ca5b234146101e05780636019061b146101fe57806369fe0e2d1461021a578063715018a61461023657610121565b80630974ed4b14610126578063150b7a02146101445780631f2475bd1461017457806321b7e7e114610192575b600080fd5b61012e610362565b60405161013b91906133ea565b60405180910390f35b61015e60048036038101906101599190612997565b6106af565b60405161016b919061342e565b60405180910390f35b61017c6106c4565b604051610189919061365f565b60405180910390f35b61019a6106fd565b6040516101a791906133ea565b60405180910390f35b6101ca60048036038101906101c59190612ad3565b610a4a565b6040516101d791906133ea565b60405180910390f35b6101e8610e50565b6040516101f59190613449565b60405180910390f35b61021860048036038101906102139190612ad3565b610e76565b005b610234600480360381019061022f9190612a81565b611368565b005b61023e6113ee565b005b610248611476565b604051610255919061332a565b60405180910390f35b6102666114a0565b604051610273919061332a565b60405180910390f35b61029660048036038101906102919190612a81565b6114c6565b005b6102a0611768565b6040516102ad919061365f565b60405180910390f35b6102d060048036038101906102cb9190612ad3565b61176e565b005b6102ec60048036038101906102e79190612945565b611966565b005b61030860048036038101906103039190612945565b611a96565b005b610324600480360381019061031f9190612a81565b611b8e565b005b61032e61221e565b60405161033b9190613464565b60405180910390f35b61034c612244565b604051610359919061340c565b60405180910390f35b606060006103706002612652565b90506000806000600190505b838111610410573373ffffffffffffffffffffffffffffffffffffffff166009600083815260200190815260200160002060040160009054906101000a900473ffffffffffffffffffffffffffffffffffffffff1673ffffffffffffffffffffffffffffffffffffffff1614156103fd576001836103fa9190613849565b92505b808061040890613a4d565b91505061037c565b5060008267ffffffffffffffff811115610453577f4e487b7100000000000000000000000000000000000000000000000000000000600052604160045260246000fd5b60405190808252806020026020018201604052801561048c57816020015b610479612770565b8152602001906001900390816104715790505b5090506000600190505b8481116106a4573373ffffffffffffffffffffffffffffffffffffffff166009600083815260200190815260200160002060040160009054906101000a900473ffffffffffffffffffffffffffffffffffffffff1673ffffffffffffffffffffffffffffffffffffffff16141561069157600060096000838152602001908152602001600020905080604051806101200160405290816000820154815260200160018201548152602001600282015481526020016003820160009054906101000a900473ffffffffffffffffffffffffffffffffffffffff1673ffffffffffffffffffffffffffffffffffffffff1673ffffffffffffffffffffffffffffffffffffffff1681526020016004820160009054906101000a900473ffffffffffffffffffffffffffffffffffffffff1673ffffffffffffffffffffffffffffffffffffffff1673ffffffffffffffffffffffffffffffffffffffff168152602001600582015481526020016006820160009054906101000a900460ff161515151581526020016006820160019054906101000a900460ff1615151515815260200160078201548152505083858061064b90613a4d565b965081518110610684577f4e487b7100000000000000000000000000000000000000000000000000000000600052603260045260246000fd5b6020026020010181905250505b808061069c90613a4d565b915050610496565b508094505050505090565b600063150b7a0260e01b905095945050505050565b60006106d06003612652565b6106da6004612652565b6106e46002612652565b6106ee919061392a565b6106f8919061392a565b905090565b6060600061070b6002612652565b90506000806000600190505b8381116107ab573373ffffffffffffffffffffffffffffffffffffffff166009600083815260200190815260200160002060030160009054906101000a900473ffffffffffffffffffffffffffffffffffffffff1673ffffffffffffffffffffffffffffffffffffffff161415610798576001836107959190613849565b92505b80806107a390613a4d565b915050610717565b5060008267ffffffffffffffff8111156107ee577f4e487b7100000000000000000000000000000000000000000000000000000000600052604160045260246000fd5b60405190808252806020026020018201604052801561082757816020015b610814612770565b81526020019060019003908161080c5790505b5090506000600190505b848111610a3f573373ffffffffffffffffffffffffffffffffffffffff166009600083815260200190815260200160002060030160009054906101000a900473ffffffffffffffffffffffffffffffffffffffff1673ffffffffffffffffffffffffffffffffffffffff161415610a2c57600060096000838152602001908152602001600020905080604051806101200160405290816000820154815260200160018201548152602001600282015481526020016003820160009054906101000a900473ffffffffffffffffffffffffffffffffffffffff1673ffffffffffffffffffffffffffffffffffffffff1673ffffffffffffffffffffffffffffffffffffffff1681526020016004820160009054906101000a900473ffffffffffffffffffffffffffffffffffffffff1673ffffffffffffffffffffffffffffffffffffffff1673ffffffffffffffffffffffffffffffffffffffff168152602001600582015481526020016006820160009054906101000a900460ff161515151581526020016006820160019054906101000a900460ff161515151581526020016007820154815250508385806109e690613a4d565b965081518110610a1f577f4e487b7100000000000000000000000000000000000000000000000000000000600052603260045260246000fd5b6020026020010181905250505b8080610a3790613a4d565b915050610831565b508094505050505090565b606060008310158015610a5d5750600082115b610a9c576040517f08c379a0000000000000000000000000000000000000000000000000000000008152600401610a93906135df565b60405180910390fd5b6000610aa86002612652565b90506000610ab66003612652565b610ac06004612652565b83610acb919061392a565b610ad5919061392a565b90508385610ae391906138d0565b811015610b6e57600067ffffffffffffffff811115610b2b577f4e487b7100000000000000000000000000000000000000000000000000000000600052604160045260246000fd5b604051908082528060200260200182016040528015610b6457816020015b610b51612770565b815260200190600190039081610b495790505b5092505050610e4a565b6000806000838760018a610b829190613849565b610b8c91906138d0565b11610b975786610baf565b8688610ba391906138d0565b84610bae919061392a565b5b905060008167ffffffffffffffff811115610bf3577f4e487b7100000000000000000000000000000000000000000000000000000000600052604160045260246000fd5b604051908082528060200260200182016040528015610c2c57816020015b610c19612770565b815260200190600190039081610c115790505b5090506000600190505b868111610e3f576009600082815260200190815260200160002060060160019054906101000a900460ff1615610e2c578380610c7190613a4d565b945050888a610c8091906138d0565b841115610e2b57600060096000838152602001908152602001600020905080604051806101200160405290816000820154815260200160018201548152602001600282015481526020016003820160009054906101000a900473ffffffffffffffffffffffffffffffffffffffff1673ffffffffffffffffffffffffffffffffffffffff1673ffffffffffffffffffffffffffffffffffffffff1681526020016004820160009054906101000a900473ffffffffffffffffffffffffffffffffffffffff1673ffffffffffffffffffffffffffffffffffffffff1673ffffffffffffffffffffffffffffffffffffffff168152602001600582015481526020016006820160009054906101000a900460ff161515151581526020016006820160019054906101000a900460ff16151515158152602001600782015481525050838781518110610df8577f4e487b7100000000000000000000000000000000000000000000000000000000600052603260045260246000fd5b602002602001018190525060018a610e10919061392a565b8680610e1b90613a4d565b97501415610e295750610e3f565b505b5b8080610e3790613a4d565b915050610c36565b508096505050505050505b92915050565b600760009054906101000a900473ffffffffffffffffffffffffffffffffffffffff1681565b60026000541415610ebc576040517f08c379a0000000000000000000000000000000000000000000000000000000008152600401610eb39061363f565b60405180910390fd5b600260008190555060008111610f07576040517f08c379a0000000000000000000000000000000000000000000000000000000008152600401610efe9061347f565b60405180910390fd5b3373ffffffffffffffffffffffffffffffffffffffff16600860009054906101000a900473ffffffffffffffffffffffffffffffffffffffff1673ffffffffffffffffffffffffffffffffffffffff16636352211e846040518263ffffffff1660e01b8152600401610f79919061365f565b60206040518083038186803b158015610f9157600080fd5b505afa158015610fa5573d6000803e3d6000fd5b505050506040513d601f19601f82011682018060405250810190610fc9919061296e565b73ffffffffffffffffffffffffffffffffffffffff161461101f576040517f08c379a00000000000000000000000000000000000000000000000000000000081526004016110169061357f565b60405180910390fd5b6110296002612660565b60006110356002612652565b9050600860009054906101000a900473ffffffffffffffffffffffffffffffffffffffff1673ffffffffffffffffffffffffffffffffffffffff166342842e0e3330866040518463ffffffff1660e01b815260040161109693929190613345565b600060405180830381600087803b1580156110b057600080fd5b505af11580156110c4573d6000803e3d6000fd5b505050506000600860009054906101000a900473ffffffffffffffffffffffffffffffffffffffff1673ffffffffffffffffffffffffffffffffffffffff166394f13f4a856040518263ffffffff1660e01b8152600401611125919061365f565b60a06040518083038186803b15801561113d57600080fd5b505afa158015611151573d6000803e3d6000fd5b505050506040513d601f19601f820116820180604052508101906111759190612b0f565b5050505090506040518061012001604052808381526020018281526020018581526020013373ffffffffffffffffffffffffffffffffffffffff168152602001600073ffffffffffffffffffffffffffffffffffffffff168152602001848152602001600015158152602001600115158152602001428152506009600084815260200190815260200160002060008201518160000155602082015181600101556040820151816002015560608201518160030160006101000a81548173ffffffffffffffffffffffffffffffffffffffff021916908373ffffffffffffffffffffffffffffffffffffffff16021790555060808201518160040160006101000a81548173ffffffffffffffffffffffffffffffffffffffff021916908373ffffffffffffffffffffffffffffffffffffffff16021790555060a0820151816005015560c08201518160060160006101000a81548160ff02191690831515021790555060e08201518160060160016101000a81548160ff02191690831515021790555061010082015181600701559050503373ffffffffffffffffffffffffffffffffffffffff1684837fd035e36eed79dc051f4a1821b06d9defcfe2a74be16adb4991291117112a50f0866000426040516113529392919061367a565b60405180910390a4505060016000819055505050565b611370612676565b73ffffffffffffffffffffffffffffffffffffffff1661138e611476565b73ffffffffffffffffffffffffffffffffffffffff16146113e4576040517f08c379a00000000000000000000000000000000000000000000000000000000081526004016113db906135bf565b60405180910390fd5b8060058190555050565b6113f6612676565b73ffffffffffffffffffffffffffffffffffffffff16611414611476565b73ffffffffffffffffffffffffffffffffffffffff161461146a576040517f08c379a0000000000000000000000000000000000000000000000000000000008152600401611461906135bf565b60405180910390fd5b611474600061267e565b565b6000600160009054906101000a900473ffffffffffffffffffffffffffffffffffffffff16905090565b600660009054906101000a900473ffffffffffffffffffffffffffffffffffffffff1681565b6002600054141561150c576040517f08c379a00000000000000000000000000000000000000000000000000000000081526004016115039061363f565b60405180910390fd5b6002600081905550806009600082815260200190815260200160002060030160009054906101000a900473ffffffffffffffffffffffffffffffffffffffff1673ffffffffffffffffffffffffffffffffffffffff163373ffffffffffffffffffffffffffffffffffffffff16146115b9576040517f08c379a00000000000000000000000000000000000000000000000000000000081526004016115b0906134ff565b60405180910390fd5b60006009600084815260200190815260200160002090508060060160019054906101000a900460ff16611621576040517f08c379a00000000000000000000000000000000000000000000000000000000081526004016116189061349f565b60405180910390fd5b600860009054906101000a900473ffffffffffffffffffffffffffffffffffffffff1673ffffffffffffffffffffffffffffffffffffffff166323b872dd303384600201546040518463ffffffff1660e01b815260040161168493929190613345565b600060405180830381600087803b15801561169e57600080fd5b505af11580156116b2573d6000803e3d6000fd5b5050505060008160060160016101000a81548160ff0219169083151502179055506116dd6004612660565b8060030160009054906101000a900473ffffffffffffffffffffffffffffffffffffffff1673ffffffffffffffffffffffffffffffffffffffff168160020154847f9cf3aa3c21065a435a0fd60111abd0ae5148ec0805525a8ade76e8c0632b89cd8460050154426040516117539291906136b1565b60405180910390a45050600160008190555050565b60055481565b816009600082815260200190815260200160002060030160009054906101000a900473ffffffffffffffffffffffffffffffffffffffff1673ffffffffffffffffffffffffffffffffffffffff163373ffffffffffffffffffffffffffffffffffffffff1614611813576040517f08c379a000000000000000000000000000000000000000000000000000000000815260040161180a906134ff565b60405180910390fd5b60006009600085815260200190815260200160002090508060060160019054906101000a900460ff16801561185757508060060160009054906101000a900460ff16155b611896576040517f08c379a000000000000000000000000000000000000000000000000000000000815260040161188d9061355f565b60405180910390fd5b600083116118d9576040517f08c379a00000000000000000000000000000000000000000000000000000000081526004016118d09061359f565b60405180910390fd5b8281600501819055508060030160009054906101000a900473ffffffffffffffffffffffffffffffffffffffff1673ffffffffffffffffffffffffffffffffffffffff168160020154857fb5ff818b1e47858abe4b8dbeee7509d67cc6b3e461dc17faf8340a2defdaa8d78460050154426040516119589291906136b1565b60405180910390a450505050565b61196e612676565b73ffffffffffffffffffffffffffffffffffffffff1661198c611476565b73ffffffffffffffffffffffffffffffffffffffff16146119e2576040517f08c379a00000000000000000000000000000000000000000000000000000000081526004016119d9906135bf565b60405180910390fd5b600073ffffffffffffffffffffffffffffffffffffffff168173ffffffffffffffffffffffffffffffffffffffff161415611a52576040517f08c379a0000000000000000000000000000000000000000000000000000000008152600401611a499061361f565b60405180910390fd5b80600660006101000a81548173ffffffffffffffffffffffffffffffffffffffff021916908373ffffffffffffffffffffffffffffffffffffffff16021790555050565b611a9e612676565b73ffffffffffffffffffffffffffffffffffffffff16611abc611476565b73ffffffffffffffffffffffffffffffffffffffff1614611b12576040517f08c379a0000000000000000000000000000000000000000000000000000000008152600401611b09906135bf565b60405180910390fd5b600073ffffffffffffffffffffffffffffffffffffffff168173ffffffffffffffffffffffffffffffffffffffff161415611b82576040517f08c379a0000000000000000000000000000000000000000000000000000000008152600401611b79906134bf565b60405180910390fd5b611b8b8161267e565b50565b60026000541415611bd4576040517f08c379a0000000000000000000000000000000000000000000000000000000008152600401611bcb9061363f565b60405180910390fd5b60026000819055506000600960008381526020019081526020016000209050600081600501549050600115158260060160019054906101000a900460ff161515148015611c365750600015158260060160009054906101000a900460ff161515145b611c75576040517f08c379a0000000000000000000000000000000000000000000000000000000008152600401611c6c906134df565b60405180910390fd5b8160030160009054906101000a900473ffffffffffffffffffffffffffffffffffffffff1673ffffffffffffffffffffffffffffffffffffffff163373ffffffffffffffffffffffffffffffffffffffff161415611d08576040517f08c379a0000000000000000000000000000000000000000000000000000000008152600401611cff9061351f565b60405180910390fd5b6000600760009054906101000a900473ffffffffffffffffffffffffffffffffffffffff1673ffffffffffffffffffffffffffffffffffffffff166323b872dd33600660009054906101000a900473ffffffffffffffffffffffffffffffffffffffff16611d956103e8611d876005548961274490919063ffffffff16565b61275a90919063ffffffff16565b6040518463ffffffff1660e01b8152600401611db393929190613345565b602060405180830381600087803b158015611dcd57600080fd5b505af1158015611de1573d6000803e3d6000fd5b505050506040513d601f19601f82011682018060405250810190611e059190612a17565b905080611e47576040517f08c379a0000000000000000000000000000000000000000000000000000000008152600401611e3e906135ff565b60405180910390fd5b6000600760009054906101000a900473ffffffffffffffffffffffffffffffffffffffff1673ffffffffffffffffffffffffffffffffffffffff166323b872dd338660030160009054906101000a900473ffffffffffffffffffffffffffffffffffffffff16611ee36103e8611ed56005546103e8611ec6919061392a565b8a61274490919063ffffffff16565b61275a90919063ffffffff16565b6040518463ffffffff1660e01b8152600401611f0193929190613345565b602060405180830381600087803b158015611f1b57600080fd5b505af1158015611f2f573d6000803e3d6000fd5b505050506040513d601f19601f82011682018060405250810190611f539190612a17565b905080611f95576040517f08c379a0000000000000000000000000000000000000000000000000000000008152600401611f8c9061353f565b60405180910390fd5b600084600201549050600860009054906101000a900473ffffffffffffffffffffffffffffffffffffffff1673ffffffffffffffffffffffffffffffffffffffff166323b872dd3033846040518463ffffffff1660e01b8152600401611ffd93929190613345565b600060405180830381600087803b15801561201757600080fd5b505af115801561202b573d6000803e3d6000fd5b50505050600042905060018660060160006101000a81548160ff02191690831515021790555060008660060160016101000a81548160ff021916908315150217905550338660040160006101000a81548173ffffffffffffffffffffffffffffffffffffffff021916908373ffffffffffffffffffffffffffffffffffffffff1602179055508086600701819055506120c46003612660565b81877fa1ffbf809f5113e0312f081bb16d51434d610320b7ea557250fdcbded2fbd4478860030160009054906101000a900473ffffffffffffffffffffffffffffffffffffffff16888a60060160009054906101000a900460ff168660405161213094939291906133a5565b60405180910390a37f7c8ecd76e70d007ea55274b3222da38779706d055ca4fe9a1e61dfc2a7e0c1e387838860030160009054906101000a900473ffffffffffffffffffffffffffffffffffffffff168960040160009054906101000a900473ffffffffffffffffffffffffffffffffffffffff16600660009054906101000a900473ffffffffffffffffffffffffffffffffffffffff166121f16103e86121e36005548e61274490919063ffffffff16565b61275a90919063ffffffff16565b8760405161220597969594939291906136da565b60405180910390a1505050505050600160008190555050565b600860009054906101000a900473ffffffffffffffffffffffffffffffffffffffff1681565b60606000600860009054906101000a900473ffffffffffffffffffffffffffffffffffffffff1673ffffffffffffffffffffffffffffffffffffffff166370a08231336040518263ffffffff1660e01b81526004016122a3919061332a565b60206040518083038186803b1580156122bb57600080fd5b505afa1580156122cf573d6000803e3d6000fd5b505050506040513d601f19601f820116820180604052508101906122f39190612aaa565b905060008167ffffffffffffffff811115612337577f4e487b7100000000000000000000000000000000000000000000000000000000600052604160045260246000fd5b60405190808252806020026020018201604052801561237057816020015b61235d6127ec565b8152602001906001900390816123555790505b50905060005b82811015612649576000600860009054906101000a900473ffffffffffffffffffffffffffffffffffffffff1673ffffffffffffffffffffffffffffffffffffffff16632f745c5933846040518363ffffffff1660e01b81526004016123dd92919061337c565b60206040518083038186803b1580156123f557600080fd5b505afa158015612409573d6000803e3d6000fd5b505050506040513d601f19601f8201168201806040525081019061242d9190612aaa565b90506000600860009054906101000a900473ffffffffffffffffffffffffffffffffffffffff1673ffffffffffffffffffffffffffffffffffffffff1663c87b56dd836040518263ffffffff1660e01b815260040161248c919061365f565b60006040518083038186803b1580156124a457600080fd5b505afa1580156124b8573d6000803e3d6000fd5b505050506040513d6000823e3d601f19601f820116820180604052508101906124e19190612a40565b90506000600860009054906101000a900473ffffffffffffffffffffffffffffffffffffffff1673ffffffffffffffffffffffffffffffffffffffff166394f13f4a846040518263ffffffff1660e01b8152600401612540919061365f565b60a06040518083038186803b15801561255857600080fd5b505afa15801561256c573d6000803e3d6000fd5b505050506040513d601f19601f820116820180604052508101906125909190612b0f565b5050505090506040518060800160405280848152602001600860009054906101000a900473ffffffffffffffffffffffffffffffffffffffff1673ffffffffffffffffffffffffffffffffffffffff16815260200183815260200182815250858581518110612628577f4e487b7100000000000000000000000000000000000000000000000000000000600052603260045260246000fd5b6020026020010181905250505050808061264190613a4d565b915050612376565b50809250505090565b600081600001549050919050565b6001816000016000828254019250508190555050565b600033905090565b6000600160009054906101000a900473ffffffffffffffffffffffffffffffffffffffff16905081600160006101000a81548173ffffffffffffffffffffffffffffffffffffffff021916908373ffffffffffffffffffffffffffffffffffffffff1602179055508173ffffffffffffffffffffffffffffffffffffffff168173ffffffffffffffffffffffffffffffffffffffff167f8be0079c531659141344cd1fd0a4f28419497f9722a3daafe3b4186f6b6457e060405160405180910390a35050565b6000818361275291906138d0565b905092915050565b60008183612768919061389f565b905092915050565b604051806101200160405280600081526020016000815260200160008152602001600073ffffffffffffffffffffffffffffffffffffffff168152602001600073ffffffffffffffffffffffffffffffffffffffff16815260200160008152602001600015158152602001600015158152602001600081525090565b604051806080016040528060008152602001600073ffffffffffffffffffffffffffffffffffffffff16815260200160608152602001600081525090565b600061283d6128388461377a565b613749565b90508281526020810184848401111561285557600080fd5b612860848285613a1a565b509392505050565b60008135905061287781613b34565b92915050565b60008151905061288c81613b34565b92915050565b6000815190506128a181613b4b565b92915050565b60008083601f8401126128b957600080fd5b8235905067ffffffffffffffff8111156128d257600080fd5b6020830191508360018202830111156128ea57600080fd5b9250929050565b600082601f83011261290257600080fd5b815161291284826020860161282a565b91505092915050565b60008135905061292a81613b62565b92915050565b60008151905061293f81613b62565b92915050565b60006020828403121561295757600080fd5b600061296584828501612868565b91505092915050565b60006020828403121561298057600080fd5b600061298e8482850161287d565b91505092915050565b6000806000806000608086880312156129af57600080fd5b60006129bd88828901612868565b95505060206129ce88828901612868565b94505060406129df8882890161291b565b935050606086013567ffffffffffffffff8111156129fc57600080fd5b612a08888289016128a7565b92509250509295509295909350565b600060208284031215612a2957600080fd5b6000612a3784828501612892565b91505092915050565b600060208284031215612a5257600080fd5b600082015167ffffffffffffffff811115612a6c57600080fd5b612a78848285016128f1565b91505092915050565b600060208284031215612a9357600080fd5b6000612aa18482850161291b565b91505092915050565b600060208284031215612abc57600080fd5b6000612aca84828501612930565b91505092915050565b60008060408385031215612ae657600080fd5b6000612af48582860161291b565b9250506020612b058582860161291b565b9150509250929050565b600080600080600060a08688031215612b2757600080fd5b6000612b3588828901612930565b9550506020612b4688828901612930565b9450506040612b5788828901612930565b9350506060612b6888828901612930565b9250506080612b7988828901612930565b9150509295509295909350565b6000612b9283836131f2565b6101208301905092915050565b6000612bab83836132a9565b905092915050565b612bbc8161395e565b82525050565b612bcb8161395e565b82525050565b6000612bdc826137ca565b612be68185613805565b9350612bf1836137aa565b8060005b83811015612c22578151612c098882612b86565b9750612c14836137eb565b925050600181019050612bf5565b5085935050505092915050565b6000612c3a826137d5565b612c448185613816565b935083602082028501612c56856137ba565b8060005b85811015612c925784840389528151612c738582612b9f565b9450612c7e836137f8565b925060208a01995050600181019050612c5a565b50829750879550505050505092915050565b612cad81613970565b82525050565b612cbc81613970565b82525050565b612ccb8161397c565b82525050565b612cda816139d2565b82525050565b612ce9816139f6565b82525050565b6000612cfa826137e0565b612d048185613827565b9350612d14818560208601613a1a565b612d1d81613b23565b840191505092915050565b6000612d35602883613838565b91507f63726561746553616c653a205072696365206d757374206265206174206c656160008301527f73742031207765690000000000000000000000000000000000000000000000006020830152604082019050919050565b6000612d9b601b83613838565b91507f63616e63656c53616c653a2053616c652077617320656e6465642e00000000006000830152602082019050919050565b6000612ddb602683613838565b91507f4f776e61626c653a206e6577206f776e657220697320746865207a65726f206160008301527f64647265737300000000000000000000000000000000000000000000000000006020830152604082019050919050565b6000612e41601983613838565b91507f70757263686173653a2053616c652077617320656e6465642e000000000000006000830152602082019050919050565b6000612e81601383613838565b91507f496e76616c69642073616c652073656c6c6572000000000000000000000000006000830152602082019050919050565b6000612ec1602b83613838565b91507f707572636861736553616c653a2042757965722069732073656c6c6572206f6660008301527f2074686973206974656d2e0000000000000000000000000000000000000000006020830152604082019050919050565b6000612f27601883613838565b91507f4661696c656420746f207472616e7366657220746f6b656e00000000000000006000830152602082019050919050565b6000612f67602083613838565b91507f6368616e676553616c6550726963653a2053616c652077617320656e6465642e6000830152602082019050919050565b6000612fa7602583613838565b91507f63726561746553616c653a20596f7520646f206e6f74206f776e20746869732060008301527f746f6b656e0000000000000000000000000000000000000000000000000000006020830152604082019050919050565b600061300d602d83613838565b91507f6368616e676553616c6550726963653a205072696365206d757374206265206160008301527f74206c65617374203120776569000000000000000000000000000000000000006020830152604082019050919050565b6000613073602083613838565b91507f4f776e61626c653a2063616c6c6572206973206e6f7420746865206f776e65726000830152602082019050919050565b60006130b3603a83613838565b91507f67657441637469766553616c65734279506167653a205061676520616e64207360008301527f697a65206d7573742062652067726561746572207468616e20300000000000006020830152604082019050919050565b6000613119602483613838565b91507f707572636861736553616c653a204661696c656420746f207472616e7366657260008301527f20666565000000000000000000000000000000000000000000000000000000006020830152604082019050919050565b600061317f601c83613838565b91507f73657446656552656365697665723a206e756c6c2061646472657373000000006000830152602082019050919050565b60006131bf601f83613838565b91507f5265656e7472616e637947756172643a207265656e7472616e742063616c6c006000830152602082019050919050565b61012082016000820151613209600085018261330c565b50602082015161321c602085018261330c565b50604082015161322f604085018261330c565b5060608201516132426060850182612bb3565b5060808201516132556080850182612bb3565b5060a082015161326860a085018261330c565b5060c082015161327b60c0850182612ca4565b5060e082015161328e60e0850182612ca4565b506101008201516132a361010085018261330c565b50505050565b60006080830160008301516132c1600086018261330c565b5060208301516132d46020860182612bb3565b50604083015184820360408601526132ec8282612cef565b9150506060830151613301606086018261330c565b508091505092915050565b613315816139c8565b82525050565b613324816139c8565b82525050565b600060208201905061333f6000830184612bc2565b92915050565b600060608201905061335a6000830186612bc2565b6133676020830185612bc2565b613374604083018461331b565b949350505050565b60006040820190506133916000830185612bc2565b61339e602083018461331b565b9392505050565b60006080820190506133ba6000830187612bc2565b6133c7602083018661331b565b6133d46040830185612cb3565b6133e1606083018461331b565b95945050505050565b600060208201905081810360008301526134048184612bd1565b905092915050565b600060208201905081810360008301526134268184612c2f565b905092915050565b60006020820190506134436000830184612cc2565b92915050565b600060208201905061345e6000830184612cd1565b92915050565b60006020820190506134796000830184612ce0565b92915050565b6000602082019050818103600083015261349881612d28565b9050919050565b600060208201905081810360008301526134b881612d8e565b9050919050565b600060208201905081810360008301526134d881612dce565b9050919050565b600060208201905081810360008301526134f881612e34565b9050919050565b6000602082019050818103600083015261351881612e74565b9050919050565b6000602082019050818103600083015261353881612eb4565b9050919050565b6000602082019050818103600083015261355881612f1a565b9050919050565b6000602082019050818103600083015261357881612f5a565b9050919050565b6000602082019050818103600083015261359881612f9a565b9050919050565b600060208201905081810360008301526135b881613000565b9050919050565b600060208201905081810360008301526135d881613066565b9050919050565b600060208201905081810360008301526135f8816130a6565b9050919050565b600060208201905081810360008301526136188161310c565b9050919050565b6000602082019050818103600083015261363881613172565b9050919050565b60006020820190508181036000830152613658816131b2565b9050919050565b6000602082019050613674600083018461331b565b92915050565b600060608201905061368f600083018661331b565b61369c6020830185612cb3565b6136a9604083018461331b565b949350505050565b60006040820190506136c6600083018561331b565b6136d3602083018461331b565b9392505050565b600060e0820190506136ef600083018a61331b565b6136fc602083018961331b565b6137096040830188612bc2565b6137166060830187612bc2565b6137236080830186612bc2565b61373060a083018561331b565b61373d60c083018461331b565b98975050505050505050565b6000604051905081810181811067ffffffffffffffff821117156137705761376f613af4565b5b8060405250919050565b600067ffffffffffffffff82111561379557613794613af4565b5b601f19601f8301169050602081019050919050565b6000819050602082019050919050565b6000819050602082019050919050565b600081519050919050565b600081519050919050565b600081519050919050565b6000602082019050919050565b6000602082019050919050565b600082825260208201905092915050565b600082825260208201905092915050565b600082825260208201905092915050565b600082825260208201905092915050565b6000613854826139c8565b915061385f836139c8565b9250827fffffffffffffffffffffffffffffffffffffffffffffffffffffffffffffffff0382111561389457613893613a96565b5b828201905092915050565b60006138aa826139c8565b91506138b5836139c8565b9250826138c5576138c4613ac5565b5b828204905092915050565b60006138db826139c8565b91506138e6836139c8565b9250817fffffffffffffffffffffffffffffffffffffffffffffffffffffffffffffffff048311821515161561391f5761391e613a96565b5b828202905092915050565b6000613935826139c8565b9150613940836139c8565b92508282101561395357613952613a96565b5b828203905092915050565b6000613969826139a8565b9050919050565b60008115159050919050565b60007fffffffff0000000000000000000000000000000000000000000000000000000082169050919050565b600073ffffffffffffffffffffffffffffffffffffffff82169050919050565b6000819050919050565b60006139dd826139e4565b9050919050565b60006139ef826139a8565b9050919050565b6000613a0182613a08565b9050919050565b6000613a13826139a8565b9050919050565b60005b83811015613a38578082015181840152602081019050613a1d565b83811115613a47576000848401525b50505050565b6000613a58826139c8565b91507fffffffffffffffffffffffffffffffffffffffffffffffffffffffffffffffff821415613a8b57613a8a613a96565b5b600182019050919050565b7f4e487b7100000000000000000000000000000000000000000000000000000000600052601160045260246000fd5b7f4e487b7100000000000000000000000000000000000000000000000000000000600052601260045260246000fd5b7f4e487b7100000000000000000000000000000000000000000000000000000000600052604160045260246000fd5b6000601f19601f8301169050919050565b613b3d8161395e565b8114613b4857600080fd5b50565b613b5481613970565b8114613b5f57600080fd5b50565b613b6b816139c8565b8114613b7657600080fd5b5056fea26469706673582212205798e44b5533a029839f286f51fff4e1747493854a48f9160227cbb53cfb032864736f6c63430008000033",
  "linkReferences": {},
  "deployedLinkReferences": {}
}