{
  "_format": "hh-sol-artifact-1",
  "contractName": "Marketplace",
  "sourceName": "contracts/Marketplace.sol",
  "abi": [
    {
      "inputs": [
        {
          "internalType": "address",
          "name": "erc20",
          "type": "address"
        },
        {
          "internalType": "address",
          "name": "erc721",
          "type": "address"
        },
        {
          "internalType": "address",
          "name": "_feeReceiver",
          "type": "address"
        }
      ],
      "stateMutability": "nonpayable",
      "type": "constructor"
    },
    {
      "anonymous": false,
      "inputs": [
        {
          "indexed": false,
          "internalType": "uint256",
          "name": "saleId",
          "type": "uint256"
        },
        {
          "indexed": false,
          "internalType": "uint256",
          "name": "tokenId",
          "type": "uint256"
        },
        {
          "indexed": false,
          "internalType": "address",
          "name": "seller",
          "type": "address"
        },
        {
          "indexed": false,
          "internalType": "address",
          "name": "buyer",
          "type": "address"
        },
        {
          "indexed": false,
          "internalType": "address",
          "name": "feeReceiver",
          "type": "address"
        },
        {
          "indexed": false,
          "internalType": "uint256",
          "name": "fee",
          "type": "uint256"
        },
        {
          "indexed": false,
          "internalType": "uint256",
          "name": "lastUpdated",
          "type": "uint256"
        }
      ],
      "name": "FeeTransfered",
      "type": "event"
    },
    {
      "anonymous": false,
      "inputs": [
        {
          "indexed": true,
          "internalType": "address",
          "name": "previousOwner",
          "type": "address"
        },
        {
          "indexed": true,
          "internalType": "address",
          "name": "newOwner",
          "type": "address"
        }
      ],
      "name": "OwnershipTransferred",
      "type": "event"
    },
    {
      "anonymous": false,
      "inputs": [
        {
          "indexed": true,
          "internalType": "uint256",
          "name": "saleId",
          "type": "uint256"
        },
        {
          "indexed": true,
          "internalType": "uint256",
          "name": "tokenId",
          "type": "uint256"
        },
        {
          "indexed": true,
          "internalType": "address",
          "name": "seller",
          "type": "address"
        },
        {
          "indexed": false,
          "internalType": "uint256",
          "name": "price",
          "type": "uint256"
        },
        {
          "indexed": false,
          "internalType": "uint256",
          "name": "lastUpdated",
          "type": "uint256"
        }
      ],
      "name": "SaleCanceled",
      "type": "event"
    },
    {
      "anonymous": false,
      "inputs": [
        {
          "indexed": true,
          "internalType": "uint256",
          "name": "saleId",
          "type": "uint256"
        },
        {
          "indexed": true,
          "internalType": "uint256",
          "name": "tokenId",
          "type": "uint256"
        },
        {
          "indexed": true,
          "internalType": "address",
          "name": "seller",
          "type": "address"
        },
        {
          "indexed": false,
          "internalType": "uint256",
          "name": "price",
          "type": "uint256"
        },
        {
          "indexed": false,
          "internalType": "bool",
          "name": "isSold",
          "type": "bool"
        },
        {
          "indexed": false,
          "internalType": "uint256",
          "name": "lastUpdated",
          "type": "uint256"
        }
      ],
      "name": "SaleCreated",
      "type": "event"
    },
    {
      "anonymous": false,
      "inputs": [
        {
          "indexed": true,
          "internalType": "uint256",
          "name": "saleId",
          "type": "uint256"
        },
        {
          "indexed": true,
          "internalType": "uint256",
          "name": "tokenId",
          "type": "uint256"
        },
        {
          "indexed": false,
          "internalType": "address",
          "name": "seller",
          "type": "address"
        },
        {
          "indexed": false,
          "internalType": "uint256",
          "name": "price",
          "type": "uint256"
        },
        {
          "indexed": false,
          "internalType": "bool",
          "name": "isSold",
          "type": "bool"
        },
        {
          "indexed": false,
          "internalType": "uint256",
          "name": "lastUpdated",
          "type": "uint256"
        }
      ],
      "name": "SaleSold",
      "type": "event"
    },
    {
      "anonymous": false,
      "inputs": [
        {
          "indexed": true,
          "internalType": "uint256",
          "name": "saleId",
          "type": "uint256"
        },
        {
          "indexed": true,
          "internalType": "uint256",
          "name": "tokenId",
          "type": "uint256"
        },
        {
          "indexed": true,
          "internalType": "address",
          "name": "seller",
          "type": "address"
        },
        {
          "indexed": false,
          "internalType": "uint256",
          "name": "price",
          "type": "uint256"
        },
        {
          "indexed": false,
          "internalType": "uint256",
          "name": "lastUpdated",
          "type": "uint256"
        }
      ],
      "name": "SaleUpdated",
      "type": "event"
    },
    {
      "inputs": [],
      "name": "bike",
      "outputs": [
        {
          "internalType": "contract IERC721",
          "name": "",
          "type": "address"
        }
      ],
      "stateMutability": "view",
      "type": "function"
    },
    {
      "inputs": [],
      "name": "busd",
      "outputs": [
        {
          "internalType": "contract IERC20",
          "name": "",
          "type": "address"
        }
      ],
      "stateMutability": "view",
      "type": "function"
    },
    {
      "inputs": [
        {
          "internalType": "uint256",
          "name": "saleId",
          "type": "uint256"
        }
      ],
      "name": "cancelSale",
      "outputs": [],
      "stateMutability": "nonpayable",
      "type": "function"
    },
    {
      "inputs": [
        {
          "internalType": "uint256",
          "name": "saleId",
          "type": "uint256"
        },
        {
          "internalType": "uint256",
          "name": "newPrice",
          "type": "uint256"
        }
      ],
      "name": "changeSalePrice",
      "outputs": [],
      "stateMutability": "nonpayable",
      "type": "function"
    },
    {
      "inputs": [
        {
          "internalType": "uint256",
          "name": "tokenId",
          "type": "uint256"
        },
        {
          "internalType": "uint256",
          "name": "price",
          "type": "uint256"
        }
      ],
      "name": "createSale",
      "outputs": [],
      "stateMutability": "nonpayable",
      "type": "function"
    },
    {
      "inputs": [],
      "name": "feePercentX10",
      "outputs": [
        {
          "internalType": "uint256",
          "name": "",
          "type": "uint256"
        }
      ],
      "stateMutability": "view",
      "type": "function"
    },
    {
      "inputs": [],
      "name": "feeReceiver",
      "outputs": [
        {
          "internalType": "address",
          "name": "",
          "type": "address"
        }
      ],
      "stateMutability": "view",
      "type": "function"
    },
    {
      "inputs": [
        {
          "internalType": "uint256",
          "name": "page",
          "type": "uint256"
        },
        {
          "internalType": "uint256",
          "name": "size",
          "type": "uint256"
        }
      ],
      "name": "getActiveSalesByPage",
      "outputs": [
        {
          "components": [
            {
              "internalType": "uint256",
              "name": "saleId",
              "type": "uint256"
            },
            {
              "internalType": "uint256",
              "name": "tokenId",
              "type": "uint256"
            },
            {
              "internalType": "address",
              "name": "seller",
              "type": "address"
            },
            {
              "internalType": "address",
              "name": "buyer",
              "type": "address"
            },
            {
              "internalType": "uint256",
              "name": "price",
              "type": "uint256"
            },
            {
              "internalType": "bool",
              "name": "isSold",
              "type": "bool"
            },
            {
              "internalType": "bool",
              "name": "isActive",
              "type": "bool"
            },
            {
              "internalType": "uint256",
              "name": "lastUpdated",
              "type": "uint256"
            }
          ],
          "internalType": "struct Marketplace.Sale[]",
          "name": "",
          "type": "tuple[]"
        }
      ],
      "stateMutability": "view",
      "type": "function"
    },
    {
      "inputs": [],
      "name": "getUserCreatedSales",
      "outputs": [
        {
          "components": [
            {
              "internalType": "uint256",
              "name": "saleId",
              "type": "uint256"
            },
            {
              "internalType": "uint256",
              "name": "tokenId",
              "type": "uint256"
            },
            {
              "internalType": "address",
              "name": "seller",
              "type": "address"
            },
            {
              "internalType": "address",
              "name": "buyer",
              "type": "address"
            },
            {
              "internalType": "uint256",
              "name": "price",
              "type": "uint256"
            },
            {
              "internalType": "bool",
              "name": "isSold",
              "type": "bool"
            },
            {
              "internalType": "bool",
              "name": "isActive",
              "type": "bool"
            },
            {
              "internalType": "uint256",
              "name": "lastUpdated",
              "type": "uint256"
            }
          ],
          "internalType": "struct Marketplace.Sale[]",
          "name": "",
          "type": "tuple[]"
        }
      ],
      "stateMutability": "view",
      "type": "function"
    },
    {
      "inputs": [],
      "name": "getUserNFTs",
      "outputs": [
        {
          "components": [
            {
              "internalType": "uint256",
              "name": "tokenId",
              "type": "uint256"
            },
            {
              "internalType": "address",
              "name": "contractAddress",
              "type": "address"
            },
            {
              "internalType": "string",
              "name": "URI",
              "type": "string"
            }
          ],
          "internalType": "struct Marketplace.TokenInfo[]",
          "name": "",
          "type": "tuple[]"
        }
      ],
      "stateMutability": "view",
      "type": "function"
    },
    {
      "inputs": [],
      "name": "getUserPurchasedSales",
      "outputs": [
        {
          "components": [
            {
              "internalType": "uint256",
              "name": "saleId",
              "type": "uint256"
            },
            {
              "internalType": "uint256",
              "name": "tokenId",
              "type": "uint256"
            },
            {
              "internalType": "address",
              "name": "seller",
              "type": "address"
            },
            {
              "internalType": "address",
              "name": "buyer",
              "type": "address"
            },
            {
              "internalType": "uint256",
              "name": "price",
              "type": "uint256"
            },
            {
              "internalType": "bool",
              "name": "isSold",
              "type": "bool"
            },
            {
              "internalType": "bool",
              "name": "isActive",
              "type": "bool"
            },
            {
              "internalType": "uint256",
              "name": "lastUpdated",
              "type": "uint256"
            }
          ],
          "internalType": "struct Marketplace.Sale[]",
          "name": "",
          "type": "tuple[]"
        }
      ],
      "stateMutability": "view",
      "type": "function"
    },
    {
      "inputs": [
        {
          "internalType": "address",
          "name": "operator",
          "type": "address"
        },
        {
          "internalType": "address",
          "name": "from",
          "type": "address"
        },
        {
          "internalType": "uint256",
          "name": "tokenId",
          "type": "uint256"
        },
        {
          "internalType": "bytes",
          "name": "data",
          "type": "bytes"
        }
      ],
      "name": "onERC721Received",
      "outputs": [
        {
          "internalType": "bytes4",
          "name": "",
          "type": "bytes4"
        }
      ],
      "stateMutability": "pure",
      "type": "function"
    },
    {
      "inputs": [],
      "name": "owner",
      "outputs": [
        {
          "internalType": "address",
          "name": "",
          "type": "address"
        }
      ],
      "stateMutability": "view",
      "type": "function"
    },
    {
      "inputs": [
        {
          "internalType": "uint256",
          "name": "saleId",
          "type": "uint256"
        }
      ],
      "name": "purchaseSale",
      "outputs": [],
      "stateMutability": "nonpayable",
      "type": "function"
    },
    {
      "inputs": [],
      "name": "renounceOwnership",
      "outputs": [],
      "stateMutability": "nonpayable",
      "type": "function"
    },
    {
      "inputs": [
        {
          "internalType": "uint256",
          "name": "newFee",
          "type": "uint256"
        }
      ],
      "name": "setFee",
      "outputs": [],
      "stateMutability": "nonpayable",
      "type": "function"
    },
    {
      "inputs": [
        {
          "internalType": "address",
          "name": "newFeeReceiver",
          "type": "address"
        }
      ],
      "name": "setFeeReceiver",
      "outputs": [],
      "stateMutability": "nonpayable",
      "type": "function"
    },
    {
      "inputs": [
        {
          "internalType": "address",
          "name": "newOwner",
          "type": "address"
        }
      ],
      "name": "transferOwnership",
      "outputs": [],
      "stateMutability": "nonpayable",
      "type": "function"
    }
  ],
  "bytecode": "0x60806040523480156200001157600080fd5b5060405162003c9938038062003c99833981810160405281019062000037919062000218565b60016000819055506200005f620000536200013360201b60201c565b6200013b60201b60201c565b82600760006101000a81548173ffffffffffffffffffffffffffffffffffffffff021916908373ffffffffffffffffffffffffffffffffffffffff16021790555081600860006101000a81548173ffffffffffffffffffffffffffffffffffffffff021916908373ffffffffffffffffffffffffffffffffffffffff160217905550603260058190555080600660006101000a81548173ffffffffffffffffffffffffffffffffffffffff021916908373ffffffffffffffffffffffffffffffffffffffff160217905550505050620002bc565b600033905090565b6000600160009054906101000a900473ffffffffffffffffffffffffffffffffffffffff16905081600160006101000a81548173ffffffffffffffffffffffffffffffffffffffff021916908373ffffffffffffffffffffffffffffffffffffffff1602179055508173ffffffffffffffffffffffffffffffffffffffff168173ffffffffffffffffffffffffffffffffffffffff167f8be0079c531659141344cd1fd0a4f28419497f9722a3daafe3b4186f6b6457e060405160405180910390a35050565b6000815190506200021281620002a2565b92915050565b6000806000606084860312156200022e57600080fd5b60006200023e8682870162000201565b9350506020620002518682870162000201565b9250506040620002648682870162000201565b9150509250925092565b60006200027b8262000282565b9050919050565b600073ffffffffffffffffffffffffffffffffffffffff82169050919050565b620002ad816200026e565b8114620002b957600080fd5b50565b6139cd80620002cc6000396000f3fe608060405234801561001057600080fd5b50600436106101165760003560e01c8063b3f00674116100a2578063efdcd97411610071578063efdcd974146102a9578063f2fde38b146102c5578063f47cf5da146102e1578063f8bee592146102fd578063fdc5ab8e1461031b57610116565b8063b3f0067414610235578063bd94b00514610253578063c05a6a2d1461026f578063c82e474b1461028d57610116565b80633ca5b234116100e95780633ca5b234146101b75780636019061b146101d557806369fe0e2d146101f1578063715018a61461020d5780638da5cb5b1461021757610116565b80630974ed4b1461011b578063150b7a021461013957806321b7e7e114610169578063355ddccf14610187575b600080fd5b610123610339565b60405161013091906131e8565b60405180910390f35b610153600480360381019061014e91906127ce565b61067c565b604051610160919061322c565b60405180910390f35b610171610691565b60405161017e91906131e8565b60405180910390f35b6101a1600480360381019061019c919061290a565b6109d4565b6040516101ae91906131e8565b60405180910390f35b6101bf610dd0565b6040516101cc9190613247565b60405180910390f35b6101ef60048036038101906101ea919061290a565b610df6565b005b61020b600480360381019061020691906128b8565b611223565b005b6102156112ed565b005b61021f611375565b60405161022c9190613128565b60405180910390f35b61023d61139f565b60405161024a9190613128565b60405180910390f35b61026d600480360381019061026891906128b8565b6113c5565b005b610277611667565b604051610284919061347d565b60405180910390f35b6102a760048036038101906102a2919061290a565b61166d565b005b6102c360048036038101906102be919061277c565b611865565b005b6102df60048036038101906102da919061277c565b611995565b005b6102fb60048036038101906102f691906128b8565b611a8d565b005b61030561211d565b6040516103129190613262565b60405180910390f35b610323612143565b604051610330919061320a565b60405180910390f35b606060006103476002612497565b90506000806000600190505b8381116103e7573373ffffffffffffffffffffffffffffffffffffffff166009600083815260200190815260200160002060030160009054906101000a900473ffffffffffffffffffffffffffffffffffffffff1673ffffffffffffffffffffffffffffffffffffffff1614156103d4576001836103d19190613667565b92505b80806103df9061386b565b915050610353565b5060008267ffffffffffffffff81111561042a577f4e487b7100000000000000000000000000000000000000000000000000000000600052604160045260246000fd5b60405190808252806020026020018201604052801561046357816020015b6104506125b5565b8152602001906001900390816104485790505b5090506000600190505b848111610671573373ffffffffffffffffffffffffffffffffffffffff166009600083815260200190815260200160002060030160009054906101000a900473ffffffffffffffffffffffffffffffffffffffff1673ffffffffffffffffffffffffffffffffffffffff16141561065e576000600960008381526020019081526020016000209050806040518061010001604052908160008201548152602001600182015481526020016002820160009054906101000a900473ffffffffffffffffffffffffffffffffffffffff1673ffffffffffffffffffffffffffffffffffffffff1673ffffffffffffffffffffffffffffffffffffffff1681526020016003820160009054906101000a900473ffffffffffffffffffffffffffffffffffffffff1673ffffffffffffffffffffffffffffffffffffffff1673ffffffffffffffffffffffffffffffffffffffff168152602001600482015481526020016005820160009054906101000a900460ff161515151581526020016005820160019054906101000a900460ff161515151581526020016006820154815250508385806106189061386b565b965081518110610651577f4e487b7100000000000000000000000000000000000000000000000000000000600052603260045260246000fd5b6020026020010181905250505b80806106699061386b565b91505061046d565b508094505050505090565b600063150b7a0260e01b905095945050505050565b6060600061069f6002612497565b90506000806000600190505b83811161073f573373ffffffffffffffffffffffffffffffffffffffff166009600083815260200190815260200160002060020160009054906101000a900473ffffffffffffffffffffffffffffffffffffffff1673ffffffffffffffffffffffffffffffffffffffff16141561072c576001836107299190613667565b92505b80806107379061386b565b9150506106ab565b5060008267ffffffffffffffff811115610782577f4e487b7100000000000000000000000000000000000000000000000000000000600052604160045260246000fd5b6040519080825280602002602001820160405280156107bb57816020015b6107a86125b5565b8152602001906001900390816107a05790505b5090506000600190505b8481116109c9573373ffffffffffffffffffffffffffffffffffffffff166009600083815260200190815260200160002060020160009054906101000a900473ffffffffffffffffffffffffffffffffffffffff1673ffffffffffffffffffffffffffffffffffffffff1614156109b6576000600960008381526020019081526020016000209050806040518061010001604052908160008201548152602001600182015481526020016002820160009054906101000a900473ffffffffffffffffffffffffffffffffffffffff1673ffffffffffffffffffffffffffffffffffffffff1673ffffffffffffffffffffffffffffffffffffffff1681526020016003820160009054906101000a900473ffffffffffffffffffffffffffffffffffffffff1673ffffffffffffffffffffffffffffffffffffffff1673ffffffffffffffffffffffffffffffffffffffff168152602001600482015481526020016005820160009054906101000a900460ff161515151581526020016005820160019054906101000a900460ff161515151581526020016006820154815250508385806109709061386b565b9650815181106109a9577f4e487b7100000000000000000000000000000000000000000000000000000000600052603260045260246000fd5b6020026020010181905250505b80806109c19061386b565b9150506107c5565b508094505050505090565b6060600083101580156109e75750600082115b610a26576040517f08c379a0000000000000000000000000000000000000000000000000000000008152600401610a1d906133dd565b60405180910390fd5b6000610a326002612497565b90506000610a406003612497565b610a4a6004612497565b83610a559190613748565b610a5f9190613748565b90508385610a6d91906136ee565b811015610af857600067ffffffffffffffff811115610ab5577f4e487b7100000000000000000000000000000000000000000000000000000000600052604160045260246000fd5b604051908082528060200260200182016040528015610aee57816020015b610adb6125b5565b815260200190600190039081610ad35790505b5092505050610dca565b6000806000838760018a610b0c9190613667565b610b1691906136ee565b11610b215786610b39565b8688610b2d91906136ee565b84610b389190613748565b5b905060008167ffffffffffffffff811115610b7d577f4e487b7100000000000000000000000000000000000000000000000000000000600052604160045260246000fd5b604051908082528060200260200182016040528015610bb657816020015b610ba36125b5565b815260200190600190039081610b9b5790505b5090506000600190505b868111610dbf576009600082815260200190815260200160002060050160019054906101000a900460ff1615610dac578380610bfb9061386b565b945050888a610c0a91906136ee565b841115610dab576000600960008381526020019081526020016000209050806040518061010001604052908160008201548152602001600182015481526020016002820160009054906101000a900473ffffffffffffffffffffffffffffffffffffffff1673ffffffffffffffffffffffffffffffffffffffff1673ffffffffffffffffffffffffffffffffffffffff1681526020016003820160009054906101000a900473ffffffffffffffffffffffffffffffffffffffff1673ffffffffffffffffffffffffffffffffffffffff1673ffffffffffffffffffffffffffffffffffffffff168152602001600482015481526020016005820160009054906101000a900460ff161515151581526020016005820160019054906101000a900460ff16151515158152602001600682015481525050838781518110610d78577f4e487b7100000000000000000000000000000000000000000000000000000000600052603260045260246000fd5b602002602001018190525060018a610d909190613748565b8680610d9b9061386b565b97501415610da95750610dbf565b505b5b8080610db79061386b565b915050610bc0565b508096505050505050505b92915050565b600760009054906101000a900473ffffffffffffffffffffffffffffffffffffffff1681565b60026000541415610e3c576040517f08c379a0000000000000000000000000000000000000000000000000000000008152600401610e339061345d565b60405180910390fd5b600260008190555060008111610e87576040517f08c379a0000000000000000000000000000000000000000000000000000000008152600401610e7e9061327d565b60405180910390fd5b3373ffffffffffffffffffffffffffffffffffffffff16600860009054906101000a900473ffffffffffffffffffffffffffffffffffffffff1673ffffffffffffffffffffffffffffffffffffffff16636352211e846040518263ffffffff1660e01b8152600401610ef9919061347d565b60206040518083038186803b158015610f1157600080fd5b505afa158015610f25573d6000803e3d6000fd5b505050506040513d601f19601f82011682018060405250810190610f4991906127a5565b73ffffffffffffffffffffffffffffffffffffffff1614610f9f576040517f08c379a0000000000000000000000000000000000000000000000000000000008152600401610f969061337d565b60405180910390fd5b610fa960026124a5565b6000610fb56002612497565b9050600860009054906101000a900473ffffffffffffffffffffffffffffffffffffffff1673ffffffffffffffffffffffffffffffffffffffff166342842e0e3330866040518463ffffffff1660e01b815260040161101693929190613143565b600060405180830381600087803b15801561103057600080fd5b505af1158015611044573d6000803e3d6000fd5b505050506040518061010001604052808281526020018481526020013373ffffffffffffffffffffffffffffffffffffffff168152602001600073ffffffffffffffffffffffffffffffffffffffff1681526020018381526020016000151581526020016001151581526020014281525060096000838152602001908152602001600020600082015181600001556020820151816001015560408201518160020160006101000a81548173ffffffffffffffffffffffffffffffffffffffff021916908373ffffffffffffffffffffffffffffffffffffffff16021790555060608201518160030160006101000a81548173ffffffffffffffffffffffffffffffffffffffff021916908373ffffffffffffffffffffffffffffffffffffffff1602179055506080820151816004015560a08201518160050160006101000a81548160ff02191690831515021790555060c08201518160050160016101000a81548160ff02191690831515021790555060e082015181600601559050503373ffffffffffffffffffffffffffffffffffffffff1683827fd035e36eed79dc051f4a1821b06d9defcfe2a74be16adb4991291117112a50f08560004260405161120e93929190613498565b60405180910390a45060016000819055505050565b61122b6124bb565b73ffffffffffffffffffffffffffffffffffffffff16611249611375565b73ffffffffffffffffffffffffffffffffffffffff161461129f576040517f08c379a0000000000000000000000000000000000000000000000000000000008152600401611296906133bd565b60405180910390fd5b60648111156112e3576040517f08c379a00000000000000000000000000000000000000000000000000000000081526004016112da9061343d565b60405180910390fd5b8060058190555050565b6112f56124bb565b73ffffffffffffffffffffffffffffffffffffffff16611313611375565b73ffffffffffffffffffffffffffffffffffffffff1614611369576040517f08c379a0000000000000000000000000000000000000000000000000000000008152600401611360906133bd565b60405180910390fd5b61137360006124c3565b565b6000600160009054906101000a900473ffffffffffffffffffffffffffffffffffffffff16905090565b600660009054906101000a900473ffffffffffffffffffffffffffffffffffffffff1681565b6002600054141561140b576040517f08c379a00000000000000000000000000000000000000000000000000000000081526004016114029061345d565b60405180910390fd5b6002600081905550806009600082815260200190815260200160002060020160009054906101000a900473ffffffffffffffffffffffffffffffffffffffff1673ffffffffffffffffffffffffffffffffffffffff163373ffffffffffffffffffffffffffffffffffffffff16146114b8576040517f08c379a00000000000000000000000000000000000000000000000000000000081526004016114af906132fd565b60405180910390fd5b60006009600084815260200190815260200160002090508060050160019054906101000a900460ff16611520576040517f08c379a00000000000000000000000000000000000000000000000000000000081526004016115179061329d565b60405180910390fd5b600860009054906101000a900473ffffffffffffffffffffffffffffffffffffffff1673ffffffffffffffffffffffffffffffffffffffff166323b872dd303384600101546040518463ffffffff1660e01b815260040161158393929190613143565b600060405180830381600087803b15801561159d57600080fd5b505af11580156115b1573d6000803e3d6000fd5b5050505060008160050160016101000a81548160ff0219169083151502179055506115dc60046124a5565b8060020160009054906101000a900473ffffffffffffffffffffffffffffffffffffffff1673ffffffffffffffffffffffffffffffffffffffff168160010154847f9cf3aa3c21065a435a0fd60111abd0ae5148ec0805525a8ade76e8c0632b89cd8460040154426040516116529291906134cf565b60405180910390a45050600160008190555050565b60055481565b816009600082815260200190815260200160002060020160009054906101000a900473ffffffffffffffffffffffffffffffffffffffff1673ffffffffffffffffffffffffffffffffffffffff163373ffffffffffffffffffffffffffffffffffffffff1614611712576040517f08c379a0000000000000000000000000000000000000000000000000000000008152600401611709906132fd565b60405180910390fd5b60006009600085815260200190815260200160002090508060050160019054906101000a900460ff16801561175657508060050160009054906101000a900460ff16155b611795576040517f08c379a000000000000000000000000000000000000000000000000000000000815260040161178c9061335d565b60405180910390fd5b600083116117d8576040517f08c379a00000000000000000000000000000000000000000000000000000000081526004016117cf9061339d565b60405180910390fd5b8281600401819055508060020160009054906101000a900473ffffffffffffffffffffffffffffffffffffffff1673ffffffffffffffffffffffffffffffffffffffff168160010154857fb5ff818b1e47858abe4b8dbeee7509d67cc6b3e461dc17faf8340a2defdaa8d78460040154426040516118579291906134cf565b60405180910390a450505050565b61186d6124bb565b73ffffffffffffffffffffffffffffffffffffffff1661188b611375565b73ffffffffffffffffffffffffffffffffffffffff16146118e1576040517f08c379a00000000000000000000000000000000000000000000000000000000081526004016118d8906133bd565b60405180910390fd5b600073ffffffffffffffffffffffffffffffffffffffff168173ffffffffffffffffffffffffffffffffffffffff161415611951576040517f08c379a00000000000000000000000000000000000000000000000000000000081526004016119489061341d565b60405180910390fd5b80600660006101000a81548173ffffffffffffffffffffffffffffffffffffffff021916908373ffffffffffffffffffffffffffffffffffffffff16021790555050565b61199d6124bb565b73ffffffffffffffffffffffffffffffffffffffff166119bb611375565b73ffffffffffffffffffffffffffffffffffffffff1614611a11576040517f08c379a0000000000000000000000000000000000000000000000000000000008152600401611a08906133bd565b60405180910390fd5b600073ffffffffffffffffffffffffffffffffffffffff168173ffffffffffffffffffffffffffffffffffffffff161415611a81576040517f08c379a0000000000000000000000000000000000000000000000000000000008152600401611a78906132bd565b60405180910390fd5b611a8a816124c3565b50565b60026000541415611ad3576040517f08c379a0000000000000000000000000000000000000000000000000000000008152600401611aca9061345d565b60405180910390fd5b60026000819055506000600960008381526020019081526020016000209050600081600401549050600115158260050160019054906101000a900460ff161515148015611b355750600015158260050160009054906101000a900460ff161515145b611b74576040517f08c379a0000000000000000000000000000000000000000000000000000000008152600401611b6b906132dd565b60405180910390fd5b8160020160009054906101000a900473ffffffffffffffffffffffffffffffffffffffff1673ffffffffffffffffffffffffffffffffffffffff163373ffffffffffffffffffffffffffffffffffffffff161415611c07576040517f08c379a0000000000000000000000000000000000000000000000000000000008152600401611bfe9061331d565b60405180910390fd5b6000600760009054906101000a900473ffffffffffffffffffffffffffffffffffffffff1673ffffffffffffffffffffffffffffffffffffffff166323b872dd33600660009054906101000a900473ffffffffffffffffffffffffffffffffffffffff16611c946103e8611c866005548961258990919063ffffffff16565b61259f90919063ffffffff16565b6040518463ffffffff1660e01b8152600401611cb293929190613143565b602060405180830381600087803b158015611ccc57600080fd5b505af1158015611ce0573d6000803e3d6000fd5b505050506040513d601f19601f82011682018060405250810190611d04919061284e565b905080611d46576040517f08c379a0000000000000000000000000000000000000000000000000000000008152600401611d3d906133fd565b60405180910390fd5b6000600760009054906101000a900473ffffffffffffffffffffffffffffffffffffffff1673ffffffffffffffffffffffffffffffffffffffff166323b872dd338660020160009054906101000a900473ffffffffffffffffffffffffffffffffffffffff16611de26103e8611dd46005546103e8611dc59190613748565b8a61258990919063ffffffff16565b61259f90919063ffffffff16565b6040518463ffffffff1660e01b8152600401611e0093929190613143565b602060405180830381600087803b158015611e1a57600080fd5b505af1158015611e2e573d6000803e3d6000fd5b505050506040513d601f19601f82011682018060405250810190611e52919061284e565b905080611e94576040517f08c379a0000000000000000000000000000000000000000000000000000000008152600401611e8b9061333d565b60405180910390fd5b600084600101549050600860009054906101000a900473ffffffffffffffffffffffffffffffffffffffff1673ffffffffffffffffffffffffffffffffffffffff166323b872dd3033846040518463ffffffff1660e01b8152600401611efc93929190613143565b600060405180830381600087803b158015611f1657600080fd5b505af1158015611f2a573d6000803e3d6000fd5b50505050600042905060018660050160006101000a81548160ff02191690831515021790555060008660050160016101000a81548160ff021916908315150217905550338660030160006101000a81548173ffffffffffffffffffffffffffffffffffffffff021916908373ffffffffffffffffffffffffffffffffffffffff160217905550808660060181905550611fc360036124a5565b81877fa1ffbf809f5113e0312f081bb16d51434d610320b7ea557250fdcbded2fbd4478860020160009054906101000a900473ffffffffffffffffffffffffffffffffffffffff16888a60050160009054906101000a900460ff168660405161202f94939291906131a3565b60405180910390a37f7c8ecd76e70d007ea55274b3222da38779706d055ca4fe9a1e61dfc2a7e0c1e387838860020160009054906101000a900473ffffffffffffffffffffffffffffffffffffffff168960030160009054906101000a900473ffffffffffffffffffffffffffffffffffffffff16600660009054906101000a900473ffffffffffffffffffffffffffffffffffffffff166120f06103e86120e26005548e61258990919063ffffffff16565b61259f90919063ffffffff16565b8760405161210497969594939291906134f8565b60405180910390a1505050505050600160008190555050565b600860009054906101000a900473ffffffffffffffffffffffffffffffffffffffff1681565b60606000600860009054906101000a900473ffffffffffffffffffffffffffffffffffffffff1673ffffffffffffffffffffffffffffffffffffffff166370a08231336040518263ffffffff1660e01b81526004016121a29190613128565b60206040518083038186803b1580156121ba57600080fd5b505afa1580156121ce573d6000803e3d6000fd5b505050506040513d601f19601f820116820180604052508101906121f291906128e1565b905060008167ffffffffffffffff811115612236577f4e487b7100000000000000000000000000000000000000000000000000000000600052604160045260246000fd5b60405190808252806020026020018201604052801561226f57816020015b61225c61262a565b8152602001906001900390816122545790505b50905060005b8281101561248e576000600860009054906101000a900473ffffffffffffffffffffffffffffffffffffffff1673ffffffffffffffffffffffffffffffffffffffff16632f745c5933846040518363ffffffff1660e01b81526004016122dc92919061317a565b60206040518083038186803b1580156122f457600080fd5b505afa158015612308573d6000803e3d6000fd5b505050506040513d601f19601f8201168201806040525081019061232c91906128e1565b90506000600860009054906101000a900473ffffffffffffffffffffffffffffffffffffffff1673ffffffffffffffffffffffffffffffffffffffff1663c87b56dd836040518263ffffffff1660e01b815260040161238b919061347d565b60006040518083038186803b1580156123a357600080fd5b505afa1580156123b7573d6000803e3d6000fd5b505050506040513d6000823e3d601f19601f820116820180604052508101906123e09190612877565b90506040518060600160405280838152602001600860009054906101000a900473ffffffffffffffffffffffffffffffffffffffff1673ffffffffffffffffffffffffffffffffffffffff1681526020018281525084848151811061246e577f4e487b7100000000000000000000000000000000000000000000000000000000600052603260045260246000fd5b6020026020010181905250505080806124869061386b565b915050612275565b50809250505090565b600081600001549050919050565b6001816000016000828254019250508190555050565b600033905090565b6000600160009054906101000a900473ffffffffffffffffffffffffffffffffffffffff16905081600160006101000a81548173ffffffffffffffffffffffffffffffffffffffff021916908373ffffffffffffffffffffffffffffffffffffffff1602179055508173ffffffffffffffffffffffffffffffffffffffff168173ffffffffffffffffffffffffffffffffffffffff167f8be0079c531659141344cd1fd0a4f28419497f9722a3daafe3b4186f6b6457e060405160405180910390a35050565b6000818361259791906136ee565b905092915050565b600081836125ad91906136bd565b905092915050565b6040518061010001604052806000815260200160008152602001600073ffffffffffffffffffffffffffffffffffffffff168152602001600073ffffffffffffffffffffffffffffffffffffffff16815260200160008152602001600015158152602001600015158152602001600081525090565b604051806060016040528060008152602001600073ffffffffffffffffffffffffffffffffffffffff168152602001606081525090565b600061267461266f84613598565b613567565b90508281526020810184848401111561268c57600080fd5b612697848285613838565b509392505050565b6000813590506126ae81613952565b92915050565b6000815190506126c381613952565b92915050565b6000815190506126d881613969565b92915050565b60008083601f8401126126f057600080fd5b8235905067ffffffffffffffff81111561270957600080fd5b60208301915083600182028301111561272157600080fd5b9250929050565b600082601f83011261273957600080fd5b8151612749848260208601612661565b91505092915050565b60008135905061276181613980565b92915050565b60008151905061277681613980565b92915050565b60006020828403121561278e57600080fd5b600061279c8482850161269f565b91505092915050565b6000602082840312156127b757600080fd5b60006127c5848285016126b4565b91505092915050565b6000806000806000608086880312156127e657600080fd5b60006127f48882890161269f565b95505060206128058882890161269f565b945050604061281688828901612752565b935050606086013567ffffffffffffffff81111561283357600080fd5b61283f888289016126de565b92509250509295509295909350565b60006020828403121561286057600080fd5b600061286e848285016126c9565b91505092915050565b60006020828403121561288957600080fd5b600082015167ffffffffffffffff8111156128a357600080fd5b6128af84828501612728565b91505092915050565b6000602082840312156128ca57600080fd5b60006128d884828501612752565b91505092915050565b6000602082840312156128f357600080fd5b600061290184828501612767565b91505092915050565b6000806040838503121561291d57600080fd5b600061292b85828601612752565b925050602061293c85828601612752565b9150509250929050565b60006129528383613018565b6101008301905092915050565b600061296b83836130ba565b905092915050565b61297c8161377c565b82525050565b61298b8161377c565b82525050565b600061299c826135e8565b6129a68185613623565b93506129b1836135c8565b8060005b838110156129e25781516129c98882612946565b97506129d483613609565b9250506001810190506129b5565b5085935050505092915050565b60006129fa826135f3565b612a048185613634565b935083602082028501612a16856135d8565b8060005b85811015612a525784840389528151612a33858261295f565b9450612a3e83613616565b925060208a01995050600181019050612a1a565b50829750879550505050505092915050565b612a6d8161378e565b82525050565b612a7c8161378e565b82525050565b612a8b8161379a565b82525050565b612a9a816137f0565b82525050565b612aa981613814565b82525050565b6000612aba826135fe565b612ac48185613645565b9350612ad4818560208601613838565b612add81613941565b840191505092915050565b6000612af5602883613656565b91507f63726561746553616c653a205072696365206d757374206265206174206c656160008301527f73742031207765690000000000000000000000000000000000000000000000006020830152604082019050919050565b6000612b5b601b83613656565b91507f63616e63656c53616c653a2053616c652077617320656e6465642e00000000006000830152602082019050919050565b6000612b9b602683613656565b91507f4f776e61626c653a206e6577206f776e657220697320746865207a65726f206160008301527f64647265737300000000000000000000000000000000000000000000000000006020830152604082019050919050565b6000612c01601983613656565b91507f70757263686173653a2053616c652077617320656e6465642e000000000000006000830152602082019050919050565b6000612c41601383613656565b91507f496e76616c69642073616c652073656c6c6572000000000000000000000000006000830152602082019050919050565b6000612c81602b83613656565b91507f707572636861736553616c653a2042757965722069732073656c6c6572206f6660008301527f2074686973206974656d2e0000000000000000000000000000000000000000006020830152604082019050919050565b6000612ce7601883613656565b91507f4661696c656420746f207472616e7366657220746f6b656e00000000000000006000830152602082019050919050565b6000612d27602083613656565b91507f6368616e676553616c6550726963653a2053616c652077617320656e6465642e6000830152602082019050919050565b6000612d67602583613656565b91507f63726561746553616c653a20596f7520646f206e6f74206f776e20746869732060008301527f746f6b656e0000000000000000000000000000000000000000000000000000006020830152604082019050919050565b6000612dcd602d83613656565b91507f6368616e676553616c6550726963653a205072696365206d757374206265206160008301527f74206c65617374203120776569000000000000000000000000000000000000006020830152604082019050919050565b6000612e33602083613656565b91507f4f776e61626c653a2063616c6c6572206973206e6f7420746865206f776e65726000830152602082019050919050565b6000612e73603a83613656565b91507f67657441637469766553616c65734279506167653a205061676520616e64207360008301527f697a65206d7573742062652067726561746572207468616e20300000000000006020830152604082019050919050565b6000612ed9602483613656565b91507f707572636861736553616c653a204661696c656420746f207472616e7366657260008301527f20666565000000000000000000000000000000000000000000000000000000006020830152604082019050919050565b6000612f3f601c83613656565b91507f73657446656552656365697665723a206e756c6c2061646472657373000000006000830152602082019050919050565b6000612f7f602c83613656565b91507f7365744665653a204665652070657263656e74206d75737420626520736d616c60008301527f6c6572207468616e2031302500000000000000000000000000000000000000006020830152604082019050919050565b6000612fe5601f83613656565b91507f5265656e7472616e637947756172643a207265656e7472616e742063616c6c006000830152602082019050919050565b6101008201600082015161302f600085018261310a565b506020820151613042602085018261310a565b5060408201516130556040850182612973565b5060608201516130686060850182612973565b50608082015161307b608085018261310a565b5060a082015161308e60a0850182612a64565b5060c08201516130a160c0850182612a64565b5060e08201516130b460e085018261310a565b50505050565b60006060830160008301516130d2600086018261310a565b5060208301516130e56020860182612973565b50604083015184820360408601526130fd8282612aaf565b9150508091505092915050565b613113816137e6565b82525050565b613122816137e6565b82525050565b600060208201905061313d6000830184612982565b92915050565b60006060820190506131586000830186612982565b6131656020830185612982565b6131726040830184613119565b949350505050565b600060408201905061318f6000830185612982565b61319c6020830184613119565b9392505050565b60006080820190506131b86000830187612982565b6131c56020830186613119565b6131d26040830185612a73565b6131df6060830184613119565b95945050505050565b600060208201905081810360008301526132028184612991565b905092915050565b6000602082019050818103600083015261322481846129ef565b905092915050565b60006020820190506132416000830184612a82565b92915050565b600060208201905061325c6000830184612a91565b92915050565b60006020820190506132776000830184612aa0565b92915050565b6000602082019050818103600083015261329681612ae8565b9050919050565b600060208201905081810360008301526132b681612b4e565b9050919050565b600060208201905081810360008301526132d681612b8e565b9050919050565b600060208201905081810360008301526132f681612bf4565b9050919050565b6000602082019050818103600083015261331681612c34565b9050919050565b6000602082019050818103600083015261333681612c74565b9050919050565b6000602082019050818103600083015261335681612cda565b9050919050565b6000602082019050818103600083015261337681612d1a565b9050919050565b6000602082019050818103600083015261339681612d5a565b9050919050565b600060208201905081810360008301526133b681612dc0565b9050919050565b600060208201905081810360008301526133d681612e26565b9050919050565b600060208201905081810360008301526133f681612e66565b9050919050565b6000602082019050818103600083015261341681612ecc565b9050919050565b6000602082019050818103600083015261343681612f32565b9050919050565b6000602082019050818103600083015261345681612f72565b9050919050565b6000602082019050818103600083015261347681612fd8565b9050919050565b60006020820190506134926000830184613119565b92915050565b60006060820190506134ad6000830186613119565b6134ba6020830185612a73565b6134c76040830184613119565b949350505050565b60006040820190506134e46000830185613119565b6134f16020830184613119565b9392505050565b600060e08201905061350d600083018a613119565b61351a6020830189613119565b6135276040830188612982565b6135346060830187612982565b6135416080830186612982565b61354e60a0830185613119565b61355b60c0830184613119565b98975050505050505050565b6000604051905081810181811067ffffffffffffffff8211171561358e5761358d613912565b5b8060405250919050565b600067ffffffffffffffff8211156135b3576135b2613912565b5b601f19601f8301169050602081019050919050565b6000819050602082019050919050565b6000819050602082019050919050565b600081519050919050565b600081519050919050565b600081519050919050565b6000602082019050919050565b6000602082019050919050565b600082825260208201905092915050565b600082825260208201905092915050565b600082825260208201905092915050565b600082825260208201905092915050565b6000613672826137e6565b915061367d836137e6565b9250827fffffffffffffffffffffffffffffffffffffffffffffffffffffffffffffffff038211156136b2576136b16138b4565b5b828201905092915050565b60006136c8826137e6565b91506136d3836137e6565b9250826136e3576136e26138e3565b5b828204905092915050565b60006136f9826137e6565b9150613704836137e6565b9250817fffffffffffffffffffffffffffffffffffffffffffffffffffffffffffffffff048311821515161561373d5761373c6138b4565b5b828202905092915050565b6000613753826137e6565b915061375e836137e6565b925082821015613771576137706138b4565b5b828203905092915050565b6000613787826137c6565b9050919050565b60008115159050919050565b60007fffffffff0000000000000000000000000000000000000000000000000000000082169050919050565b600073ffffffffffffffffffffffffffffffffffffffff82169050919050565b6000819050919050565b60006137fb82613802565b9050919050565b600061380d826137c6565b9050919050565b600061381f82613826565b9050919050565b6000613831826137c6565b9050919050565b60005b8381101561385657808201518184015260208101905061383b565b83811115613865576000848401525b50505050565b6000613876826137e6565b91507fffffffffffffffffffffffffffffffffffffffffffffffffffffffffffffffff8214156138a9576138a86138b4565b5b600182019050919050565b7f4e487b7100000000000000000000000000000000000000000000000000000000600052601160045260246000fd5b7f4e487b7100000000000000000000000000000000000000000000000000000000600052601260045260246000fd5b7f4e487b7100000000000000000000000000000000000000000000000000000000600052604160045260246000fd5b6000601f19601f8301169050919050565b61395b8161377c565b811461396657600080fd5b50565b6139728161378e565b811461397d57600080fd5b50565b613989816137e6565b811461399457600080fd5b5056fea264697066735822122053d83ef7a3c26328211b181479a63cf0894987efc51b7b919a4e6971e940722564736f6c63430008000033",
  "linkReferences": {},
  "deployedLinkReferences": {}
}