{
  "_format": "hh-sol-artifact-1",
  "contractName": "Marketplace",
  "sourceName": "contracts/Marketplace.sol",
  "abi": [
    {
      "inputs": [
        {
          "internalType": "address",
          "name": "erc20",
          "type": "address"
        },
        {
          "internalType": "address",
          "name": "erc721",
          "type": "address"
        },
        {
          "internalType": "address",
          "name": "_feeReceiver",
          "type": "address"
        }
      ],
      "stateMutability": "nonpayable",
      "type": "constructor"
    },
    {
      "anonymous": false,
      "inputs": [
        {
          "indexed": false,
          "internalType": "uint256",
          "name": "saleId",
          "type": "uint256"
        },
        {
          "indexed": false,
          "internalType": "uint256",
          "name": "tokenId",
          "type": "uint256"
        },
        {
          "indexed": false,
          "internalType": "address",
          "name": "seller",
          "type": "address"
        },
        {
          "indexed": false,
          "internalType": "address",
          "name": "buyer",
          "type": "address"
        },
        {
          "indexed": false,
          "internalType": "address",
          "name": "feeReceiver",
          "type": "address"
        },
        {
          "indexed": false,
          "internalType": "uint256",
          "name": "fee",
          "type": "uint256"
        },
        {
          "indexed": false,
          "internalType": "uint256",
          "name": "lastUpdated",
          "type": "uint256"
        }
      ],
      "name": "FeeTransfered",
      "type": "event"
    },
    {
      "anonymous": false,
      "inputs": [
        {
          "indexed": true,
          "internalType": "address",
          "name": "previousOwner",
          "type": "address"
        },
        {
          "indexed": true,
          "internalType": "address",
          "name": "newOwner",
          "type": "address"
        }
      ],
      "name": "OwnershipTransferred",
      "type": "event"
    },
    {
      "anonymous": false,
      "inputs": [
        {
          "indexed": true,
          "internalType": "uint256",
          "name": "saleId",
          "type": "uint256"
        },
        {
          "indexed": true,
          "internalType": "uint256",
          "name": "tokenId",
          "type": "uint256"
        },
        {
          "indexed": true,
          "internalType": "address",
          "name": "seller",
          "type": "address"
        },
        {
          "indexed": false,
          "internalType": "uint256",
          "name": "price",
          "type": "uint256"
        },
        {
          "indexed": false,
          "internalType": "uint256",
          "name": "lastUpdated",
          "type": "uint256"
        }
      ],
      "name": "SaleCanceled",
      "type": "event"
    },
    {
      "anonymous": false,
      "inputs": [
        {
          "indexed": true,
          "internalType": "uint256",
          "name": "saleId",
          "type": "uint256"
        },
        {
          "indexed": true,
          "internalType": "uint256",
          "name": "tokenId",
          "type": "uint256"
        },
        {
          "indexed": true,
          "internalType": "address",
          "name": "seller",
          "type": "address"
        },
        {
          "indexed": false,
          "internalType": "uint256",
          "name": "price",
          "type": "uint256"
        },
        {
          "indexed": false,
          "internalType": "bool",
          "name": "isSold",
          "type": "bool"
        },
        {
          "indexed": false,
          "internalType": "uint256",
          "name": "lastUpdated",
          "type": "uint256"
        }
      ],
      "name": "SaleCreated",
      "type": "event"
    },
    {
      "anonymous": false,
      "inputs": [
        {
          "indexed": true,
          "internalType": "uint256",
          "name": "saleId",
          "type": "uint256"
        },
        {
          "indexed": true,
          "internalType": "uint256",
          "name": "tokenId",
          "type": "uint256"
        },
        {
          "indexed": false,
          "internalType": "address",
          "name": "seller",
          "type": "address"
        },
        {
          "indexed": false,
          "internalType": "uint256",
          "name": "price",
          "type": "uint256"
        },
        {
          "indexed": false,
          "internalType": "bool",
          "name": "isSold",
          "type": "bool"
        },
        {
          "indexed": false,
          "internalType": "uint256",
          "name": "lastUpdated",
          "type": "uint256"
        }
      ],
      "name": "SaleSold",
      "type": "event"
    },
    {
      "anonymous": false,
      "inputs": [
        {
          "indexed": true,
          "internalType": "uint256",
          "name": "saleId",
          "type": "uint256"
        },
        {
          "indexed": true,
          "internalType": "uint256",
          "name": "tokenId",
          "type": "uint256"
        },
        {
          "indexed": true,
          "internalType": "address",
          "name": "seller",
          "type": "address"
        },
        {
          "indexed": false,
          "internalType": "uint256",
          "name": "price",
          "type": "uint256"
        },
        {
          "indexed": false,
          "internalType": "uint256",
          "name": "lastUpdated",
          "type": "uint256"
        }
      ],
      "name": "SaleUpdated",
      "type": "event"
    },
    {
      "inputs": [],
      "name": "bike",
      "outputs": [
        {
          "internalType": "contract IERC721",
          "name": "",
          "type": "address"
        }
      ],
      "stateMutability": "view",
      "type": "function"
    },
    {
      "inputs": [],
      "name": "busd",
      "outputs": [
        {
          "internalType": "contract IERC20",
          "name": "",
          "type": "address"
        }
      ],
      "stateMutability": "view",
      "type": "function"
    },
    {
      "inputs": [
        {
          "internalType": "uint256",
          "name": "saleId",
          "type": "uint256"
        }
      ],
      "name": "cancelSale",
      "outputs": [],
      "stateMutability": "nonpayable",
      "type": "function"
    },
    {
      "inputs": [
        {
          "internalType": "uint256",
          "name": "saleId",
          "type": "uint256"
        },
        {
          "internalType": "uint256",
          "name": "newPrice",
          "type": "uint256"
        }
      ],
      "name": "changeSalePrice",
      "outputs": [],
      "stateMutability": "nonpayable",
      "type": "function"
    },
    {
      "inputs": [
        {
          "internalType": "uint256",
          "name": "tokenId",
          "type": "uint256"
        },
        {
          "internalType": "uint256",
          "name": "price",
          "type": "uint256"
        }
      ],
      "name": "createSale",
      "outputs": [],
      "stateMutability": "nonpayable",
      "type": "function"
    },
    {
      "inputs": [],
      "name": "feePercentX10",
      "outputs": [
        {
          "internalType": "uint256",
          "name": "",
          "type": "uint256"
        }
      ],
      "stateMutability": "view",
      "type": "function"
    },
    {
      "inputs": [],
      "name": "feeReceiver",
      "outputs": [
        {
          "internalType": "address",
          "name": "",
          "type": "address"
        }
      ],
      "stateMutability": "view",
      "type": "function"
    },
    {
      "inputs": [
        {
          "internalType": "uint256",
          "name": "page",
          "type": "uint256"
        },
        {
          "internalType": "uint256",
          "name": "size",
          "type": "uint256"
        }
      ],
      "name": "getActiveSalesByPage",
      "outputs": [
        {
          "components": [
            {
              "internalType": "uint256",
              "name": "saleId",
              "type": "uint256"
            },
            {
              "internalType": "uint256",
              "name": "tokenId",
              "type": "uint256"
            },
            {
              "internalType": "address",
              "name": "seller",
              "type": "address"
            },
            {
              "internalType": "address",
              "name": "buyer",
              "type": "address"
            },
            {
              "internalType": "uint256",
              "name": "price",
              "type": "uint256"
            },
            {
              "internalType": "bool",
              "name": "isSold",
              "type": "bool"
            },
            {
              "internalType": "bool",
              "name": "isActive",
              "type": "bool"
            },
            {
              "internalType": "uint256",
              "name": "lastUpdated",
              "type": "uint256"
            }
          ],
          "internalType": "struct Marketplace.Sale[]",
          "name": "",
          "type": "tuple[]"
        }
      ],
      "stateMutability": "view",
      "type": "function"
    },
    {
      "inputs": [],
      "name": "getTotalSale",
      "outputs": [
        {
          "internalType": "uint256",
          "name": "",
          "type": "uint256"
        }
      ],
      "stateMutability": "view",
      "type": "function"
    },
    {
      "inputs": [],
      "name": "getUserCreatedSales",
      "outputs": [
        {
          "components": [
            {
              "internalType": "uint256",
              "name": "saleId",
              "type": "uint256"
            },
            {
              "internalType": "uint256",
              "name": "tokenId",
              "type": "uint256"
            },
            {
              "internalType": "address",
              "name": "seller",
              "type": "address"
            },
            {
              "internalType": "address",
              "name": "buyer",
              "type": "address"
            },
            {
              "internalType": "uint256",
              "name": "price",
              "type": "uint256"
            },
            {
              "internalType": "bool",
              "name": "isSold",
              "type": "bool"
            },
            {
              "internalType": "bool",
              "name": "isActive",
              "type": "bool"
            },
            {
              "internalType": "uint256",
              "name": "lastUpdated",
              "type": "uint256"
            }
          ],
          "internalType": "struct Marketplace.Sale[]",
          "name": "",
          "type": "tuple[]"
        }
      ],
      "stateMutability": "view",
      "type": "function"
    },
    {
      "inputs": [],
      "name": "getUserNFTs",
      "outputs": [
        {
          "components": [
            {
              "internalType": "uint256",
              "name": "tokenId",
              "type": "uint256"
            },
            {
              "internalType": "address",
              "name": "contractAddress",
              "type": "address"
            },
            {
              "internalType": "string",
              "name": "URI",
              "type": "string"
            }
          ],
          "internalType": "struct Marketplace.TokenInfo[]",
          "name": "",
          "type": "tuple[]"
        }
      ],
      "stateMutability": "view",
      "type": "function"
    },
    {
      "inputs": [],
      "name": "getUserPurchasedSales",
      "outputs": [
        {
          "components": [
            {
              "internalType": "uint256",
              "name": "saleId",
              "type": "uint256"
            },
            {
              "internalType": "uint256",
              "name": "tokenId",
              "type": "uint256"
            },
            {
              "internalType": "address",
              "name": "seller",
              "type": "address"
            },
            {
              "internalType": "address",
              "name": "buyer",
              "type": "address"
            },
            {
              "internalType": "uint256",
              "name": "price",
              "type": "uint256"
            },
            {
              "internalType": "bool",
              "name": "isSold",
              "type": "bool"
            },
            {
              "internalType": "bool",
              "name": "isActive",
              "type": "bool"
            },
            {
              "internalType": "uint256",
              "name": "lastUpdated",
              "type": "uint256"
            }
          ],
          "internalType": "struct Marketplace.Sale[]",
          "name": "",
          "type": "tuple[]"
        }
      ],
      "stateMutability": "view",
      "type": "function"
    },
    {
      "inputs": [
        {
          "internalType": "address",
          "name": "operator",
          "type": "address"
        },
        {
          "internalType": "address",
          "name": "from",
          "type": "address"
        },
        {
          "internalType": "uint256",
          "name": "tokenId",
          "type": "uint256"
        },
        {
          "internalType": "bytes",
          "name": "data",
          "type": "bytes"
        }
      ],
      "name": "onERC721Received",
      "outputs": [
        {
          "internalType": "bytes4",
          "name": "",
          "type": "bytes4"
        }
      ],
      "stateMutability": "pure",
      "type": "function"
    },
    {
      "inputs": [],
      "name": "owner",
      "outputs": [
        {
          "internalType": "address",
          "name": "",
          "type": "address"
        }
      ],
      "stateMutability": "view",
      "type": "function"
    },
    {
      "inputs": [
        {
          "internalType": "uint256",
          "name": "saleId",
          "type": "uint256"
        }
      ],
      "name": "purchaseSale",
      "outputs": [],
      "stateMutability": "nonpayable",
      "type": "function"
    },
    {
      "inputs": [],
      "name": "renounceOwnership",
      "outputs": [],
      "stateMutability": "nonpayable",
      "type": "function"
    },
    {
      "inputs": [
        {
          "internalType": "uint256",
          "name": "newFee",
          "type": "uint256"
        }
      ],
      "name": "setFee",
      "outputs": [],
      "stateMutability": "nonpayable",
      "type": "function"
    },
    {
      "inputs": [
        {
          "internalType": "address",
          "name": "newFeeReceiver",
          "type": "address"
        }
      ],
      "name": "setFeeReceiver",
      "outputs": [],
      "stateMutability": "nonpayable",
      "type": "function"
    },
    {
      "inputs": [
        {
          "internalType": "address",
          "name": "newOwner",
          "type": "address"
        }
      ],
      "name": "transferOwnership",
      "outputs": [],
      "stateMutability": "nonpayable",
      "type": "function"
    }
  ],
  "bytecode": "0x60806040523480156200001157600080fd5b5060405162003c3138038062003c31833981810160405281019062000037919062000218565b60016000819055506200005f620000536200013360201b60201c565b6200013b60201b60201c565b82600760006101000a81548173ffffffffffffffffffffffffffffffffffffffff021916908373ffffffffffffffffffffffffffffffffffffffff16021790555081600860006101000a81548173ffffffffffffffffffffffffffffffffffffffff021916908373ffffffffffffffffffffffffffffffffffffffff160217905550603260058190555080600660006101000a81548173ffffffffffffffffffffffffffffffffffffffff021916908373ffffffffffffffffffffffffffffffffffffffff160217905550505050620002bc565b600033905090565b6000600160009054906101000a900473ffffffffffffffffffffffffffffffffffffffff16905081600160006101000a81548173ffffffffffffffffffffffffffffffffffffffff021916908373ffffffffffffffffffffffffffffffffffffffff1602179055508173ffffffffffffffffffffffffffffffffffffffff168173ffffffffffffffffffffffffffffffffffffffff167f8be0079c531659141344cd1fd0a4f28419497f9722a3daafe3b4186f6b6457e060405160405180910390a35050565b6000815190506200021281620002a2565b92915050565b6000806000606084860312156200022e57600080fd5b60006200023e8682870162000201565b9350506020620002518682870162000201565b9250506040620002648682870162000201565b9150509250925092565b60006200027b8262000282565b9050919050565b600073ffffffffffffffffffffffffffffffffffffffff82169050919050565b620002ad816200026e565b8114620002b957600080fd5b50565b61396580620002cc6000396000f3fe608060405234801561001057600080fd5b50600436106101215760003560e01c80638da5cb5b116100ad578063efdcd97411610071578063efdcd974146102d2578063f2fde38b146102ee578063f47cf5da1461030a578063f8bee59214610326578063fdc5ab8e1461034457610121565b80638da5cb5b14610240578063b3f006741461025e578063bd94b0051461027c578063c05a6a2d14610298578063c82e474b146102b657610121565b8063355ddccf116100f4578063355ddccf146101b05780633ca5b234146101e05780636019061b146101fe57806369fe0e2d1461021a578063715018a61461023657610121565b80630974ed4b14610126578063150b7a02146101445780631f2475bd1461017457806321b7e7e114610192575b600080fd5b61012e610362565b60405161013b91906131a0565b60405180910390f35b61015e600480360381019061015991906127ec565b6106a5565b60405161016b91906131e4565b60405180910390f35b61017c6106ba565b6040516101899190613415565b60405180910390f35b61019a6106f3565b6040516101a791906131a0565b60405180910390f35b6101ca60048036038101906101c59190612928565b610a36565b6040516101d791906131a0565b60405180910390f35b6101e8610e32565b6040516101f591906131ff565b60405180910390f35b61021860048036038101906102139190612928565b610e58565b005b610234600480360381019061022f91906128d6565b611285565b005b61023e61130b565b005b610248611393565b60405161025591906130e0565b60405180910390f35b6102666113bd565b60405161027391906130e0565b60405180910390f35b610296600480360381019061029191906128d6565b6113e3565b005b6102a0611685565b6040516102ad9190613415565b60405180910390f35b6102d060048036038101906102cb9190612928565b61168b565b005b6102ec60048036038101906102e7919061279a565b611883565b005b6103086004803603810190610303919061279a565b6119b3565b005b610324600480360381019061031f91906128d6565b611aab565b005b61032e61213b565b60405161033b919061321a565b60405180910390f35b61034c612161565b60405161035991906131c2565b60405180910390f35b6060600061037060026124b5565b90506000806000600190505b838111610410573373ffffffffffffffffffffffffffffffffffffffff166009600083815260200190815260200160002060030160009054906101000a900473ffffffffffffffffffffffffffffffffffffffff1673ffffffffffffffffffffffffffffffffffffffff1614156103fd576001836103fa91906135ff565b92505b808061040890613803565b91505061037c565b5060008267ffffffffffffffff811115610453577f4e487b7100000000000000000000000000000000000000000000000000000000600052604160045260246000fd5b60405190808252806020026020018201604052801561048c57816020015b6104796125d3565b8152602001906001900390816104715790505b5090506000600190505b84811161069a573373ffffffffffffffffffffffffffffffffffffffff166009600083815260200190815260200160002060030160009054906101000a900473ffffffffffffffffffffffffffffffffffffffff1673ffffffffffffffffffffffffffffffffffffffff161415610687576000600960008381526020019081526020016000209050806040518061010001604052908160008201548152602001600182015481526020016002820160009054906101000a900473ffffffffffffffffffffffffffffffffffffffff1673ffffffffffffffffffffffffffffffffffffffff1673ffffffffffffffffffffffffffffffffffffffff1681526020016003820160009054906101000a900473ffffffffffffffffffffffffffffffffffffffff1673ffffffffffffffffffffffffffffffffffffffff1673ffffffffffffffffffffffffffffffffffffffff168152602001600482015481526020016005820160009054906101000a900460ff161515151581526020016005820160019054906101000a900460ff1615151515815260200160068201548152505083858061064190613803565b96508151811061067a577f4e487b7100000000000000000000000000000000000000000000000000000000600052603260045260246000fd5b6020026020010181905250505b808061069290613803565b915050610496565b508094505050505090565b600063150b7a0260e01b905095945050505050565b60006106c660036124b5565b6106d060046124b5565b6106da60026124b5565b6106e491906136e0565b6106ee91906136e0565b905090565b6060600061070160026124b5565b90506000806000600190505b8381116107a1573373ffffffffffffffffffffffffffffffffffffffff166009600083815260200190815260200160002060020160009054906101000a900473ffffffffffffffffffffffffffffffffffffffff1673ffffffffffffffffffffffffffffffffffffffff16141561078e5760018361078b91906135ff565b92505b808061079990613803565b91505061070d565b5060008267ffffffffffffffff8111156107e4577f4e487b7100000000000000000000000000000000000000000000000000000000600052604160045260246000fd5b60405190808252806020026020018201604052801561081d57816020015b61080a6125d3565b8152602001906001900390816108025790505b5090506000600190505b848111610a2b573373ffffffffffffffffffffffffffffffffffffffff166009600083815260200190815260200160002060020160009054906101000a900473ffffffffffffffffffffffffffffffffffffffff1673ffffffffffffffffffffffffffffffffffffffff161415610a18576000600960008381526020019081526020016000209050806040518061010001604052908160008201548152602001600182015481526020016002820160009054906101000a900473ffffffffffffffffffffffffffffffffffffffff1673ffffffffffffffffffffffffffffffffffffffff1673ffffffffffffffffffffffffffffffffffffffff1681526020016003820160009054906101000a900473ffffffffffffffffffffffffffffffffffffffff1673ffffffffffffffffffffffffffffffffffffffff1673ffffffffffffffffffffffffffffffffffffffff168152602001600482015481526020016005820160009054906101000a900460ff161515151581526020016005820160019054906101000a900460ff161515151581526020016006820154815250508385806109d290613803565b965081518110610a0b577f4e487b7100000000000000000000000000000000000000000000000000000000600052603260045260246000fd5b6020026020010181905250505b8080610a2390613803565b915050610827565b508094505050505090565b606060008310158015610a495750600082115b610a88576040517f08c379a0000000000000000000000000000000000000000000000000000000008152600401610a7f90613395565b60405180910390fd5b6000610a9460026124b5565b90506000610aa260036124b5565b610aac60046124b5565b83610ab791906136e0565b610ac191906136e0565b90508385610acf9190613686565b811015610b5a57600067ffffffffffffffff811115610b17577f4e487b7100000000000000000000000000000000000000000000000000000000600052604160045260246000fd5b604051908082528060200260200182016040528015610b5057816020015b610b3d6125d3565b815260200190600190039081610b355790505b5092505050610e2c565b6000806000838760018a610b6e91906135ff565b610b789190613686565b11610b835786610b9b565b8688610b8f9190613686565b84610b9a91906136e0565b5b905060008167ffffffffffffffff811115610bdf577f4e487b7100000000000000000000000000000000000000000000000000000000600052604160045260246000fd5b604051908082528060200260200182016040528015610c1857816020015b610c056125d3565b815260200190600190039081610bfd5790505b5090506000600190505b868111610e21576009600082815260200190815260200160002060050160019054906101000a900460ff1615610e0e578380610c5d90613803565b945050888a610c6c9190613686565b841115610e0d576000600960008381526020019081526020016000209050806040518061010001604052908160008201548152602001600182015481526020016002820160009054906101000a900473ffffffffffffffffffffffffffffffffffffffff1673ffffffffffffffffffffffffffffffffffffffff1673ffffffffffffffffffffffffffffffffffffffff1681526020016003820160009054906101000a900473ffffffffffffffffffffffffffffffffffffffff1673ffffffffffffffffffffffffffffffffffffffff1673ffffffffffffffffffffffffffffffffffffffff168152602001600482015481526020016005820160009054906101000a900460ff161515151581526020016005820160019054906101000a900460ff16151515158152602001600682015481525050838781518110610dda577f4e487b7100000000000000000000000000000000000000000000000000000000600052603260045260246000fd5b602002602001018190525060018a610df291906136e0565b8680610dfd90613803565b97501415610e0b5750610e21565b505b5b8080610e1990613803565b915050610c22565b508096505050505050505b92915050565b600760009054906101000a900473ffffffffffffffffffffffffffffffffffffffff1681565b60026000541415610e9e576040517f08c379a0000000000000000000000000000000000000000000000000000000008152600401610e95906133f5565b60405180910390fd5b600260008190555060008111610ee9576040517f08c379a0000000000000000000000000000000000000000000000000000000008152600401610ee090613235565b60405180910390fd5b3373ffffffffffffffffffffffffffffffffffffffff16600860009054906101000a900473ffffffffffffffffffffffffffffffffffffffff1673ffffffffffffffffffffffffffffffffffffffff16636352211e846040518263ffffffff1660e01b8152600401610f5b9190613415565b60206040518083038186803b158015610f7357600080fd5b505afa158015610f87573d6000803e3d6000fd5b505050506040513d601f19601f82011682018060405250810190610fab91906127c3565b73ffffffffffffffffffffffffffffffffffffffff1614611001576040517f08c379a0000000000000000000000000000000000000000000000000000000008152600401610ff890613335565b60405180910390fd5b61100b60026124c3565b600061101760026124b5565b9050600860009054906101000a900473ffffffffffffffffffffffffffffffffffffffff1673ffffffffffffffffffffffffffffffffffffffff166342842e0e3330866040518463ffffffff1660e01b8152600401611078939291906130fb565b600060405180830381600087803b15801561109257600080fd5b505af11580156110a6573d6000803e3d6000fd5b505050506040518061010001604052808281526020018481526020013373ffffffffffffffffffffffffffffffffffffffff168152602001600073ffffffffffffffffffffffffffffffffffffffff1681526020018381526020016000151581526020016001151581526020014281525060096000838152602001908152602001600020600082015181600001556020820151816001015560408201518160020160006101000a81548173ffffffffffffffffffffffffffffffffffffffff021916908373ffffffffffffffffffffffffffffffffffffffff16021790555060608201518160030160006101000a81548173ffffffffffffffffffffffffffffffffffffffff021916908373ffffffffffffffffffffffffffffffffffffffff1602179055506080820151816004015560a08201518160050160006101000a81548160ff02191690831515021790555060c08201518160050160016101000a81548160ff02191690831515021790555060e082015181600601559050503373ffffffffffffffffffffffffffffffffffffffff1683827fd035e36eed79dc051f4a1821b06d9defcfe2a74be16adb4991291117112a50f08560004260405161127093929190613430565b60405180910390a45060016000819055505050565b61128d6124d9565b73ffffffffffffffffffffffffffffffffffffffff166112ab611393565b73ffffffffffffffffffffffffffffffffffffffff1614611301576040517f08c379a00000000000000000000000000000000000000000000000000000000081526004016112f890613375565b60405180910390fd5b8060058190555050565b6113136124d9565b73ffffffffffffffffffffffffffffffffffffffff16611331611393565b73ffffffffffffffffffffffffffffffffffffffff1614611387576040517f08c379a000000000000000000000000000000000000000000000000000000000815260040161137e90613375565b60405180910390fd5b61139160006124e1565b565b6000600160009054906101000a900473ffffffffffffffffffffffffffffffffffffffff16905090565b600660009054906101000a900473ffffffffffffffffffffffffffffffffffffffff1681565b60026000541415611429576040517f08c379a0000000000000000000000000000000000000000000000000000000008152600401611420906133f5565b60405180910390fd5b6002600081905550806009600082815260200190815260200160002060020160009054906101000a900473ffffffffffffffffffffffffffffffffffffffff1673ffffffffffffffffffffffffffffffffffffffff163373ffffffffffffffffffffffffffffffffffffffff16146114d6576040517f08c379a00000000000000000000000000000000000000000000000000000000081526004016114cd906132b5565b60405180910390fd5b60006009600084815260200190815260200160002090508060050160019054906101000a900460ff1661153e576040517f08c379a000000000000000000000000000000000000000000000000000000000815260040161153590613255565b60405180910390fd5b600860009054906101000a900473ffffffffffffffffffffffffffffffffffffffff1673ffffffffffffffffffffffffffffffffffffffff166323b872dd303384600101546040518463ffffffff1660e01b81526004016115a1939291906130fb565b600060405180830381600087803b1580156115bb57600080fd5b505af11580156115cf573d6000803e3d6000fd5b5050505060008160050160016101000a81548160ff0219169083151502179055506115fa60046124c3565b8060020160009054906101000a900473ffffffffffffffffffffffffffffffffffffffff1673ffffffffffffffffffffffffffffffffffffffff168160010154847f9cf3aa3c21065a435a0fd60111abd0ae5148ec0805525a8ade76e8c0632b89cd846004015442604051611670929190613467565b60405180910390a45050600160008190555050565b60055481565b816009600082815260200190815260200160002060020160009054906101000a900473ffffffffffffffffffffffffffffffffffffffff1673ffffffffffffffffffffffffffffffffffffffff163373ffffffffffffffffffffffffffffffffffffffff1614611730576040517f08c379a0000000000000000000000000000000000000000000000000000000008152600401611727906132b5565b60405180910390fd5b60006009600085815260200190815260200160002090508060050160019054906101000a900460ff16801561177457508060050160009054906101000a900460ff16155b6117b3576040517f08c379a00000000000000000000000000000000000000000000000000000000081526004016117aa90613315565b60405180910390fd5b600083116117f6576040517f08c379a00000000000000000000000000000000000000000000000000000000081526004016117ed90613355565b60405180910390fd5b8281600401819055508060020160009054906101000a900473ffffffffffffffffffffffffffffffffffffffff1673ffffffffffffffffffffffffffffffffffffffff168160010154857fb5ff818b1e47858abe4b8dbeee7509d67cc6b3e461dc17faf8340a2defdaa8d7846004015442604051611875929190613467565b60405180910390a450505050565b61188b6124d9565b73ffffffffffffffffffffffffffffffffffffffff166118a9611393565b73ffffffffffffffffffffffffffffffffffffffff16146118ff576040517f08c379a00000000000000000000000000000000000000000000000000000000081526004016118f690613375565b60405180910390fd5b600073ffffffffffffffffffffffffffffffffffffffff168173ffffffffffffffffffffffffffffffffffffffff16141561196f576040517f08c379a0000000000000000000000000000000000000000000000000000000008152600401611966906133d5565b60405180910390fd5b80600660006101000a81548173ffffffffffffffffffffffffffffffffffffffff021916908373ffffffffffffffffffffffffffffffffffffffff16021790555050565b6119bb6124d9565b73ffffffffffffffffffffffffffffffffffffffff166119d9611393565b73ffffffffffffffffffffffffffffffffffffffff1614611a2f576040517f08c379a0000000000000000000000000000000000000000000000000000000008152600401611a2690613375565b60405180910390fd5b600073ffffffffffffffffffffffffffffffffffffffff168173ffffffffffffffffffffffffffffffffffffffff161415611a9f576040517f08c379a0000000000000000000000000000000000000000000000000000000008152600401611a9690613275565b60405180910390fd5b611aa8816124e1565b50565b60026000541415611af1576040517f08c379a0000000000000000000000000000000000000000000000000000000008152600401611ae8906133f5565b60405180910390fd5b60026000819055506000600960008381526020019081526020016000209050600081600401549050600115158260050160019054906101000a900460ff161515148015611b535750600015158260050160009054906101000a900460ff161515145b611b92576040517f08c379a0000000000000000000000000000000000000000000000000000000008152600401611b8990613295565b60405180910390fd5b8160020160009054906101000a900473ffffffffffffffffffffffffffffffffffffffff1673ffffffffffffffffffffffffffffffffffffffff163373ffffffffffffffffffffffffffffffffffffffff161415611c25576040517f08c379a0000000000000000000000000000000000000000000000000000000008152600401611c1c906132d5565b60405180910390fd5b6000600760009054906101000a900473ffffffffffffffffffffffffffffffffffffffff1673ffffffffffffffffffffffffffffffffffffffff166323b872dd33600660009054906101000a900473ffffffffffffffffffffffffffffffffffffffff16611cb26103e8611ca4600554896125a790919063ffffffff16565b6125bd90919063ffffffff16565b6040518463ffffffff1660e01b8152600401611cd0939291906130fb565b602060405180830381600087803b158015611cea57600080fd5b505af1158015611cfe573d6000803e3d6000fd5b505050506040513d601f19601f82011682018060405250810190611d22919061286c565b905080611d64576040517f08c379a0000000000000000000000000000000000000000000000000000000008152600401611d5b906133b5565b60405180910390fd5b6000600760009054906101000a900473ffffffffffffffffffffffffffffffffffffffff1673ffffffffffffffffffffffffffffffffffffffff166323b872dd338660020160009054906101000a900473ffffffffffffffffffffffffffffffffffffffff16611e006103e8611df26005546103e8611de391906136e0565b8a6125a790919063ffffffff16565b6125bd90919063ffffffff16565b6040518463ffffffff1660e01b8152600401611e1e939291906130fb565b602060405180830381600087803b158015611e3857600080fd5b505af1158015611e4c573d6000803e3d6000fd5b505050506040513d601f19601f82011682018060405250810190611e70919061286c565b905080611eb2576040517f08c379a0000000000000000000000000000000000000000000000000000000008152600401611ea9906132f5565b60405180910390fd5b600084600101549050600860009054906101000a900473ffffffffffffffffffffffffffffffffffffffff1673ffffffffffffffffffffffffffffffffffffffff166323b872dd3033846040518463ffffffff1660e01b8152600401611f1a939291906130fb565b600060405180830381600087803b158015611f3457600080fd5b505af1158015611f48573d6000803e3d6000fd5b50505050600042905060018660050160006101000a81548160ff02191690831515021790555060008660050160016101000a81548160ff021916908315150217905550338660030160006101000a81548173ffffffffffffffffffffffffffffffffffffffff021916908373ffffffffffffffffffffffffffffffffffffffff160217905550808660060181905550611fe160036124c3565b81877fa1ffbf809f5113e0312f081bb16d51434d610320b7ea557250fdcbded2fbd4478860020160009054906101000a900473ffffffffffffffffffffffffffffffffffffffff16888a60050160009054906101000a900460ff168660405161204d949392919061315b565b60405180910390a37f7c8ecd76e70d007ea55274b3222da38779706d055ca4fe9a1e61dfc2a7e0c1e387838860020160009054906101000a900473ffffffffffffffffffffffffffffffffffffffff168960030160009054906101000a900473ffffffffffffffffffffffffffffffffffffffff16600660009054906101000a900473ffffffffffffffffffffffffffffffffffffffff1661210e6103e86121006005548e6125a790919063ffffffff16565b6125bd90919063ffffffff16565b876040516121229796959493929190613490565b60405180910390a1505050505050600160008190555050565b600860009054906101000a900473ffffffffffffffffffffffffffffffffffffffff1681565b60606000600860009054906101000a900473ffffffffffffffffffffffffffffffffffffffff1673ffffffffffffffffffffffffffffffffffffffff166370a08231336040518263ffffffff1660e01b81526004016121c091906130e0565b60206040518083038186803b1580156121d857600080fd5b505afa1580156121ec573d6000803e3d6000fd5b505050506040513d601f19601f8201168201806040525081019061221091906128ff565b905060008167ffffffffffffffff811115612254577f4e487b7100000000000000000000000000000000000000000000000000000000600052604160045260246000fd5b60405190808252806020026020018201604052801561228d57816020015b61227a612648565b8152602001906001900390816122725790505b50905060005b828110156124ac576000600860009054906101000a900473ffffffffffffffffffffffffffffffffffffffff1673ffffffffffffffffffffffffffffffffffffffff16632f745c5933846040518363ffffffff1660e01b81526004016122fa929190613132565b60206040518083038186803b15801561231257600080fd5b505afa158015612326573d6000803e3d6000fd5b505050506040513d601f19601f8201168201806040525081019061234a91906128ff565b90506000600860009054906101000a900473ffffffffffffffffffffffffffffffffffffffff1673ffffffffffffffffffffffffffffffffffffffff1663c87b56dd836040518263ffffffff1660e01b81526004016123a99190613415565b60006040518083038186803b1580156123c157600080fd5b505afa1580156123d5573d6000803e3d6000fd5b505050506040513d6000823e3d601f19601f820116820180604052508101906123fe9190612895565b90506040518060600160405280838152602001600860009054906101000a900473ffffffffffffffffffffffffffffffffffffffff1673ffffffffffffffffffffffffffffffffffffffff1681526020018281525084848151811061248c577f4e487b7100000000000000000000000000000000000000000000000000000000600052603260045260246000fd5b6020026020010181905250505080806124a490613803565b915050612293565b50809250505090565b600081600001549050919050565b6001816000016000828254019250508190555050565b600033905090565b6000600160009054906101000a900473ffffffffffffffffffffffffffffffffffffffff16905081600160006101000a81548173ffffffffffffffffffffffffffffffffffffffff021916908373ffffffffffffffffffffffffffffffffffffffff1602179055508173ffffffffffffffffffffffffffffffffffffffff168173ffffffffffffffffffffffffffffffffffffffff167f8be0079c531659141344cd1fd0a4f28419497f9722a3daafe3b4186f6b6457e060405160405180910390a35050565b600081836125b59190613686565b905092915050565b600081836125cb9190613655565b905092915050565b6040518061010001604052806000815260200160008152602001600073ffffffffffffffffffffffffffffffffffffffff168152602001600073ffffffffffffffffffffffffffffffffffffffff16815260200160008152602001600015158152602001600015158152602001600081525090565b604051806060016040528060008152602001600073ffffffffffffffffffffffffffffffffffffffff168152602001606081525090565b600061269261268d84613530565b6134ff565b9050828152602081018484840111156126aa57600080fd5b6126b58482856137d0565b509392505050565b6000813590506126cc816138ea565b92915050565b6000815190506126e1816138ea565b92915050565b6000815190506126f681613901565b92915050565b60008083601f84011261270e57600080fd5b8235905067ffffffffffffffff81111561272757600080fd5b60208301915083600182028301111561273f57600080fd5b9250929050565b600082601f83011261275757600080fd5b815161276784826020860161267f565b91505092915050565b60008135905061277f81613918565b92915050565b60008151905061279481613918565b92915050565b6000602082840312156127ac57600080fd5b60006127ba848285016126bd565b91505092915050565b6000602082840312156127d557600080fd5b60006127e3848285016126d2565b91505092915050565b60008060008060006080868803121561280457600080fd5b6000612812888289016126bd565b9550506020612823888289016126bd565b945050604061283488828901612770565b935050606086013567ffffffffffffffff81111561285157600080fd5b61285d888289016126fc565b92509250509295509295909350565b60006020828403121561287e57600080fd5b600061288c848285016126e7565b91505092915050565b6000602082840312156128a757600080fd5b600082015167ffffffffffffffff8111156128c157600080fd5b6128cd84828501612746565b91505092915050565b6000602082840312156128e857600080fd5b60006128f684828501612770565b91505092915050565b60006020828403121561291157600080fd5b600061291f84828501612785565b91505092915050565b6000806040838503121561293b57600080fd5b600061294985828601612770565b925050602061295a85828601612770565b9150509250929050565b60006129708383612fd0565b6101008301905092915050565b60006129898383613072565b905092915050565b61299a81613714565b82525050565b6129a981613714565b82525050565b60006129ba82613580565b6129c481856135bb565b93506129cf83613560565b8060005b83811015612a005781516129e78882612964565b97506129f2836135a1565b9250506001810190506129d3565b5085935050505092915050565b6000612a188261358b565b612a2281856135cc565b935083602082028501612a3485613570565b8060005b85811015612a705784840389528151612a51858261297d565b9450612a5c836135ae565b925060208a01995050600181019050612a38565b50829750879550505050505092915050565b612a8b81613726565b82525050565b612a9a81613726565b82525050565b612aa981613732565b82525050565b612ab881613788565b82525050565b612ac7816137ac565b82525050565b6000612ad882613596565b612ae281856135dd565b9350612af28185602086016137d0565b612afb816138d9565b840191505092915050565b6000612b136028836135ee565b91507f63726561746553616c653a205072696365206d757374206265206174206c656160008301527f73742031207765690000000000000000000000000000000000000000000000006020830152604082019050919050565b6000612b79601b836135ee565b91507f63616e63656c53616c653a2053616c652077617320656e6465642e00000000006000830152602082019050919050565b6000612bb96026836135ee565b91507f4f776e61626c653a206e6577206f776e657220697320746865207a65726f206160008301527f64647265737300000000000000000000000000000000000000000000000000006020830152604082019050919050565b6000612c1f6019836135ee565b91507f70757263686173653a2053616c652077617320656e6465642e000000000000006000830152602082019050919050565b6000612c5f6013836135ee565b91507f496e76616c69642073616c652073656c6c6572000000000000000000000000006000830152602082019050919050565b6000612c9f602b836135ee565b91507f707572636861736553616c653a2042757965722069732073656c6c6572206f6660008301527f2074686973206974656d2e0000000000000000000000000000000000000000006020830152604082019050919050565b6000612d056018836135ee565b91507f4661696c656420746f207472616e7366657220746f6b656e00000000000000006000830152602082019050919050565b6000612d456020836135ee565b91507f6368616e676553616c6550726963653a2053616c652077617320656e6465642e6000830152602082019050919050565b6000612d856025836135ee565b91507f63726561746553616c653a20596f7520646f206e6f74206f776e20746869732060008301527f746f6b656e0000000000000000000000000000000000000000000000000000006020830152604082019050919050565b6000612deb602d836135ee565b91507f6368616e676553616c6550726963653a205072696365206d757374206265206160008301527f74206c65617374203120776569000000000000000000000000000000000000006020830152604082019050919050565b6000612e516020836135ee565b91507f4f776e61626c653a2063616c6c6572206973206e6f7420746865206f776e65726000830152602082019050919050565b6000612e91603a836135ee565b91507f67657441637469766553616c65734279506167653a205061676520616e64207360008301527f697a65206d7573742062652067726561746572207468616e20300000000000006020830152604082019050919050565b6000612ef76024836135ee565b91507f707572636861736553616c653a204661696c656420746f207472616e7366657260008301527f20666565000000000000000000000000000000000000000000000000000000006020830152604082019050919050565b6000612f5d601c836135ee565b91507f73657446656552656365697665723a206e756c6c2061646472657373000000006000830152602082019050919050565b6000612f9d601f836135ee565b91507f5265656e7472616e637947756172643a207265656e7472616e742063616c6c006000830152602082019050919050565b61010082016000820151612fe760008501826130c2565b506020820151612ffa60208501826130c2565b50604082015161300d6040850182612991565b5060608201516130206060850182612991565b50608082015161303360808501826130c2565b5060a082015161304660a0850182612a82565b5060c082015161305960c0850182612a82565b5060e082015161306c60e08501826130c2565b50505050565b600060608301600083015161308a60008601826130c2565b50602083015161309d6020860182612991565b50604083015184820360408601526130b58282612acd565b9150508091505092915050565b6130cb8161377e565b82525050565b6130da8161377e565b82525050565b60006020820190506130f560008301846129a0565b92915050565b600060608201905061311060008301866129a0565b61311d60208301856129a0565b61312a60408301846130d1565b949350505050565b600060408201905061314760008301856129a0565b61315460208301846130d1565b9392505050565b600060808201905061317060008301876129a0565b61317d60208301866130d1565b61318a6040830185612a91565b61319760608301846130d1565b95945050505050565b600060208201905081810360008301526131ba81846129af565b905092915050565b600060208201905081810360008301526131dc8184612a0d565b905092915050565b60006020820190506131f96000830184612aa0565b92915050565b60006020820190506132146000830184612aaf565b92915050565b600060208201905061322f6000830184612abe565b92915050565b6000602082019050818103600083015261324e81612b06565b9050919050565b6000602082019050818103600083015261326e81612b6c565b9050919050565b6000602082019050818103600083015261328e81612bac565b9050919050565b600060208201905081810360008301526132ae81612c12565b9050919050565b600060208201905081810360008301526132ce81612c52565b9050919050565b600060208201905081810360008301526132ee81612c92565b9050919050565b6000602082019050818103600083015261330e81612cf8565b9050919050565b6000602082019050818103600083015261332e81612d38565b9050919050565b6000602082019050818103600083015261334e81612d78565b9050919050565b6000602082019050818103600083015261336e81612dde565b9050919050565b6000602082019050818103600083015261338e81612e44565b9050919050565b600060208201905081810360008301526133ae81612e84565b9050919050565b600060208201905081810360008301526133ce81612eea565b9050919050565b600060208201905081810360008301526133ee81612f50565b9050919050565b6000602082019050818103600083015261340e81612f90565b9050919050565b600060208201905061342a60008301846130d1565b92915050565b600060608201905061344560008301866130d1565b6134526020830185612a91565b61345f60408301846130d1565b949350505050565b600060408201905061347c60008301856130d1565b61348960208301846130d1565b9392505050565b600060e0820190506134a5600083018a6130d1565b6134b260208301896130d1565b6134bf60408301886129a0565b6134cc60608301876129a0565b6134d960808301866129a0565b6134e660a08301856130d1565b6134f360c08301846130d1565b98975050505050505050565b6000604051905081810181811067ffffffffffffffff82111715613526576135256138aa565b5b8060405250919050565b600067ffffffffffffffff82111561354b5761354a6138aa565b5b601f19601f8301169050602081019050919050565b6000819050602082019050919050565b6000819050602082019050919050565b600081519050919050565b600081519050919050565b600081519050919050565b6000602082019050919050565b6000602082019050919050565b600082825260208201905092915050565b600082825260208201905092915050565b600082825260208201905092915050565b600082825260208201905092915050565b600061360a8261377e565b91506136158361377e565b9250827fffffffffffffffffffffffffffffffffffffffffffffffffffffffffffffffff0382111561364a5761364961384c565b5b828201905092915050565b60006136608261377e565b915061366b8361377e565b92508261367b5761367a61387b565b5b828204905092915050565b60006136918261377e565b915061369c8361377e565b9250817fffffffffffffffffffffffffffffffffffffffffffffffffffffffffffffffff04831182151516156136d5576136d461384c565b5b828202905092915050565b60006136eb8261377e565b91506136f68361377e565b9250828210156137095761370861384c565b5b828203905092915050565b600061371f8261375e565b9050919050565b60008115159050919050565b60007fffffffff0000000000000000000000000000000000000000000000000000000082169050919050565b600073ffffffffffffffffffffffffffffffffffffffff82169050919050565b6000819050919050565b60006137938261379a565b9050919050565b60006137a58261375e565b9050919050565b60006137b7826137be565b9050919050565b60006137c98261375e565b9050919050565b60005b838110156137ee5780820151818401526020810190506137d3565b838111156137fd576000848401525b50505050565b600061380e8261377e565b91507fffffffffffffffffffffffffffffffffffffffffffffffffffffffffffffffff8214156138415761384061384c565b5b600182019050919050565b7f4e487b7100000000000000000000000000000000000000000000000000000000600052601160045260246000fd5b7f4e487b7100000000000000000000000000000000000000000000000000000000600052601260045260246000fd5b7f4e487b7100000000000000000000000000000000000000000000000000000000600052604160045260246000fd5b6000601f19601f8301169050919050565b6138f381613714565b81146138fe57600080fd5b50565b61390a81613726565b811461391557600080fd5b50565b6139218161377e565b811461392c57600080fd5b5056fea2646970667358221220cb996db079e4d584caa3fc1b06cab7a80188e82c24c2156e67ffb0349d39edd964736f6c63430008000033",
  "linkReferences": {},
  "deployedLinkReferences": {}
}